:100000000C9461000C9473000C9473000C947300B6
:100010000C9473000C9473000C9404030C94730000
:100020000C9473000C9473000C9473000C94730084
:100030000C9473000C9473000C9473000C94730074
:100040000C94BA020C9473000C9473000C9473001B
:100050000C9473000C9473000C9473000C94730054
:100060000C9473000C947300000000002300260021
:10007000290000000008000201000003040700003E
:1000800000000000000000000000250028002B00F8
:1000900000000000240027002A00040404040404D3
:1000A0000404020202020202030303030303010227
:1000B00004081020408001020408102001020408F6
:1000C000102011241FBECFEFD8E0DEBFCDBF21E04E
:1000D000A0E0B1E001C01D92AA31B207E1F70E9491
:1000E0001B030C94C0040C940000833081F028F4AE
:1000F000813099F08230A1F008958730A9F08830DE
:10010000B9F08430D1F4809180008F7D03C080915C
:1001100080008F7780938000089584B58F7702C028
:1001200084B58F7D84BD08958091B0008F7703C022
:100130008091B0008F7D8093B00008951F93CF937E
:10014000DF93282F30E0F901EE58FF4F8491F90139
:10015000E255FF4FD491F901E656FF4FC491CC23ED
:10016000C9F0162F81110E947500EC2FF0E0EE0F00
:10017000FF1FEA57FF4FA591B4918FB7F894111163
:1001800005C09C91ED2FE095E92302C0EC91ED2B89
:10019000EC938FBFDF91CF911F9108953FB7F894F3
:1001A0008091010190910201A0910301B09104019D
:1001B00026B5A89B05C02F3F19F00196A11DB11DC2
:1001C0003FBFBA2FA92F982F8827820F911DA11DFD
:1001D000B11DBC01CD0143E0660F771F881F991F39
:1001E0004A95D1F708958F929F92AF92BF92CF9286
:1001F000DF92EF92FF926B017C010E94CE004B01D7
:100200005C01C114D104E104F104F1F00E94CE00BC
:10021000DC01CB0188199909AA09BB09883E9340E2
:10022000A105B10570F321E0C21AD108E108F10877
:1002300088EE880E83E0981EA11CB11CC114D10465
:10024000E104F10419F7DDCFFF90EF90DF90CF903C
:10025000BF90AF909F908F9008954F925F927F9242
:100260008F929F92AF92BF92CF92DF92EF92FF92C6
:100270000F931F93CF93DF931F92CDB7DEB72FB7A6
:10028000F8948091050190910601A0910701B09129
:1002900008012FBF4091160150911701609118017C
:1002A000709119018C019D01041B150B260B370B56
:1002B00040911201509113014130510529F04FEC4A
:1002C00057E060E070E004C047EE53E060E070E0AB
:1002D000041715072607370708F43BC1809316015A
:1002E00090931701A0931801B093190180E090E05A
:1002F000A0ECBFE78093090190930A01A0930B0142
:10030000B0930C0180930D0190930E01A0930F0107
:10031000B093100160E0809111010E949E008091D5
:10032000110190E0FC01E255FF4F2491FC01E656DB
:10033000FF4F8491882399F090E0880F991FFC016A
:10034000E057FF4FA591B491FC01EA57FF4F85910B
:1003500094918FB7F894EC91E22BEC938FBF80913E
:10036000120190911301019739F462E170E080E08D
:1003700090E00E94F30004C08CE396E00197F1F74F
:100380008091110190E0FC01E255FF4F2491FC01A6
:10039000E656FF4F84918823C9F090E0880F991F9B
:1003A000FC01E057FF4F45915491FC01EA57FF4F84
:1003B000A591B4919FB7F894FA018081209582238A
:1003C00080838C91E22FE823EC939FBF61E08091C2
:1003D00011010E949E00412C512C00E010E0C12C24
:1003E000D12C3DEF932E0E94CE00A62EF92DF17058
:1003F000BF2EEF2EFF0FFF080E94CE006A196B354B
:1004000018F081E090E055C02091110130E0F90131
:10041000EE58FF4F8491F901E255FF4F8490F901A6
:10042000E656FF4F74907720B9F0882321F0698356
:100430000E9475006981E72DF0E0EE0FFF1FE8597B
:10044000FF4FA591B491EC918E2231E020E009F4A8
:1004500030E0832F922F02C080E090E08E159F0540
:1004600009F4CACF97FC08C0BB2031F0CC0CDD1CCE
:100470006F3110F06894C0F88FE1981639F0EFE30F
:100480009E1205C02601C12CD12C01C08601939477
:10049000F0E59F12A8CF612F7727E52CF12C842D52
:1004A000800F860F850D90E08C159D0539F082E058
:1004B00090E090931501809314014BC0809112013C
:1004C00090911301019791F480E090E00E94C503A0
:1004D00060930D0170930E0180930F0190931001B2
:1004E000B70180E090E00E94C50327C0B80180E01A
:1004F00090E00E94C5032DEC3CEC4CEC5DE30E94C7
:10050000020460930D0170930E0180930F0190938C
:100510001001B20177FF05C07F7744245524461AA5
:10052000570AB201550C880B990B0E94C7032DEC9A
:100530003CEC4CEC5DE30E94020460930901709373
:100540000A0180930B0190930C01109215011092F7
:1005500014010F90DF91CF911F910F91FF90EF90B9
:10056000DF90CF90BF90AF909F908F907F905F90E3
:100570004F9008951F920F920FB60F9211242F9350
:100580003F938F939F93AF93BF9380910501909179
:100590000601A0910701B09108013091000126E009
:1005A000230F2D3720F40296A11DB11D05C029E8A7
:1005B000230F0396A11DB11D209300018093050117
:1005C00090930601A0930701B09308018091010167
:1005D00090910201A0910301B09104010196A11D27
:1005E000B11D8093010190930201A0930301B09388
:1005F0000401BF91AF919F918F913F912F910F90E7
:100600000FBE0F901F9018951F920F920FB60F926A
:1006100011248F930FB6F894A8958091600088619B
:1006200080936000109260000FBE8F910F900FBEFC
:100630000F901F901895789484B5826084BD84B51E
:10064000816084BD85B5826085BD85B5816085BDCD
:1006500080916E00816080936E0010928100809185
:10066000810082608093810080918100816080930D
:100670008100809180008160809380008091B10032
:1006800084608093B1008091B00081608093B0005D
:1006900080917A00846080937A0080917A008260F1
:1006A00080937A0080917A008E7F80937A00809187
:1006B0007A00806880937A001092C10080E1809374
:1006C000110110921301109212012FB7F89480912A
:1006D000050190910601A0910701B09108012FBF7B
:1006E000885B9B40A109B109809316019093170183
:1006F000A0931801B093190182E090E09093130148
:10070000809312010E942D01809114019091150196
:100710008130910521F4909313018093120118E127
:1007200001E6C0E0D0E00E942D010E942D018091E1
:10073000140190911501892B91F0809112019091F3
:100740001301019719F060ED77E002C068EE73E0E5
:10075000072E000C880B990B0E94F30011C014BEE9
:100760001093600000936000A89583B7817F846038
:1007700083BFF89483B7816083BF83B78E7F83BFC5
:10078000209789F20E940000CECFE89409C097FB21
:100790003EF490958095709561957F4F8F4F9F4F58
:1007A0009923A9F0F92F96E9BB279395F69587959C
:1007B00077956795B795F111F8CFFAF4BB0F11F45F
:1007C00060FF1BC06F5F7F4F8F4F9F4F16C0882306
:1007D00011F096E911C0772321F09EE8872F762F3C
:1007E00005C0662371F096E8862F70E060E02AF07D
:1007F0009A95660F771F881FDAF7880F9695879569
:1008000097F908950E9415040C9486040E947804B8
:1008100038F00E947F0420F0952311F00C946F04AF
:100820000C94750411240C94BA040E94970470F37C
:10083000959FC1F3950F50E0551F629FF001729F85
:10084000BB27F00DB11D639FAA27F00DB11DAA1F94
:10085000649F6627B00DA11D661F829F2227B00DE1
:10086000A11D621F739FB00DA11D621F839FA00D6C
:10087000611D221F749F3327A00D611D231F849FBC
:10088000600D211D822F762F6A2F11249F57504013
:100890009AF0F1F088234AF0EE0FFF1FBB1F661F8E
:1008A000771F881F91505040A9F79E3F510580F057
:1008B0000C946F040C94BA045F3FE4F3983ED4F3B5
:1008C000869577956795B795F795E7959F5FC1F7FB
:1008D000FE2B880F911D9695879597F9089597F9A6
:1008E0009F6780E870E060E008959FEF80EC0895D6
:1008F00000240A94161617061806090608950024FF
:100900000A9412161306140605060895092E039478
:10091000000C11F4882352F0BB0F40F4BF2B11F4EC
:1009200060FF04C06F5F7F4F8F4F9F4F089557FD4B
:100930009058440F551F59F05F3F71F04795880F4D
:1009400097FB991F61F09F3F79F0879508951216E4
:1009500013061406551FF2CF4695F1DF08C0161690
:1009600017061806991FF1CF869571056105089441
:100970000895E894BB2766277727CB0197F9089558
:04098000F894FFCF19
:107800000C94343C0C94513C0C94513C0C94513CE1
:107810000C94513C0C94513C0C94513C0C94513CB4
:107820000C94513C0C94513C0C94513C0C94513CA4
:107830000C94513C0C94513C0C94513C0C94513C94
:107840000C94513C0C94513C0C94513C0C94513C84
:107850000C94513C0C94513C0C94513C0C94513C74
:107860000C94513C0C94513C11241FBECFEFD8E036
:10787000DEBFCDBF11E0A0E0B1E0EAE8FFE702C063
:1078800005900D92A230B107D9F712E0A2E0B1E065
:1078900001C01D92AD30B107E1F70E942D3D0C945F
:1078A000C33F0C94003C982F95959595959595958B
:1078B000905D8F708A307CF0282F295A8091C0000B
:1078C00085FFFCCF9093C6008091C00085FFFCCF60
:1078D0002093C6000895282F205DF0CF982F809127
:1078E000C00085FFFCCF9093C6000895EF92FF92F1
:1078F0000F931F93EE24FF2487018091C00087FD22
:1079000017C00894E11CF11C011D111D81E2E8164D
:1079100081EAF80687E0080780E0180770F3E09135
:107920000401F091050109958091C00087FFE9CF1E
:107930008091C6001F910F91FF90EF9008950E94D3
:10794000763C982F8091C00085FFFCCF9093C600B5
:1079500091362CF490330CF09053892F089597555D
:10796000892F08951F930E949F3C182F0E949F3CCF
:107970001295107F810F1F9108951F93182F882350
:1079800021F00E94763C1150E1F71F9108951F935A
:10799000182F0E94763C803249F0809103018F5F5E
:1079A000809303018530C1F01F9108958091C0003C
:1079B00085FFFCCF84E18093C6008091C00085FFE5
:1079C000FCCF1093C6008091C00085FFFCCF80E102
:1079D0008093C6001F910895E0910401F091050184
:1079E00009951F9108950E94763C803241F0809164
:1079F00003018F5F80930301853081F008958091AA
:107A0000C00085FFFCCF84E18093C6008091C00058
:107A100085FFFCCF80E18093C6000895E0910401CA
:107A2000F09105010995089548EC50E08823A1F0F4
:107A30002D9A28EE33E0FA013197F1F721503040CA
:107A4000D1F72D9828EE33E0FA013197F1F7215064
:107A50003040D1F7815061F708953F924F925F9285
:107A60006F927F928F929F92AF92BF92CF92DF924E
:107A7000EF92FF920F931F93CF93DF93000082E06A
:107A80008093C00080E18093C4001092C50088E11B
:107A90008093C10086E08093C2005098589A259A3E
:107AA00081E00E94143D24E1F22E9EE1E92E85E959
:107AB000D82E0FE0C02E10E1B12EAA24A394B1E479
:107AC0009B2EA6E58A2EF2E57F2EE0E26E2E79E46B
:107AD000572E63E5462E50E5352E0E94763C8033C6
:107AE000B1F18133B9F1803409F46FC0813409F404
:107AF00076C0823409F485C0853409F488C08035A5
:107B000031F1823521F1813511F1853509F485C0D6
:107B1000863509F48DC0843609F496C0843709F49B
:107B200003C1853709F472C1863709F466C08091B4
:107B300003018F5F80930301853079F6E0910401A2
:107B4000F091050109950E94763C803351F60E9420
:107B5000F33CC3CF0E94763C803249F78091C0004D
:107B600085FFFCCFF092C6008091C00085FFFCCF5E
:107B70009092C6008091C00085FFFCCF8092C60025
:107B80008091C00085FFFCCF7092C6008091C0003C
:107B900085FFFCCF6092C6008091C00085FFFCCFBE
:107BA0005092C6008091C00085FFFCCF4092C60075
:107BB0008091C00085FFFCCF3092C6008091C0004C
:107BC00085FFFCCFB092C60088CF0E94763C8638F5
:107BD00008F4BDCF0E94763C0E94F33C7ECF0E9409
:107BE000763C803809F49CC0813809F40BC1823896
:107BF00009F430C1883909F48FC080E00E94C73C85
:107C00006CCF84E10E94BD3C0E94F33C66CF85E0CE
:107C10000E94BD3C0E94F33C60CF0E94763C809362
:107C200006010E94763C809307010E94F33C55CFE9
:107C30000E94763C803309F411C183E00E94BD3C70
:107C400080E00E94C73C49CF0E94763C80930902A5
:107C50000E94763C8093080280910C028E7F809374
:107C60000C020E94763C853409F409C18091080217
:107C700090910902892B89F000E010E00E94763C87
:107C8000F801E85FFE4F80830F5F1F4F809108026D
:107C9000909109020817190788F30E94763C8032F8
:107CA00009F045CF80910C0280FFF5C0609106017C
:107CB00070910701660F771F7093070160930601AB
:107CC000A0910802B09109021097C9F0E8E0F1E034
:107CD0009B01AD014E0F5F1FF999FECF32BD21BD53
:107CE000819180BDFA9AF99A2F5F3F4FE417F5070B
:107CF00099F76A0F7B1F70930701609306018091CB
:107D0000C00085FFFCCFF092C6008091C00085FFC7
:107D1000FCCFB092C600E1CE83E00E94C73CDDCE2E
:107D200082E00E94C73CD9CE0E94763C8093090233
:107D30000E94763C80930802809106019091070191
:107D4000880F991F90930701809306010E94763C4B
:107D5000853409F49AC080910C028E7F80930C02C6
:107D60000E94763C803209F0B8CE8091C00085FF39
:107D7000FCCFF092C600A0910802B09109021097C2
:107D8000C1F180910C02082F0170182F1695117007
:107D9000E0910601F0910701AF014F5F5F4FBA011B
:107DA00020E030E00023B1F4112339F49491809164
:107DB000C00085FFFCCF9093C6002F5F3F4FCB01E3
:107DC0000196FA012A173B0780F4BC014F5F5F4F11
:107DD000002351F3F999FECFF2BDE1BDF89A90B5B9
:107DE0008091C00085FFFCCFE6CF709307016093C0
:107DF00006018091C00085FDE5CE8091C00085FF21
:107E0000F8CFE0CE81E00E94C73C67CE0E94763C6E
:107E1000803209F08CCE8091C00085FFFCCFF092BB
:107E2000C6008091C00085FFFCCFE092C600809123
:107E3000C00085FFFCCFD092C6008091C00085FFB6
:107E4000FCCFC092C6008091C00085FFFCCFB092ED
:107E5000C60043CE80E10E94C73C3FCE0E94763CE4
:107E60000E94763C182F0E94763C112309F483C0AF
:107E7000113009F484C08FE00E94C73C2ECE80915F
:107E80000C02816080930C02F1CE80910C02816023
:107E900080930C0265CF809107018823880F880B9F
:107EA0008A2180930B028091060190910701880F2F
:107EB000991F90930701809306018091080280FF2B
:107EC00009C08091080290910902019690930902DD
:107ED00080930802F894F999FECF1127E0910601EA
:107EE000F0910701C8E0D1E0809108029091090269
:107EF000103091F40091570001700130D9F303E084
:107F000000935700E8950091570001700130D9F3B4
:107F100001E100935700E8950990199000915700EE
:107F200001700130D9F301E000935700E8951395F3
:107F3000103498F011270091570001700130D9F3E7
:107F400005E000935700E89500915700017001305B
:107F5000D9F301E100935700E8953296029709F0B2
:107F6000C7CF103011F00296E5CF11248091C000E8
:107F700085FFC5CEC8CE8EE10E94C73CAECD85E957
:0A7F80000E94C73CAACDF894FFCF81
:027F8A00800075
:040000030000780081
:00000001FF
