:100000000C9462000C948A000C948A000C948A0070
:100010000C948A000C948A000C948A000C948A0038
:100020000C948A000C948A000C948A000C948A0028
:100030000C948A000C948A000C948A000C948A0018
:100040000C94AD000C948A000C943B030C946D034B
:100050000C948A000C948A000C948A000C948A00F8
:100060000C948A000C948A0000000009000302002E
:10007000000405080000000000000000000000016E
:10008000020408102040800102040810200102042C
:100090000810204080400404040404040404020204
:1000A000020202020303030303030202030000002F
:1000B00000250028002B0000000000240027002A53
:1000C00000009D0311241FBECFEFD8E0DEBFCDBFDF
:1000D00011E0A0E0B1E0E8EBF8E002C005900D927D
:1000E000AA31B107D9F721E0AAE1B1E001C01D9220
:1000F000A03CB207E1F710E0C2E6D0E004C02197CF
:10010000FE010E945404C136D107C9F70E9422049F
:100110000C945A040C94000026E040E855E260E09C
:1001200070E083E291E00E94E30261E082E00C94DF
:10013000A60161E082E00E94E20160E071E083E2FA
:1001400091E00E940A0460E082E00E94E20168EE11
:1001500073E080E090E00C941C011F920F920FB6A8
:100160000F9211242F933F938F939F93AF93BF933D
:1001700080911F0190912001A0912101B091220155
:1001800030911E0123E0230F2D3768F126E8230F5D
:100190000296A11DB11D20931E0180931F01909313
:1001A0002001A0932101B093220180911A01909126
:1001B0001B01A0911C01B0911D010196A11DB11D53
:1001C00080931A0190931B01A0931C01B0931D0111
:1001D000BF91AF919F918F913F912F910F900FBE43
:1001E0000F901F9018950196A11DB11DD4CF3FB758
:1001F000F89480911A0190911B01A0911C01B0917B
:100200001D0126B5A89B05C02F3F19F00196A11D21
:10021000B11D3FBFBA2FA92F982F8827BC01CD0150
:10022000620F711D811D911D42E0660F771F881FAF
:10023000991F4A95D1F708958F929F92AF92BF92DE
:10024000CF92DF92EF92FF926B017C010E94F70048
:100250004B015C01C114D104E104F104E9F00E94F6
:1002600031040E94F700681979098A099B09683EE0
:1002700073408105910570F321E0C21AD108E108AD
:10028000F10888EE880E83E0981EA11CB11CC114F1
:10029000D104E104F10429F7FF90EF90DF90CF90B3
:1002A000BF90AF909F908F900895789484B58360AD
:1002B00084BD85B5836085BDEEE6F0E08081816018
:1002C0008083E1E8F0E082E0808380818160808348
:1002D000E0E8F0E0808181608083E1EBF0E0808104
:1002E00084608083E0EBF0E080818160808387E838
:1002F00080937A001092C1000895843081F028F430
:100300008230E9F08330F9F00895883071F0893057
:1003100091F08530B9F4809180008F7D03C0809189
:1003200080008F778093800008958091B0008F7750
:100330008093B00008958091B0008F7DF9CF84B58F
:100340008F7784BD089584B58F7DFBCFCF93DF93E6
:1003500090E0FC01E158FF4F24918A569F4FFC0129
:1003600084918823C9F090E0880F991FFC01E9541B
:10037000FF4FA591B491FC01E355FF4FC591D49176
:1003800061110DC09FB7F8948C91209582238C93B6
:100390008881282328839FBFDF91CF910895623001
:1003A00051F49FB7F8943C91822F809583238C93CE
:1003B000E8812E2BEFCF8FB7F894EC912E2B2C9356
:1003C0008FBFEACF1F93CF93DF93282F30E0F9013F
:1003D000E859FF4F8491F901E158FF4FD491F90199
:1003E000EA56FF4FC491CC23A9F0162F81110E9429
:1003F0007D01EC2FF0E0EE0FFF1FE355FF4FA591BD
:10040000B4918FB7F894EC91111108C0D095DE2308
:10041000DC938FBFDF91CF911F910895DE2BF8CF32
:10042000FC01918D228D892F90E0805C9F4F821B73
:1004300091098F7399270895FC01918D828D9817EA
:1004400031F0828DE80FF11D858D90E008958FEFDA
:100450009FEF0895FC01918D828D981761F0A28D18
:10046000AE0FBF2FB11D5D968C91928D9F5F9F73D4
:10047000928F90E008958FEF9FEF0895FC01538DC8
:10048000448D252F30E0842F90E0821B930B54176E
:1004900010F0CF9608950197089583E993E0892B92
:1004A00049F080E090E0892B29F00E9493038111AC
:1004B0000C9400000895FC01A48DA80FB92FB11D64
:1004C000A35ABF4F2C91848D90E001968F7399278A
:1004D000848FA689B7892C93A089B1898C91806477
:1004E0008C93938D848D981306C00288F389E02D38
:1004F00080818F7D80830895CF93DF93EC01888D79
:100500008823B9F0AA89BB89E889F9898C9185FD8E
:1005100003C0808186FD0DC00FB607FCF7CF8C911C
:1005200085FFF2CF808185FFEDCFCE010E945B0277
:10053000E9CFDF91CF910895EF92FF920F931F9330
:10054000CF93DF93EC0181E0888F9B8D8C8D981386
:1005500016C0E889F989808185FF11C0EE89FF897D
:100560006083E889F98980818064808381E090E0FC
:10057000DF91CF911F910F91FF90EF900895F62E8C
:100580000B8D10E00F5F1F4F0F731127E02E8C8D26
:100590008E110CC00FB607FCFACFE889F98980816B
:1005A00085FFF5CFCE010E945B02F1CFEB8DEC0F02
:1005B000FD2FF11DE35AFF4FF0820B8FEA89FB8973
:1005C00080818062D2CFCF92DF92EF92FF921F9311
:1005D000CF93DF93EC016A017B01122FE889F9893F
:1005E00082E08083C11481EED806E104F104A1F019
:1005F00060E079E08DE390E0A70196010E9432046B
:10060000215031094109510956954795379527954C
:10061000211580E1380798F0E889F989108260E8AF
:1006200074E88EE190E0A70196010E943204215007
:100630003109410951095695479537952795EC851C
:10064000FD853083EE85FF852083188EEC89FD893A
:100650001083EA89FB89808188698083EA89FB8924
:1006600080818F7D8083DF91CF911F91FF90EF90EC
:10067000DF90CF9008951F920F920FB60F92112422
:100680002F938F939F93EF93FF93E0913301F0911A
:1006900034018081E0913901F0913A0182FD1BC063
:1006A000908180913C018F5F8F7320913D01821773
:1006B00041F0E0913C01F0E0ED5DFE4F958F8093BD
:1006C0003C01FF91EF919F918F912F910F900FBE61
:1006D0000F901F9018958081F4CF1F920F920FB644
:1006E0000F9211242F933F934F935F936F937F93B8
:1006F0008F939F93AF93BF93EF93FF9383E291E028
:100700000E945B02FF91EF91BF91AF919F918F91FA
:100710007F916F915F914F913F912F910F900FBEFD
:100720000F901F90189583E291E00E94100221E043
:10073000892B09F420E0822F0895E3E2F1E013828F
:10074000128288EE93E0A0E0B0E084839583A683D4
:10075000B78389E091E09183808385EC90E0958771
:10076000848784EC90E09787868780EC90E0918B7B
:10077000808B81EC90E0938B828B82EC90E0958B68
:10078000848B86EC90E0978B868B118E128E138E65
:10079000148E0895AF92BF92CF92DF92EF92FF92A4
:1007A0000F931F93CF93DF936C017B018B01040F99
:1007B000151FEB015E01AE18BF08C017D10759F035
:1007C0006991D601ED91FC910190F081E02DC60177
:1007D0000995892B79F7C501DF91CF911F910F9171
:1007E000FF90EF90DF90CF90BF90AF900895FB0106
:1007F00001900020E9F73197AF01461B570BDC0150
:10080000ED91FC910280F381E02D099467E171E0A4
:100810000C94F7030F931F93CF93DF938C01D0E0D9
:10082000C0E06115710519F00E94F703EC01C801E1
:100830000E9406048C0F9D1FDF91CF911F910F9195
:10084000089508950E9455010E9421040E948C0081
:10085000CDE4D2E00E9499002097E1F30E944D027E
:10086000F9CF0895A1E21A2EAA1BBB1BFD010DC0F2
:10087000AA1FBB1FEE1FFF1FA217B307E407F50750
:1008800020F0A21BB30BE40BF50B661F771F881F2C
:10089000991F1A9469F760957095809590959B01C2
:1008A000AC01BD01CF010895EE0FFF1F0590F4913B
:0808B000E02D0994F894FFCF3C
:1008B8005465737400000000009C02CA033E027C69
:0A08C8000210022A021C020D0A00B1
:00000001FF
