:100000000C9468000C9490000C9490000C94900058
:100010000C9490000C9490000C9490000C94900020
:100020000C9490000C9490000C9490000C94900010
:100030000C9490000C9490000C9490000C94900000
:100040000C941A080C9490000C94DD0A0C940F0B7D
:100050000C9490000C9490000C9490000C949000E0
:100060000C9490000C949000000000090003020022
:10007000000405080000000000000000000000016E
:10008000020408102040800102040810200102042C
:100090000810204080400404040404040404020204
:1000A000020202020303030303030202030000002F
:1000B0000023002600290000000000250028002B56
:1000C0000000000000240027002A000037073F0B33
:1000D00011241FBECFEFD4E0DEBFCDBF11E0A0E002
:1000E000B1E0ECEBF7E102C005900D92AE32B10742
:1000F000D9F722E0AEE2B1E001C01D92A836B20706
:10010000E1F710E0C8E6D0E004C02197FE010E94AC
:10011000D10BC636D107C9F70E949F0B0C94DC0B9C
:100120000C940000FF920F931F93CF93DF93EC0189
:100130008B81823018F060E00E945B098E010A5BBF
:100140001F4FD8011C92F12C88819981DC01ED911F
:10015000FC910084F185E02D0995892BB9F0888107
:100160009981DC01ED91FC910284F385E02D0995E4
:10017000F8019081FE01E90FF11D86839F5FD80190
:100180009C93903408F3FF24F394DECFFE01E65BEA
:10019000FF4F80819181019691838083FF2071F0D0
:1001A000C25BDF4F888199810196998388838DEFA7
:1001B000DF91CF911F910F91FF900895F8018081F9
:1001C000F7CFFC01369620E08FEF9FEF261791F0D6
:1001D0003191832738E0AC0141705527969587957A
:1001E000452B21F041E0842740EA9427315099F7CC
:1001F0002F5FECCF9827892798270895CF92DF9219
:10020000FF920F931F93CF93DF9300D000D0CDB711
:10021000DEB78C016C0186E4C80ED11CD601FC90BF
:100220006F2DC8010E94E100F801EF0DF11D9683CA
:10023000E1E0EF0DE00FF12FF11D8683F394F394CD
:10024000F601F082D80113968C91823018F061E0AB
:100250000E945B09F80180819181D6014C9150E0A8
:10026000DC01ED91FC910280F381E02DB8016A5F21
:100270007F4F0995F8018381823058F18081918107
:10028000DC01ED91FC910680F781E02D0995F801E4
:10029000E65AFF4F80819181A281B38189839A833D
:1002A000AB83BC8389819A81AB81BC81AC01BD01E8
:1002B000415051096109710949835A836B837C83D9
:1002C000892B8A2B8B2B71F760E0F80183810E94C8
:1002D0005B09D8018D919C91DC01ED91FC91028428
:1002E000F385E02D099597FFF4CFF60110820E9467
:1002F0006408F801EA5AFF4F608371838283938315
:100300003A97808191810196918380830F900F901D
:100310000F900F90DF91CF911F910F91FF90DF9081
:10032000CF9008950F931F93CF93DF93EC01FC01BF
:10033000EA5BFF4F6081062F10E062500E94E100EF
:10034000FE01E00FF11F2481358123273227232767
:100350008217930769F0C25BDF4F8881998101960C
:10036000998388838FEFDF91CF911F910F9108952B
:10037000EF81A6E0B1E08D918E1709F444C081E0D1
:10038000AE30B807C1F7C25BDF4F88819981019613
:100390009983888381E0E7CF698588850E94990BDE
:1003A0008C0134E0169507953A95E1F76B858A85BF
:1003B0000E94990B44E0969587954A95E1F7800F46
:1003C000911FC25ADF4F98819817D8F482E0CBCFA3
:1003D000698588850E94990B24E0969587952A95D2
:1003E000E1F7EFCF698588850E94990BEACF69858F
:1003F00088850E94990B8C016B858A850E94990BD8
:10040000DECF80E0B0CFE150E031D8F7F0E0E55F3B
:10041000FD4F0C94D10BCC01CC01F701F701E801A1
:10042000F2010102010201020102010201020102C4
:100430000102CC01F701FC018781928196838058EB
:1004400087836087EA5BFF4F83E0808308954F9244
:100450005F926F927F928F929F92AF92BF92CF9254
:10046000DF92EF92FF920F931F93CF93DF9300D011
:1004700000D000D0CDB7DEB79E838D837B01DC0139
:1004800019966C91199718968C910E94990B8C0172
:10049000ED81FE81638582850E94990B9C0143E07A
:1004A000369527954A95E1F7A22FBC01677077270B
:1004B0006115710511F0A1E0A20FED81FE81A08709
:1004C000EA5BFF4F23E020832D813E812A0F311DFF
:1004D000D90118961C923801680E791ED12C812CF6
:1004E000912C54018394C0806016710609F440C0B9
:1004F000D501C4010D2C04C0880F991FAA1FBB1F72
:100500000A94D2F789839A83AB83BC834D815E8141
:100510004C0D511DDA0116965C90980183E03695DA
:1005200027958A95E1F72E7F31702E0D3F1DD90159
:100530002D913C91B02FBF7002C036952795BA958A
:10054000E2F7898120FF0EC08529DA0116968C9387
:10055000D394B7E0BD1518F4C394C082D12C0F5FBB
:100560001F4FC1CF80955822DA0116965C92F0CFCA
:10057000672B11F0C394C08210811E5F8D819E8114
:100580000E94FE00812F26960FB6F894DEBF0FBEA4
:10059000CDBFDF91CF911F910F91FF90EF90DF9032
:1005A000CF90BF90AF909F908F907F906F905F9013
:1005B0004F900895EF92FF920F931F93CF93DF9385
:1005C000EC018B01698588850E94990BE82EF82E35
:1005D0006B858A850E94990B982F990F98879E01A9
:1005E0002A5B3F4F93E0D9019C938E0D9927991F69
:1005F000F901708152E0E52EE70EAF2DB0E0A817AB
:10060000B907CCF4AA0FBB1FA00FB11FAE01470F53
:10061000511D11966C911197FA01668341E0470FC5
:10062000F9014083FE01E40FF11D4C914683D9018D
:10063000EC92F394DDCFCE010E94FE008E2DDF916F
:10064000CF911F910F91FF90EF9008950F931F93FB
:10065000CF93DF93EC018B01698588850E94990B0C
:10066000482F4F7023E0969587952A95E1F78E7F66
:100670009170F801E80FF91F8A85208131818F3F41
:10068000E9F481E090E0A0E0B0E004C0880F991F99
:10069000AA1FBB1F4A95D2F7822B932B918380838D
:1006A000FE01EA5BFF4F86E08083CE010E94FE00E0
:1006B00088E0DF91CF911F910F91089581E090E044
:1006C000A0E0B0E004C0880F991FAA1FBB1F4A9585
:1006D000D2F78095909582239323E0CFEF92FF92FB
:1006E0000F931F93CF93DF93EC017B01698588857E
:1006F0000E94990B8C016B858A850E94990B1127AA
:10070000000F111F0E0D1F1DF80191838083FE0144
:10071000EA5BFF4F86E08083CE010E94FE0088E006
:10072000DF91CF911F910F91FF90EF9008956F92FD
:100730007F928F929F92AF92BF92CF92DF92EF9271
:10074000FF920F931F93CF93DF93EC017B01698599
:1007500088850E94990B8C016B858A850E94990B74
:10076000800F911FD12C37E0C32E812C912C540186
:10077000839480179107C1F1F80123E0F695E7957E
:100780002A95E1F7EE7FF170EE0DFF1D202F2F70FF
:10079000B501A40104C0440F551F661F771F2A9599
:1007A000D2F7608071809E012C0D311DD901169603
:1007B0002C9130E00D2C02C0359527950A94E2F774
:1007C00020FF0DC04629572951834083D394B7E0B9
:1007D000BD1510F4C394D12C0F5F1F4FCACF4095A5
:1007E000509546215721F0CFFE01EA5BFF4F86E08E
:1007F0008083CE010E94FE0088E0DF91CF911F919F
:100800000F91FF90EF90DF90CF90BF90AF909F90AF
:100810008F907F906F900895AF92BF92CF92DF92AA
:10082000EF92FF920F931F93CF93DF93EC01898593
:10083000AB841A867E0196E4E90EF11C96E0F7017E
:1008400090838E0190E0880F991F6B01C80ED91E0E
:10085000B12C0E5F1F4FAB1459F0F80164858385EE
:100860000E94990BF601819391936F01B394F1CF9C
:10087000F70110811E5FCE010E94FE00812FDF91E3
:10088000CF911F910F91FF90EF90DF90CF90BF908D
:10089000AF9008958F929F92AF92BF92CF92DF92C6
:1008A000EF92FF920F931F93CF93DF93EC018B0195
:1008B000F42EFC01E85BFF4F7183608376964083E2
:1008C00088819981DC01ED91FC910084F185E02D16
:1008D000099581110FC0E12C8E2DDF91CF911F91D1
:1008E0000F91FF90EF90DF90CF90BF90AF909F90CF
:1008F0008F9008956E01B7E4CB0ED11CF601908164
:100900009E012E5A3F4F5901981751F080830E9443
:100910006408D5016D937D938D939C931397DBCFE2
:100920000E946408F50180809180A280B3806819DC
:1009300079098A099B09653071058105910558F28D
:10094000D6011C92CE010E949200E82E8D83B6E063
:10095000B81714F69E818A819813BDCFCE010E94EC
:100960009201D82E882369F0EFEF8E1739F0682FA7
:10097000CE010E941B02CE010E94FE00DD82ED2C02
:10098000ABCF0E946408FE01EA5AFF4F6083718377
:10099000828393831D82EF81E150E03108F09CCF88
:1009A000F0E0EB52FB4F0C94D10BE504E504F604A8
:1009B000F604070518056C046C046C046C046C04E4
:1009C0006C046C046C0429053A054F2DB801CE0166
:1009D000DF91CF911F910F91FF90EF90DF90CF901B
:1009E000BF90AF909F908F900C9427024F2DB8012D
:1009F000CE01DF91CF911F910F91FF90EF90DF908B
:100A0000CF90BF90AF909F908F900C94DA024F2DB3
:100A1000B801CE01DF91CF911F910F91FF90EF9020
:100A2000DF90CF90BF90AF909F908F900C94260353
:100A30004F2DB801CE01DF91CF911F910F91FF9003
:100A4000EF90DF90CF90BF90AF909F908F900C94DD
:100A50006E034F2DB801CE01DF91CF911F910F9101
:100A6000FF90EF90DF90CF90BF90AF909F908F90CE
:100A70000C9497034F2DB801CE01DF91CF911F91B8
:100A80000F91FF90EF90DF90CF90BF90AF909F902D
:100A90008F900C940C0462E087E00E941F0962E0D2
:100AA00088E00E941F0962E089E00E941F0962E05D
:100AB0008AE00E941F0961E08EE00E941F0961E048
:100AC0008FE00E941F0960E08EE00E945B0960E0F9
:100AD0008FE00E945B0950E040E060E170E08BE451
:100AE00091E00E94080869E170E08BE491E00E94C7
:100AF000720750E040E061E170E089E391E00E941C
:100B0000080869E170E089E391E00E947207809132
:100B10000401E3E6F1E02BEC31E0318320838283B2
:100B200082E0838388EE93E09093B4018093B301D5
:100B30001092BD011092BE011092BF011092C0012F
:100B400026E040E855E260E070E08BEC91E00C9428
:100B5000850A60E08EE00E945B0960E08FE00E9401
:100B60005B0910923801089560E08FE00E945B09F4
:100B70006AE070E080E090E00E94950861E08EE01D
:100B80000E945B0981E080933801089560E08EE067
:100B90000E945B096AE070E080E090E00E949508A6
:100BA00061E08FE00E945B0983E080933801089543
:100BB00080913701882301F10E946408AB01BC01D8
:100BC00080912F0190913001A0913101B0913201BB
:100BD000805A9541AF4FBF4F84179507A607B707B7
:100BE00058F4109237010E94A905809136018111B5
:100BF00001C182E0809338018BE491E00E948E076E
:100C000089E391E00E948E078091530182FF09C021
:100C10008BE491E00E94F70790E0909301018093AC
:100C200000018091410182FF09C089E391E00E94A7
:100C3000F70790E0909303018093020180913301C4
:100C40008823B9F080915D0190915E01029789F44B
:100C50000E94B40581E0809337010E94640860938C
:100C60002F017093300180933101909332011092E3
:100C7000330180913301882361F080915D0190916F
:100C80005E01892B31F40E94A90510923701109260
:100C90003301809133018823B9F080915D019091F7
:100CA0005E01049789F40E94C60581E080933701B4
:100CB0000E94640860932F0170933001809331018A
:100CC00090933201109233018091020190910301BF
:100CD000019761F48091000190910101019731F435
:100CE00080913701811102C00E94A9058091020103
:100CF000909103018130910509F07EC0809100013F
:100D000090910101019711F410922E01809102013E
:100D1000909103010197E1F480910001909101010C
:100D2000892BB1F480912E01811112C0809137017D
:100D3000882309F493C00E94A9051092370181E02D
:100D400080932E0162E370E080E090E00E949508BD
:100D50008091020190910301892BE1F480910001BF
:100D6000909101010197B1F480912E01811112C07F
:100D700080913701882309F474C00E94A90510925C
:100D8000370181E080932E0162E370E080E090E023
:100D90000E9495088091AD019091AE0190936201FF
:100DA0008093610180915D0190915E019093350186
:100DB0008093340180913801082E000C990B909398
:100DC000600180935F0143E06DE571E083E691E0AF
:100DD0000E944A0420915D0130915E0180913401AE
:100DE000909135012817390709F43EC081E08093BE
:100DF0003301089584E0FECE892B09F087CF8091DE
:100E0000000190910101892B09F080CF80912E0182
:100E100081117CCF8091360181111BC081E08093CC
:100E200036010E94C6050E94640860932F017093EA
:100E30003001809331019093320181E0809337013A
:100E400080932E0164EF71E080E090E00E949508AD
:100E50005DCF109236010E94B405E5CF0E94C60511
:100E600071CF0E94B40590CF109233010895E3E64C
:100E7000F1E01282138288EE93E09093B4018093A4
:100E8000B3011092BD011092BE011092BF011092E9
:100E9000C0018BEC91E0918380838BE491E00E9410
:100EA000FB0789E391E00C94FB07FC0181890E9418
:100EB000890921E0892B09F420E0822F0895862FEB
:100EC000642F0C941F09FC0182E191E091838083DF
:100ED00012821382148215828AE090E097838683BF
:100EE00010860895FC01778366830895CF93DF937E
:100EF000EC011886E881F9810190F081E02D0995D7
:100F0000882319F08885836088870E9464086A8333
:100F10007B838C839D83DF91CF910895CF92DF9265
:100F2000EF92FF920F931F93CF93DF93EC0188858D
:100F30008B7F8887E881F9810190F081E02DCE01D7
:100F40000995182F8885869581701817B9F00E9429
:100F500064086A837B838C839D83888592E08927DC
:100F60008887888582FB882780F9DF91CF911F9140
:100F70000F91FF90EF90DF90CF9008950E9464084A
:100F8000CA80DB80EC80FD80AB01BC014C195D099F
:100F90006E097F098E819F81B0E0A0E04817590754
:100FA0006A077B07F0F2888581701817D1F20E94DA
:100FB00064086A837B838C839D83888591E089277D
:100FC000846088870E94640809851A852B853C8582
:100FD000601B710B820B930B6D877E878F87988BBD
:100FE0000E94640869877A878B879C87BACFFC0147
:100FF000808581700895CF93DF93EC010E94630791
:1010000088E191E099838883198ADF91CF910895CF
:101010001F93CF93DF93EC01162FE881F9810280B3
:10102000F381E02D0995198BCE01DF91CF911F91AE
:101030000C9476071F920F920FB60F9211242F93E4
:101040003F938F939F93AF93BF938091C7019091EC
:10105000C801A091C901B091CA013091C60123E035
:10106000230F2D3768F126E8230F0296A11DB11D2D
:101070002093C6018093C7019093C801A093C90132
:10108000B093CA018091C2019091C301A091C401A3
:10109000B091C5010196A11DB11D8093C20190932D
:1010A000C301A093C401B093C501BF91AF919F91BB
:1010B0008F913F912F910F900FBE0F901F90189519
:1010C0000196A11DB11DD4CF2FB7F8946091C7012F
:1010D0007091C8018091C9019091CA012FBF0895F4
:1010E0003FB7F8948091C2019091C301A091C401CF
:1010F000B091C50126B5A89B05C02F3F19F00196F8
:10110000A11DB11D3FBFBA2FA92F982F8827BC0161
:10111000CD01620F711D811D911D42E0660F771F89
:10112000881F991F4A95D1F708958F929F92AF9289
:10113000BF92CF92DF92EF92FF926B017C010E94EF
:1011400070084B015C01C114D104E104F104E9F021
:101150000E94AE0B0E947008681979098A099B09E0
:10116000683E73408105910570F321E0C21AD108F1
:10117000E108F10888EE880E83E0981EA11CB11CDE
:10118000C114D104E104F10429F7FF90EF90DF903E
:10119000CF90BF90AF909F908F900895789484B532
:1011A000836084BD85B5836085BDEEE6F0E0808117
:1011B00081608083E1E8F0E082E08083808181606B
:1011C0008083E0E8F0E0808181608083E1EBF0E003
:1011D000808184608083E0EBF0E0808181608083A7
:1011E00087E880937A001092C1000895843081F0DE
:1011F00028F48230E9F08330F9F00895883071F0F6
:10120000893091F08530B9F4809180008F7D03C0E2
:10121000809180008F778093800008958091B00046
:101220008F778093B00008958091B0008F7DF9CFC3
:1012300084B58F7784BD089584B58F7DFBCFCF9320
:10124000DF9390E0FC01E158FF4F24918A569F4FB5
:10125000FC0184918823C9F090E0880F991FFC015C
:10126000EF53FF4FA591B491FC01E954FF4FC59195
:10127000D49161110DC09FB7F8948C912095822371
:101280008C938881282328839FBFDF91CF91089575
:10129000623051F49FB7F8943C91822F809583235C
:1012A0008C93E8812E2BEFCF8FB7F894EC912E2BF7
:1012B0002C938FBFEACF1F93CF93DF93282F30E07B
:1012C000F901E859FF4F8491F901E158FF4FD4919A
:1012D000F901EA56FF4FC491CC23A9F0162F8111D2
:1012E0000E94F608EC2FF0E0EE0FFF1FE954FF4FCD
:1012F000A591B4918FB7F894EC91111108C0D095D5
:10130000DE23DC938FBFDF91CF911F910895DE2BF9
:10131000F8CFCF93DF93282F30E0F901E859FF4F42
:101320008491F901E158FF4FD491F901EA56FF4F3A
:10133000C491CC23A1F081110E94F608EC2FF0E0BB
:10134000EE0FFF1FE355FF4FA591B491EC91ED23F4
:1013500081E090E009F480E0DF91CF91089580E092
:1013600090E0FACFFC01918D228D892F90E0805C76
:101370009F4F821B91098F7399270895FC01918DCE
:10138000828D981731F0828DE80FF11D858D90E0E8
:1013900008958FEF9FEF0895FC01918D828D98172E
:1013A00061F0A28DAE0FBF2FB11D5D968C91928D15
:1013B0009F5F9F73928F90E008958FEF9FEF089546
:1013C000FC01538D448D252F30E0842F90E0821B4B
:1013D000930B541710F0CF9608950197089585E365
:1013E0009BE0892B49F080E090E0892B29F00E9456
:1013F000350B81110C9400000895FC01A48DA80FF9
:10140000B92FB11DA35ABF4F2C91848D90E0019646
:101410008F739927848FA689B7892C93A089B18966
:101420008C9180648C93938D848D981306C0028870
:10143000F389E02D80818F7D80830895CF93DF93A2
:10144000EC01888D8823B9F0AA89BB89E889F989DC
:101450008C9185FD03C0808186FD0DC00FB607FC11
:10146000F7CF8C9185FFF2CF808185FFEDCFCE0144
:101470000E94FD09E9CFDF91CF910895EF92FF928D
:101480000F931F93CF93DF93EC0181E0888F9B8DA7
:101490008C8D981316C0E889F989808185FF11C069
:1014A000EE89FF896083E889F9898081806480837F
:1014B00081E090E0DF91CF911F910F91FF90EF902D
:1014C0000895F62E0B8D10E00F5F1F4F0F7311273D
:1014D000E02E8C8D8E110CC00FB607FCFACFE88978
:1014E000F989808185FFF5CFCE010E94FD09F1CFFA
:1014F000EB8DEC0FFD2FF11DE35AFF4FF0820B8FA8
:10150000EA89FB8980818062D2CFCF92DF92EF920D
:10151000FF921F93CF93DF93EC016A017B01122F9F
:10152000E889F98982E08083C11481EED806E1045C
:10153000F104A1F060E079E08DE390E0A70196016D
:101540000E94AF0B21503109410951095695479529
:1015500037952795211580E1380798F0E889F989B2
:10156000108260E874E88EE190E0A70196010E9485
:10157000AF0B2150310941095109569547953795CF
:101580002795EC85FD853083EE85FF852083188EB9
:10159000EC89FD891083EA89FB89808188698083D1
:1015A000EA89FB8980818F7D8083DF91CF911F91B4
:1015B000FF90EF90DF90CF9008951F920F920FB69B
:1015C0000F9211242F938F939F93EF93FF93E091AA
:1015D000DB01F091DC018081E091E101F091E20119
:1015E00082FD1BC090818091E4018F5F8F732091F9
:1015F000E501821741F0E091E401F0E0E553FE4F90
:10160000958F8093E401FF91EF919F918F912F919E
:101610000F900FBE0F901F9018958081F4CF1F92EE
:101620000F920FB60F9211242F933F934F935F9316
:101630006F937F938F939F93AF93BF93EF93FF939A
:101640008BEC91E00E94FD09FF91EF91BF91AF916A
:101650009F918F917F916F915F914F913F912F91CA
:101660000F900FBE0F901F9018958BEC91E00E9489
:10167000B20921E0892B09F420E0822F0895EBECD8
:10168000F1E01382128288EE93E0A0E0B0E0848360
:101690009583A683B78380E291E09183808385EC74
:1016A00090E09587848784EC90E09787868780EC2C
:1016B00090E0918B808B81EC90E0938B828B82EC1D
:1016C00090E0958B848B86EC90E0978B868B118EC7
:1016D000128E138E148E0895AF92BF92CF92DF9226
:1016E000EF92FF920F931F93CF93DF936C017B01D7
:1016F0008B01040F151FEB015E01AE18BF08C01768
:10170000D10759F06991D601ED91FC910190F081DA
:10171000E02DC6010995892B79F7C501DF91CF919D
:101720001F910F91FF90EF90DF90CF90BF90AF90FF
:101730000895982F862F08950E94D70B08950E9430
:10174000CE080E949E0B0E944B05CFEED9E00E946E
:10175000D8052097E1F30E94EF09F9CF0895A1E29F
:101760001A2EAA1BBB1BFD010DC0AA1FBB1FEE1F1B
:10177000FF1FA217B307E407F50720F0A21BB30B66
:10178000E40BF50B661F771F881F991F1A9469F7E2
:1017900060957095809590959B01AC01BD01CF013E
:1017A0000895EE0FFF1F0590F491E02D099481E05C
:0C17B00090E0F8940C94DC0BF894FFCF50
:1017BC00010001003B000102030405060F100000AC
:1017CC0000009C0B0000000055075F0700000000A4
:0E17DC003E0A6C0BE0091E0AB209CC09BE09D8
:00000001FF
