:020000040000FA
:100000000C9468000C9490000C9490000C94900058
:100010000C9490000C9490000C9490000C94900020
:100020000C9490000C9490000C9490000C94900010
:100030000C9490000C9490000C9490000C94900000
:100040000C94D8090C9490000C949B0C0C94CD0C3F
:100050000C9490000C9490000C9490000C949000E0
:100060000C9490000C949000000000090003020022
:10007000000405080000000000000000000000016E
:10008000020408102040800102040810200102042C
:100090000810204080400404040404040404020204
:1000A000020202020303030303030202030000002F
:1000B0000023002600290000000000250028002B56
:1000C0000000000000240027002A0000F508FD0CB5
:1000D00011241FBECFEFD8E0DEBFCDBF11E0A0E0FE
:1000E000B1E0E4E6FBE102C005900D92AE32B1074B
:1000F000D9F722E0AEE2B1E001C01D92A138B2070B
:10010000E1F710E0C8E6D0E004C02197FE010E94AC
:100110008F0DC636D107C9F70E945D0D0C94B00D46
:100120000C940000FF920F931F93CF93DF93EC0189
:100130008B81823018F060E00E94190B8E010A5BFF
:100140001F4FD8011C92F12C88819981DC01ED911F
:10015000FC910084F185E02D0995892BB9F0888107
:100160009981DC01ED91FC910284F385E02D0995E4
:10017000F8019081FE01E90FF11D86839F5FD80190
:100180009C93903408F3FF24F394DECFFE01E65BEA
:10019000FF4F80819181019691838083FF2071F0D0
:1001A000C25BDF4F888199810196998388838DEFA7
:1001B000DF91CF911F910F91FF900895F8018081F9
:1001C000F7CFFC01369620E08FEF9FEF261791F0D6
:1001D0003191832738E0AC0141705527969587957A
:1001E000452B21F041E0842740EA9427315099F7CC
:1001F0002F5FECCF9827892798270895CF92DF9219
:10020000FF920F931F93CF93DF9300D000D0CDB711
:10021000DEB78C016C0186E4C80ED11CD601FC90BF
:100220006F2DC8010E94E100F801EF0DF11D9683CA
:10023000E1E0EF0DE00FF12FF11D8683F394F394CD
:10024000F601F082D80113968C91823018F061E0AB
:100250000E94190BF80180819181D6014C9150E0E8
:10026000DC01ED91FC910280F381E02DB8016A5F21
:100270007F4F0995F8018381823058F18081918107
:10028000DC01ED91FC910680F781E02D0995F801E4
:10029000E65AFF4F80819181A281B38189839A833D
:1002A000AB83BC8389819A81AB81BC81AC01BD01E8
:1002B000415051096109710949835A836B837C83D9
:1002C000892B8A2B8B2B71F760E0F80183810E94C8
:1002D000190BD8018D919C91DC01ED91FC91028468
:1002E000F385E02D099597FFF4CFF60110820E9467
:1002F000220AF801EA5AFF4F608371838283938355
:100300003A97808191810196918380830F900F901D
:100310000F900F90DF91CF911F910F91FF90DF9081
:10032000CF9008950F931F93CF93DF93EC01FC01BF
:10033000EA5BFF4F6081062F10E062500E94E100EF
:10034000FE01E00FF11F2481358123273227232767
:100350008217930769F0C25BDF4F8881998101960C
:10036000998388838FEFDF91CF911F910F9108952B
:10037000EF81A6E0B1E08D918E1709F444C081E0D1
:10038000AE30B807C1F7C25BDF4F88819981019613
:100390009983888381E0E7CF698588850E94570D1E
:1003A0008C0134E0169507953A95E1F76B858A85BF
:1003B0000E94570D44E0969587954A95E1F7800F86
:1003C000911FC25ADF4F98819817D8F482E0CBCFA3
:1003D000698588850E94570D24E0969587952A9512
:1003E000E1F7EFCF698588850E94570DEACF6985CF
:1003F00088850E94570D8C016B858A850E94570D58
:10040000DECF80E0B0CFE150E031D8F7F0E0E55F3B
:10041000FD4F0C948F0DCC01CC01F701F701E801E1
:10042000F2010102010201020102010201020102C4
:100430000102CC01F701FC018781928196838058EB
:1004400087836087EA5BFF4F83E0808308954F9244
:100450005F926F927F928F929F92AF92BF92CF9254
:10046000DF92EF92FF920F931F93CF93DF9300D011
:1004700000D000D0CDB7DEB79E838D837B01DC0139
:1004800019966C91199718968C910E94570D8C01B2
:10049000ED81FE81638582850E94570D9C0143E0BA
:1004A000369527954A95E1F7A22FBC01677077270B
:1004B0006115710511F0A1E0A20FED81FE81A08709
:1004C000EA5BFF4F23E020832D813E812A0F311DFF
:1004D000D90118961C923801680E791ED12C812CF6
:1004E000912C54018394C0806016710609F440C0B9
:1004F000D501C4010D2C04C0880F991FAA1FBB1F72
:100500000A94D2F789839A83AB83BC834D815E8141
:100510004C0D511DDA0116965C90980183E03695DA
:1005200027958A95E1F72E7F31702E0D3F1DD90159
:100530002D913C91B02FBF7002C036952795BA958A
:10054000E2F7898120FF0EC08529DA0116968C9387
:10055000D394B7E0BD1518F4C394C082D12C0F5FBB
:100560001F4FC1CF80955822DA0116965C92F0CFCA
:10057000672B11F0C394C08210811E5F8D819E8114
:100580000E94FE00812F26960FB6F894DEBF0FBEA4
:10059000CDBFDF91CF911F910F91FF90EF90DF9032
:1005A000CF90BF90AF909F908F907F906F905F9013
:1005B0004F900895EF92FF920F931F93CF93DF9385
:1005C000EC018B01698588850E94570DE82EF82E75
:1005D0006B858A850E94570D982F990F98879E01E9
:1005E0002A5B3F4F93E0D9019C938E0D9927991F69
:1005F000F901708152E0E52EE70EAF2DB0E0A817AB
:10060000B907CCF4AA0FBB1FA00FB11FAE01470F53
:10061000511D11966C911197FA01668341E0470FC5
:10062000F9014083FE01E40FF11D4C914683D9018D
:10063000EC92F394DDCFCE010E94FE008E2DDF916F
:10064000CF911F910F91FF90EF9008950F931F93FB
:10065000CF93DF93EC018B01698588850E94570D4C
:10066000482F4F7023E0969587952A95E1F78E7F66
:100670009170F801E80FF91F8A85208131818F3F41
:10068000E9F481E090E0A0E0B0E004C0880F991F99
:10069000AA1FBB1F4A95D2F7822B932B918380838D
:1006A000FE01EA5BFF4F86E08083CE010E94FE00E0
:1006B00088E0DF91CF911F910F91089581E090E044
:1006C000A0E0B0E004C0880F991FAA1FBB1F4A9585
:1006D000D2F78095909582239323E0CFEF92FF92FB
:1006E0000F931F93CF93DF93EC017B01698588857E
:1006F0000E94570D8C016B858A850E94570D11272A
:10070000000F111F0E0D1F1DF80191838083FE0144
:10071000EA5BFF4F86E08083CE010E94FE0088E006
:10072000DF91CF911F910F91FF90EF9008956F92FD
:100730007F928F929F92AF92BF92CF92DF92EF9271
:10074000FF920F931F93CF93DF93EC017B01698599
:1007500088850E94570D8C016B858A850E94570DF4
:10076000800F911FD12C37E0C32E812C912C540186
:10077000839480179107C1F1F80123E0F695E7957E
:100780002A95E1F7EE7FF170EE0DFF1D202F2F70FF
:10079000B501A40104C0440F551F661F771F2A9599
:1007A000D2F7608071809E012C0D311DD901169603
:1007B0002C9130E00D2C02C0359527950A94E2F774
:1007C00020FF0DC04629572951834083D394B7E0B9
:1007D000BD1510F4C394D12C0F5F1F4FCACF4095A5
:1007E000509546215721F0CFFE01EA5BFF4F86E08E
:1007F0008083CE010E94FE0088E0DF91CF911F919F
:100800000F91FF90EF90DF90CF90BF90AF909F90AF
:100810008F907F906F900895AF92BF92CF92DF92AA
:10082000EF92FF920F931F93CF93DF93EC01898593
:10083000AB841A867E0196E4E90EF11C96E0F7017E
:1008400090838E0190E0880F991F6B01C80ED91E0E
:10085000B12C0E5F1F4FAB1459F0F80164858385EE
:100860000E94570DF601819391936F01B394F1CFDC
:10087000F70110811E5FCE010E94FE00812FDF91E3
:10088000CF911F910F91FF90EF90DF90CF90BF908D
:10089000AF9008958F929F92AF92BF92CF92DF92C6
:1008A000EF92FF920F931F93CF93DF93EC018B0195
:1008B000F42EFC01E85BFF4F7183608376964083E2
:1008C00088819981DC01ED91FC910084F185E02D16
:1008D000099581110FC0E12C8E2DDF91CF911F91D1
:1008E0000F91FF90EF90DF90CF90BF90AF909F90CF
:1008F0008F9008956E01B7E4CB0ED11CF601908164
:100900009E012E5A3F4F5901981751F080830E9443
:10091000220AD5016D937D938D939C931397DBCF22
:100920000E94220AF50180809180A280B38068191C
:1009300079098A099B09653071058105910558F28D
:10094000D6011C92CE010E949200E82E8D83B6E063
:10095000B81714F69E818A819813BDCFCE010E94EC
:100960009201D82E882369F0EFEF8E1739F0682FA7
:10097000CE010E941B02CE010E94FE00DD82ED2C02
:10098000ABCF0E94220AFE01EA5AFF4F60837183B7
:10099000828393831D82EF81E150E03108F09CCF88
:1009A000F0E0EB52FB4F0C948F0DE504E504F604E8
:1009B000F604070518056C046C046C046C046C04E4
:1009C0006C046C046C0429053A054F2DB801CE0166
:1009D000DF91CF911F910F91FF90EF90DF90CF901B
:1009E000BF90AF909F908F900C9427024F2DB8012D
:1009F000CE01DF91CF911F910F91FF90EF90DF908B
:100A0000CF90BF90AF909F908F900C94DA024F2DB3
:100A1000B801CE01DF91CF911F910F91FF90EF9020
:100A2000DF90CF90BF90AF909F908F900C94260353
:100A30004F2DB801CE01DF91CF911F910F91FF9003
:100A4000EF90DF90CF90BF90AF909F908F900C94DD
:100A50006E034F2DB801CE01DF91CF911F910F9101
:100A6000FF90EF90DF90CF90BF90AF909F908F90CE
:100A70000C9497034F2DB801CE01DF91CF911F91B8
:100A80000F91FF90EF90DF90CF90BF90AF909F902D
:100A90008F900C940C0460E087E00E94DD0A60E017
:100AA00088E00E94DD0A60E089E00E94DD0A60E0E3
:100AB0008AE00E94DD0A60E087E00E94190B60E096
:100AC00088E00E94190B60E089E00E94190B60E049
:100AD0008AE00E94190B61E08EE00E94DD0A61E06D
:100AE0008FE00E94DD0A60E08EE00E94190B60E05A
:100AF0008FE00E94190B8AE00E94470B20910401AD
:100B000030910501892B09F47BC0216030930501E8
:100B10002093040189E00E94470B20910401309149
:100B20000501892B09F46EC02260309305012093E2
:100B3000040188E00E94470B2091040130910501D7
:100B4000892B09F461C024603093050120930401CE
:100B500087E00E94470B2091040130910501892B09
:100B600009F454C02860309305012093040180915A
:100B7000040190910501C2969093050180930401B0
:100B800050E040E060E170E08CE591E00E94C60931
:100B900069E170E08CE591E00E94300950E040E0AE
:100BA00061E170E08AE491E00E94C60969E170E0C9
:100BB0008AE491E00E9430098091040124EE31E042
:100BC00030937D0120937C0180937E0182E08093AD
:100BD0007F0188EE93E09093CD018093CC01109239
:100BE000D6011092D7011092D8011092D90126E0B7
:100BF00040E855E260E070E084EE91E00C94430C34
:100C00002E7F84CF2D7F91CF2B7F9ECF277FABCFA1
:100C100060E08FE00E94190B6AE070E080E090E0F5
:100C20000E94530A61E08EE00E94190B81E08093DC
:100C300049010E94220A60932F0170933001809332
:100C4000310190933201089560E08EE00E94190B0B
:100C50006AE070E080E090E00E94530A61E08FE07B
:100C60000E94190B83E0809349010E94220A60933D
:100C70002F017093300180933101909332010895D8
:100C80000F931F930E94220A00912F0110913001AF
:100C90002091310130913201601B710B820B930B5B
:100CA00020E63AEE40E050E00E946D0D64E6629F5F
:100CB000C001639F900D11242091350130913601C0
:100CC0002115310569F49195819591098536910534
:100CD00020F490933601809335011F910F91089570
:100CE00021303105D1F701968536910590F384E6E0
:100CF00090E0EFCF60E08EE00E94190B60E08FE0A3
:100D00000E94190B109249010E944006109247015F
:100D10000895CF92DF92EF92FF92CF93DF93EC0191
:100D200080914601811139C0809133019091340145
:100D30008A35910594F58C179D078CF49E01281B2C
:100D4000390BC90124E1289F6001299FD00C11248F
:100D50000D2C000CEE08FF080E9408060EC08C1B2C
:100D60009D0B24E1289F6001299FD00C11240D2C9C
:100D7000000CEE08FF080E942406C701B6010E947D
:100D8000530AD0933401C0933301DF91CF91FF9088
:100D9000EF90DF90CF900C947A060E94240660EDCD
:100DA00077E080E090E00E94530A809133019091B7
:100DB0003401C4CFCF92DF92EF92FF92A091350120
:100DC000B0913601A817B90714F59C012A1B3B0BFB
:100DD000D90128E532E00E94950D6B017C010E944B
:100DE00024060E94220AC60ED71EE81EF91EC092D3
:100DF0003701D0923801E0923901F0923A0181E056
:100E000080934701FF90EF90DF90CF900895A81B4B
:100E1000B90B28E532E00E94950D6B017C010E9420
:100E20000806DFCF0F931F9380914701882399F025
:100E30000E94220A00913701109138012091390156
:100E400030913A01061717072807390720F4109246
:100E500047010E947A0680914801882341F10E944F
:100E6000220AAB01BC0180913B0190913C01A09111
:100E70003D01B0913E01805A9541AF4FBF4F84175D
:100E80009507A607B70798F4109248010E947A06C2
:100E90008091460181115DC182E0809349011092E9
:100EA00036011092350110923401109233018CE515
:100EB00091E00E944C098AE491E00E944C098091E3
:100EC000640182FF09C08CE591E00E94B50990E0C1
:100ED00090930101809300018091520182FF09C02B
:100EE0008AE491E00E94B50990E090930301809319
:100EF000020180913F018823E9F080916E01909179
:100F00006F010297B9F40E94080681E080934801BE
:100F10000E94220A60933B0170933C0180933D0143
:100F200090933E0110923F0184E690E0909334014B
:100F30008093330180913F01882361F080916E019D
:100F400090916F01892B31F40E947A06109248012A
:100F500010923F0180913F018823D9F080916E016A
:100F600090916F010497A9F40E94240681E0809378
:100F700048010E94220A60933B0170933C018093D8
:100F80003D0190933E0110923F0110923401109266
:100F900033018091020190910301019781F48091C6
:100FA000000190910101019751F480914801811154
:100FB00006C080914701811102C00E947A0680918B
:100FC0000201909103018130910509F0D0C0809118
:100FD000000190910101019711F410922E0180916E
:100FE0000201909103010197E1F480910001909139
:100FF0000101892BB1F480912E01811112C08091E1
:101000004801882309F4E0C00E947A061092480142
:1010100081E080932E0162E370E080E090E00E9426
:10102000530A8091020190910301892BE1F4809190
:101030000001909101010197B1F480912E0181117D
:1010400012C080914801882309F4C4C00E947A0626
:101050001092480181E080932E0162E370E080E00D
:1010600090E00E94530A809135019091360190934F
:1010700077018093760180913301909134019093B0
:101080007901809378018091C6019091C701909376
:101090007B0180937A0180916E0190916F01909312
:1010A0004501809344018091720190917301909366
:1010B0004301809342018091740190917501909356
:1010C00041018093400180914901082E000C990B49
:1010D000909371018093700143E06EE671E08CE7BC
:1010E00091E00E944A0420916E0130916F0180913D
:1010F0004401909145012817390709F470C081E037
:1011000080933F018091720190917301209142017F
:10111000309143018217930741F09C01215031091E
:101120002336310510F40E94890680917401909154
:10113000750120914001309141018217930709F414
:1011400051C08536910508F04DC01F910F910C9448
:10115000DA0684E08093490184E690E090933601BA
:10116000809335019093340180933301A0CE892B75
:1011700009F035CF8091000190910101892B09F090
:101180002ECF80912E0181112ACF80914601882394
:10119000C1F00E9424060E94220A60933B017093D2
:1011A0003C0180933D0190933E0181E08093480192
:1011B00080932E0164E670E080E090E00E94530A84
:1011C0000ECF0E940806E7CF0E94240681E080939C
:1011D000460121CF0E940806109246013ECF109290
:1011E0003F0190CF1F910F910895ECE7F1E012823B
:1011F000138288EE93E09093CD018093CC011092FE
:10120000D6011092D7011092D8011092D90184EE24
:1012100091E0918380838CE591E00E94B9098AE492
:1012200091E00C94B909FC0181890E94470B21E0EF
:10123000892B09F420E0822F0895862F642F0C94C7
:10124000DD0AFC0182E191E09183808312821382A6
:10125000148215828AE090E0978386831086089531
:10126000FC01778366830895CF93DF93EC011886A2
:10127000E881F9810190F081E02D0995882319F02A
:101280008885836088870E94220A6A837B838C8397
:101290009D83DF91CF910895CF92DF92EF92FF92DD
:1012A0000F931F93CF93DF93EC0188858B7F888703
:1012B000E881F9810190F081E02DCE010995182F88
:1012C0008885869581701817B9F00E94220A6A8372
:1012D0007B838C839D83888592E089278887888596
:1012E00082FB882780F9DF91CF911F910F91FF90AA
:1012F000EF90DF90CF9008950E94220ACA80DB8091
:10130000EC80FD80AB01BC014C195D096E097F09C1
:101310008E819F81B0E0A0E0481759076A077B07DC
:10132000F0F2888581701817D1F20E94220A6A8330
:101330007B838C839D83888591E08927846088875F
:101340000E94220A09851A852B853C85601B710B3A
:10135000820B930B6D877E878F87988B0E94220A62
:1013600069877A878B879C87BACFFC0180858170DB
:101370000895CF93DF93EC010E94210988E191E069
:1013800099838883198ADF91CF9108951F93CF9312
:10139000DF93EC01162FE881F9810280F381E02DC3
:1013A0000995198BCE01DF91CF911F910C943409CF
:1013B0001F920F920FB60F9211242F933F938F938A
:1013C0009F93AF93BF938091E0019091E101A09131
:1013D000E201B091E3013091DF0123E0230F2D37CB
:1013E00068F126E8230F0296A11DB11D2093DF01AD
:1013F0008093E0019093E101A093E201B093E301B7
:101400008091DB019091DC01A091DD01B091DE01C2
:101410000196A11DB11D8093DB019093DC01A09387
:10142000DD01B093DE01BF91AF919F918F913F910C
:101430002F910F900FBE0F901F9018950196A11D30
:10144000B11DD4CF2FB7F8946091E0017091E10104
:101450008091E2019091E3012FBF08953FB7F89486
:101460008091DB019091DC01A091DD01B091DE0162
:1014700026B5A89B05C02F3F19F00196A11DB11DEF
:101480003FBFBA2FA92F982F8827BC01CD01620F2B
:10149000711D811D911D42E0660F771F881F991FE6
:1014A0004A95D1F708958F929F92AF92BF92CF92B3
:1014B000DF92EF92FF926B017C010E942E0A4B019A
:1014C0005C01C114D104E104F104E9F00E946C0D47
:1014D0000E942E0A681979098A099B09683E73409F
:1014E0008105910570F321E0C21AD108E108F108E5
:1014F00088EE880E83E0981EA11CB11CC114D10493
:10150000E104F10429F7FF90EF90DF90CF90BF90B6
:10151000AF909F908F900895789484B5836084BD38
:1015200085B5836085BDEEE6F0E0808181608083D3
:10153000E1E8F0E082E08083808181608083E0E800
:10154000F0E0808181608083E1EBF0E08081846065
:101550008083E0EBF0E080818160808387E8809386
:101560007A001092C1000895843081F028F482300E
:10157000E9F08330F9F00895883071F0893091F006
:101580008530B9F4809180008F7D03C08091800008
:101590008F778093800008958091B0008F7780933B
:1015A000B00008958091B0008F7DF9CF84B58F771A
:1015B00084BD089584B58F7DFBCFCF93DF9390E0FA
:1015C000FC01E158FF4F24918A569F4FFC01849102
:1015D0008823C9F090E0880F991FFC01EF53FF4F5B
:1015E000A591B491FC01E954FF4FC591D4916111CB
:1015F0000DC09FB7F8948C91209582238C9388819D
:10160000282328839FBFDF91CF910895623051F442
:101610009FB7F8943C91822F809583238C93E88127
:101620002E2BEFCF8FB7F894EC912E2B2C938FBFEE
:10163000EACF1F93CF93DF93282F30E0F901E859C9
:10164000FF4F8491F901E158FF4FD491F901EA5617
:10165000FF4FC491CC23A9F0162F81110E94B40A28
:10166000EC2FF0E0EE0FFF1FE954FF4FA591B4916E
:101670008FB7F894EC91111108C0D095DE23DC935C
:101680008FBFDF91CF911F910895DE2BF8CFCF93BD
:10169000DF93282F30E0F901E859FF4F8491F901D9
:1016A000E158FF4FD491F901EA56FF4FC491CC2382
:1016B000A1F081110E94B40AEC2FF0E0EE0FFF1FA1
:1016C000E355FF4FA591B491EC91ED2381E090E0BB
:1016D00009F480E0DF91CF91089580E090E0FACFA7
:1016E000FC01918D228D892F90E0805C9F4F821BA1
:1016F00091098F7399270895FC01918D828D981718
:1017000031F0828DE80FF11D858D90E008958FEF07
:101710009FEF0895FC01918D828D981761F0A28D45
:10172000AE0FBF2FB11D5D968C91928D9F5F9F7301
:10173000928F90E008958FEF9FEF0895FC01538DF5
:10174000448D252F30E0842F90E0821B930B54179B
:1017500010F0CF9608950197089583EF9CE0892BB0
:1017600049F080E090E0892B29F00E94F30C811170
:101770000C9400000895FC01A48DA80FB92FB11D91
:10178000A35ABF4F2C91848D90E001968F739927B7
:10179000848FA689B7892C93A089B1898C918064A4
:1017A0008C93938D848D981306C00288F389E02D65
:1017B00080818F7D80830895CF93DF93EC01888DA6
:1017C0008823B9F0AA89BB89E889F9898C9185FDBC
:1017D00003C0808186FD0DC00FB607FCF7CF8C914A
:1017E00085FFF2CF808185FFEDCFCE010E94BB0B3C
:1017F000E9CFDF91CF910895EF92FF920F931F935E
:10180000CF93DF93EC0181E0888F9B8D8C8D9813B3
:1018100016C0E889F989808185FF11C0EE89FF89AA
:101820006083E889F98980818064808381E090E029
:10183000DF91CF911F910F91FF90EF900895F62EB9
:101840000B8D10E00F5F1F4F0F731127E02E8C8D53
:101850008E110CC00FB607FCFACFE889F989808198
:1018600085FFF5CFCE010E94BB0BF1CFEB8DEC0FC6
:10187000FD2FF11DE35AFF4FF0820B8FEA89FB89A0
:1018800080818062D2CFCF92DF92EF92FF921F933E
:10189000CF93DF93EC016A017B01122FE889F9896C
:1018A00082E08083C11481EED806E104F104A1F046
:1018B00060E079E08DE390E0A70196010E946D0D54
:1018C000215031094109510956954795379527957A
:1018D000211580E1380798F0E889F989108260E8DD
:1018E00074E88EE190E0A70196010E946D0D2150F1
:1018F0003109410951095695479537952795EC854A
:10190000FD853083EE85FF852083188EEC89FD8967
:101910001083EA89FB89808188698083EA89FB8951
:1019200080818F7D8083DF91CF911F91FF90EF9019
:10193000DF90CF9008951F920F920FB60F9211244F
:101940002F938F939F93EF93FF93E091F401F09186
:10195000F5018081E091FA01F091FB0182FD1BC04D
:1019600090818091FD018F5F8F732091FE0182171E
:1019700041F0E091FD01F0E0EC51FE4F958F809336
:10198000FD01FF91EF919F918F912F910F900FBECD
:101990000F901F9018958081F4CF1F920F920FB671
:1019A0000F9211242F933F934F935F936F937F93E5
:1019B0008F939F93AF93BF93EF93FF9384EE91E048
:1019C0000E94BB0BFF91EF91BF91AF919F918F91BF
:1019D0007F916F915F914F913F912F910F900FBE2B
:1019E0000F901F90189584EE91E00E94700B21E0FB
:1019F000892B09F420E0822F0895E4EEF1E01382B0
:101A0000128288EE93E0A0E0B0E084839583A68301
:101A1000B78380E291E09183808385EC90E09587A5
:101A2000848784EC90E09787868780EC90E0918BA8
:101A3000808B81EC90E0938B828B82EC90E0958B95
:101A4000848B86EC90E0978B868B118E128E138E92
:101A5000148E0895AF92BF92CF92DF92EF92FF92D1
:101A60000F931F93CF93DF936C017B018B01040FC6
:101A7000151FEB015E01AE18BF08C017D10759F062
:101A80006991D601ED91FC910190F081E02DC601A4
:101A90000995892B79F7C501DF91CF911F910F919E
:101AA000FF90EF90DF90CF90BF90AF900895982F68
:101AB000862F08950E94AB0D08950E948C0A0E9403
:101AC0005C0D0E944B05CDEADBE00E9412072097D7
:101AD000E1F30E94AD0BF9CF0895A1E21A2EAA1BE3
:101AE000BB1BFD010DC0AA1FBB1FEE1FFF1FA217CE
:101AF000B307E407F50720F0A21BB30BE40BF50BCB
:101B0000661F771F881F991F1A9469F76095709553
:101B1000809590959B01AC01BD01CF010895EE0F1A
:101B2000FF1F0590F491E02D09940E949C0DB7FFD2
:101B30000895821B930B0895A29FB001B39FC0012B
:101B4000A39F700D811D1124911DB29F700D811DE9
:101B50001124911D089581E090E0F8940C94B00D4B
:101B6000F894FFCF01000100010001020304050603
:101B70000F10000000005A0D0000000013091D099D
:101B800000000000FC0B2A0D9E0BDC0B700B8A0B77
:021B90007C0BCC
:107E000001C0B7C0112484B790E89093610010922C
:107E10006100882361F0982F9A70923041F081FFC1
:107E200002C097EF94BF282E80E0C6D0E9C085E05D
:107E30008093810082E08093C00088E18093C1003C
:107E400080E18093C40086E08093C2008EE0B4D0CD
:107E5000259A84E020E33CEF91E030938500209365
:107E6000840096BBB09BFECF1D9AA8954091C000A0
:107E700047FD02C0815089F793D0813479F490D0C6
:107E8000182FA0D0123811F480E004C088E0113817
:107E900009F083E07ED080E17CD0EECF823419F40B
:107EA00084E198D0F8CF853411F485E0FACF853598
:107EB00041F476D0C82F74D0D82FCC0FDD1F82D0DC
:107EC000EACF863519F484E085D0DECF843691F58B
:107ED00067D066D0F82E64D0D82E00E011E05801AB
:107EE0008FEFA81AB80A5CD0F80180838501FA10D8
:107EF000F6CF68D0F5E4DF1201C0FFCF50E040E0DC
:107F000063E0CE0136D08E01E0E0F1E06F0182E067
:107F1000C80ED11C4081518161E0C8012AD00E5F9A
:107F20001F4FF601FC10F2CF50E040E065E0CE01BB
:107F300020D0B1CF843771F433D032D0F82E30D086
:107F400041D08E01F80185918F0123D0FA94F11070
:107F5000F9CFA1CF853739F435D08EE11AD085E934
:107F600018D08FE097CF813509F0A9CF88E024D0D1
:107F7000A6CFFC010A0167BFE895112407B600FCF3
:107F8000FDCF667029F0452B19F481E187BFE89594
:107F900008959091C00095FFFCCF8093C60008958E
:107FA0008091C00087FFFCCF8091C00084FD01C09C
:107FB000A8958091C6000895E0E6F0E098E19083EE
:107FC00080830895EDDF803219F088E0F5DFFFCF80
:107FD00084E1DFCFCF93C82FE3DFC150E9F7CF9122
:027FE000F1CFDF
:027FFE00000879
:00000001FF
