:100000000C9469000C9491000C9491000C9449019B
:100010000C946E010C9493010C9491000C9491003B
:100020000C9491000C9491000C9491000C9491000C
:100030000C9491000C9491000C9491000C949100FC
:100040000C940F0C0C9491000C944B0E0C947D0EA0
:100050000C9491000C9491000C9491000C949100DC
:100060000C94EF0A0C9491000000000900030200B8
:10007000000405080000000000000000000000016E
:10008000020408102040800102040810200102042C
:100090000810204080400404040404040404020204
:1000A000020202020303030303030202030000002F
:1000B0000023002600290000000000250028002B56
:1000C0000000000000240027002A00006B08E0095F
:1000D000AD0E11241FBECFEFD4E0DEBFCDBF11E0C7
:1000E000A0E0B1E0E8E8FEE102C005900D92A43383
:1000F000B107D9F723E0A4E3B1E001C01D92A43A0F
:10010000B207E1F710E0C9E6D0E004C02197FE0194
:100110000E943C0FC636D107C9F70E940B0F0C9402
:10012000420F0C940000DF92EF92FF920F931F9307
:10013000CF93DF93282F30E0F901EE0FFF1FEF542C
:10014000FF4FA591B491FC90F901EC5CFE4FE0806B
:10015000EF24F082220F331FF901E050FF4F01908E
:10016000F081E02D9081E92239F1D82EDD0CDD0CF3
:10017000DD0CD0E0C0E001E010E098010C2E01C0E1
:10018000220F0A94EAF78E2D822391F0EC2FED0DC9
:10019000F0E0EE0FFF1FDF01A959BE4F8D919C913A
:1001A00081309105A9F08330910571F42F2181F4FC
:1001B0002196C830D10509F7DF91CF911F910F919A
:1001C000FF90EF90DF900895029791F72F2181F72C
:1001D000E95CFE4F80819181892B51F30190F08180
:1001E000E02D0995E5CFCF93282F30E0F901E158B4
:1001F000FF4FC4912A563F4FF9012491222309F45D
:100200003EC02250A22FB0E0AA0FBB1FA050BF4F8C
:100210000D90BC91A02D213009F033C0865090E0A4
:10022000880F991FFC01E959FE4F51834083895C77
:100230009E4FFC0171836083EC91CE2BCC93809117
:10024000680041E050E001C0440F2A95EAF7842B92
:1002500080936800E1EBF0E0A591B4918C918093DC
:100260003401E3EBF0E0A591B4918C9180933501DA
:10027000E5EBF0E0A591B4918C9180933601CF919C
:100280000895982F9770822F880F880F880F890FF5
:10029000C6CF1F920F920FB60F9211242F933F9348
:1002A0004F935F936F937F938F939F93AF93BF937E
:1002B000EF93FF9380E00E949300FF91EF91BF9135
:1002C000AF919F918F917F916F915F914F913F91EE
:1002D0002F910F900FBE0F901F9018951F920F92A5
:1002E0000FB60F9211242F933F934F935F936F9309
:1002F0007F938F939F93AF93BF93EF93FF9381E08F
:100300000E949300FF91EF91BF91AF919F918F91C8
:100310007F916F915F914F913F912F910F900FBE01
:100320000F901F9018951F920F920FB60F921124E5
:100330002F933F934F935F936F937F938F939F93ED
:10034000AF93BF93EF93FF9382E00E949300FF91DE
:10035000EF91BF91AF919F918F917F916F915F913D
:100360004F913F912F910F900FBE0F901F901895B6
:10037000CF93DF93FC0110821182128213821482C8
:1003800015821682EC012796DC011F961992AC1794
:10039000BD07E1F77F961D921D92EA17FB07D9F77B
:1003A000DF91CF9108950F931F93CF93C62F8A01AA
:1003B000FC01668362E08C2F0E94B60C42E050E0A4
:1003C000B8018C2FCF911F910F910C94F300CF9314
:1003D000DF93EC0189818C8341E06B818AE392E0B9
:1003E0000E94DA098AE392E00E948C081816190626
:1003F000CCF78AE392E00E9493088983DF91CF9142
:100400000895CF93DF93EC016B838AE392E00E941F
:100410004809CE01DF91CF910C94E701CF93DF9390
:10042000EC010E94E7018981DF91CF9108951F932C
:10043000CF93DF93FC011181C281D08163818AE374
:1004400092E00E945A096C2F609561236D2B8AE31C
:1004500092E00E94EC088AE392E0DF91CF911F9135
:100460000C94DD09FC01413019F128F0423089F08B
:10047000CF010C941702228181E090E001C0880F27
:100480006A95EAF78095922F982392839081892329
:100490000DC0228181E090E001C0880F6A95EAF7E3
:1004A000982F9095922392839081892B8083E0CF1F
:1004B000228181E090E001C0880F6A95EAF7922FCF
:1004C000982B928390818095E2CFFC0160830C94FD
:1004D0001702FC0110820C94170289E991E00E9436
:1004E0000E02809398010895CF93DF93EC018B81E6
:1004F000823038F061E00E94B60C60E08B810E948F
:10050000F20C88819981DC01ED91FC910284F385E4
:10051000E02D099597FFF5CFFE01EA5BFF4F1082B2
:100520003196108237961182108232971182108292
:10053000C65BDF4F19821882DF91CF910895CF9368
:10054000DF93EC0126E0888199810E94F30DCE01B2
:10055000DF91CF910C947402FF920F931F93CF936E
:10056000DF93EC018B81823018F060E00E94F20C86
:100570008E010A5B1F4FD8011C92F12C8881998152
:10058000DC01ED91FC910084F185E02D0995892B2A
:10059000B9F088819981DC01ED91FC910284F385A9
:1005A000E02D0995F8019081FE01E90FF11D868388
:1005B0009F5FD8019C93903408F3FF24F394DECF1F
:1005C000FE01E65BFF4F80819181019691838083DC
:1005D000FF2071F0C25BDF4F88819981019699837A
:1005E00088838DEFDF91CF911F910F91FF90089538
:1005F000F8018081F7CFFC01369620E08FEF9FEF66
:10060000261791F03191832738E0AC0141705527CE
:1006100096958795452B21F041E0842740EA942761
:10062000315099F72F5FECCF9827892798270895A5
:10063000CF92DF92FF920F931F93CF93DF9300D05F
:1006400000D0CDB7DEB78C016C0186E4C80ED11C9A
:10065000D601FC906F2DC8010E94FB02F801EF0D3E
:10066000F11D9683E1E0EF0DE00FF12FF11D868380
:10067000F394F394F601F082D80113968C918230B2
:1006800018F061E00E94F20CF80180819181D6019E
:100690004C9150E0DC01ED91FC910280F381E02D62
:1006A000B8016A5F7F4F0995F8018381823058F164
:1006B00080819181DC01ED91FC910680F781E02D34
:1006C0000995F801E65AFF4F80819181A281B3819B
:1006D00089839A83AB83BC8389819A81AB81BC81F6
:1006E000AC01BD01415051096109710949835A8327
:1006F0006B837C83892B8A2B8B2B71F760E0F8014D
:1007000083810E94F20CD8018D919C91DC01ED91C6
:10071000FC910284F385E02D099597FFF4CFF60153
:1007200010820E94590CF801EA5AFF4F60837183CE
:10073000828393833A97808191810196918380830C
:100740000F900F900F900F90DF91CF911F910F910D
:10075000FF90DF90CF9008950F931F93CF93DF9377
:10076000EC01FC01EA5BFF4F6081062F10E0625054
:100770000E94FB02FE01E00FF11F24813581232737
:10078000322723278217930769F0C25BDF4F8881E6
:1007900099810196998388838FEFDF91CF911F9183
:1007A0000F910895EF81A7E0B1E08D918E1709F4C4
:1007B00044C081E0AF30B807C1F7C25BDF4F88812A
:1007C000998101969983888381E0E7CF698588853F
:1007D0000E94070F8C0134E0169507953A95E1F7D2
:1007E0006B858A850E94070F44E0969587954A9508
:1007F000E1F7800F911FC25ADF4F98819817D8F404
:1008000082E0CBCF698588850E94070F24E096950A
:1008100087952A95E1F7EFCF698588850E94070FB4
:10082000EACF698588850E94070F8C016B858A85D0
:100830000E94070FDECF80E0B0CFE150E031D8F763
:10084000F0E0EB5DFB4F0C943C0FE603E603110474
:10085000110402040C041B041B041B041B041B04D2
:100860001B041B041B04E6031104FC018781928115
:100870009683805887836087EA5BFF4F83E080839D
:1008800008954F925F926F927F928F929F92AF9254
:10089000BF92CF92DF92EF92FF920F931F93CF936D
:1008A000DF9300D000D000D0CDB7DEB79E838D831C
:1008B0007B01DC0119966C91199718968C910E9416
:1008C000070F8C01ED81FE81638582850E94070FF1
:1008D0009C0143E0369527954A95E1F7A22FBC018C
:1008E000677077276115710511F0A1E0A20FED8106
:1008F000FE81A087EA5BFF4F23E020832D813E81AC
:100900002A0F311DD90118961C923801680E791EE4
:10091000D12C812C912C54018394C08060167106D7
:1009200009F440C0D501C4010D2C04C0880F991FE3
:10093000AA1FBB1F0A94D2F789839A83AB83BC8317
:100940004D815E814C0D511DDA0116965C90980127
:1009500083E0369527958A95E1F72E7F31702E0D2D
:100960003F1DD9012D913C91B02FBF7002C036952B
:100970002795BA95E2F7898120FF0EC08529DA0113
:1009800016968C93D394B7E0BD1518F4C394C08227
:10099000D12C0F5F1F4FC1CF80955822DA011696D8
:1009A0005C92F0CF672B11F0C394C08210811E5F60
:1009B0008D819E810E941803812F26960FB6F89490
:1009C000DEBF0FBECDBFDF91CF911F910F91FF9082
:1009D000EF90DF90CF90BF90AF909F908F907F90DF
:1009E0006F905F904F900895EF92FF920F931F9337
:1009F000CF93DF93EC018B01698588850E94070FF7
:100A0000E82EF82E6B858A850E94070F982F990F84
:100A100098879E012A5B3F4F93E0D9019C938E0DEE
:100A20009927991FF901708152E0E52EE70EAF2D4D
:100A3000B0E0A817B907CCF4AA0FBB1FA00FB11FD5
:100A4000AE01470F511D11966C911197FA01668303
:100A500041E0470FF9014083FE01E40FF11D4C9185
:100A60004683D901EC92F394DDCFCE010E941803A6
:100A70008E2DDF91CF911F910F91FF90EF900895F0
:100A80000F931F93CF93DF93EC018B0169858885CA
:100A90000E94070F482F4F7023E0969587952A955F
:100AA000E1F78E7F9170F801E80FF91F8A852081A8
:100AB00031818F3FE9F481E090E0A0E0B0E004C034
:100AC000880F991FAA1FBB1F4A95D2F7822B932B21
:100AD00091838083FE01EA5BFF4F86E08083CE0135
:100AE0000E94180388E0DF91CF911F910F91089524
:100AF00081E090E0A0E0B0E004C0880F991FAA1F39
:100B0000BB1F4A95D2F78095909582239323E0CF1F
:100B1000EF92FF920F931F93CF93DF93EC017B0132
:100B2000698588850E94070F8C016B858A850E94E4
:100B3000070F1127000F111F0E0D1F1DF8019183C4
:100B40008083FE01EA5BFF4F86E08083CE010E9436
:100B5000180388E0DF91CF911F910F91FF90EF90E4
:100B600008956F927F928F929F92AF92BF92CF9291
:100B7000DF92EF92FF920F931F93CF93DF93EC01DD
:100B80007B01698588850E94070F8C016B858A85AA
:100B90000E94070F800F911FD12C37E0C32E812CAC
:100BA000912C5401839480179107C1F1F80123E03F
:100BB000F695E7952A95E1F7EE7FF170EE0DFF1DB2
:100BC000202F2F70B501A40104C0440F551F661FCC
:100BD000771F2A95D2F7608071809E012C0D311D00
:100BE000D90116962C9130E00D2C02C03595279531
:100BF0000A94E2F720FF0DC046295729518340830C
:100C0000D394B7E0BD1510F4C394D12C0F5F1F4FE0
:100C1000CACF4095509546215721F0CFFE01EA5B9F
:100C2000FF4F86E08083CE010E94180388E0DF91A9
:100C3000CF911F910F91FF90EF90DF90CF90BF90D9
:100C4000AF909F908F907F906F900895AF92BF92DA
:100C5000CF92DF92EF92FF920F931F93CF93DF9388
:100C6000EC018985AB841A867E0196E4E90EF11CBD
:100C700096E0F70190838E0190E0880F991F6B0139
:100C8000C80ED91EB12C0E5F1F4FAB1459F0F801DE
:100C9000648583850E94070FF601819391936F010C
:100CA000B394F1CFF70110811E5FCE010E941803AB
:100CB000812FDF91CF911F910F91FF90EF90DF90E7
:100CC000CF90BF90AF9008958F929F92AF92BF92B6
:100CD000CF92DF92EF92FF920F931F93CF93DF9308
:100CE000EC018B01F42EFC01E85BFF4F7183608304
:100CF0007696408388819981DC01ED91FC91008496
:100D0000F185E02D099581110FC0E12C8E2DDF9129
:100D1000CF911F910F91FF90EF90DF90CF90BF90F8
:100D2000AF909F908F9008956E01B7E4CB0ED11CC9
:100D3000F60190819E012E5A3F4F5901981751F0AC
:100D400080830E94590CD5016D937D938D939C9364
:100D50001397DBCF0E94590CF50180809180A2800F
:100D6000B380681979098A099B0965307105810585
:100D7000910558F2D6011C92CE010E94AC02E82ED9
:100D80008D83B6E0B81714F69E818A819813BDCF83
:100D9000CE010E94AC03D82E882369F0EFEF8E17A6
:100DA00039F0682FCE010E943504CE010E9418034D
:100DB000DD82ED2CABCF0E94590CFE01EA5AFF4FA9
:100DC00060837183828393831D82EF81E150E031E0
:100DD00008F09CCFF0E0E151F94F0C943C0FFF0676
:100DE000FF061007100721073207860686068606CB
:100DF00086068606860686068606430754074F2D16
:100E0000B801CE01DF91CF911F910F91FF90EF902C
:100E1000DF90CF90BF90AF909F908F900C94410443
:100E20004F2DB801CE01DF91CF911F910F91FF900F
:100E3000EF90DF90CF90BF90AF909F908F900C94E9
:100E4000F4044F2DB801CE01DF91CF911F910F9186
:100E5000FF90EF90DF90CF90BF90AF909F908F90DA
:100E60000C9440054F2DB801CE01DF91CF911F9119
:100E70000F91FF90EF90DF90CF90BF90AF909F9039
:100E80008F900C9488054F2DB801CE01DF91CF9142
:100E90001F910F91FF90EF90DF90CF90BF90AF9098
:100EA0009F908F900C94B1054F2DB801CE01DF912A
:100EB000CF911F910F91FF90EF90DF90CF90BF9057
:100EC000AF909F908F900C942606EBEDF1E087E0B9
:100ED00093E091838083128283E0838388EE93E0A2
:100EE00090932C0280932B021092350210923602BE
:100EF000109237021092380240E855E260E070E04C
:100F0000CF010E949F0260E288EB91E00E94010203
:100F100067E289E991E00E94010241E060E088EB2C
:100F200091E00E94320241E061E088EB91E00E9492
:100F3000320241E062E088EB91E00E94320241E03F
:100F400063E088EB91E00E94320241E064E088EBCC
:100F500091E00E94320241E065E088EB91E00E945E
:100F6000320241E066E088EB91E00E94320241E00B
:100F700067E088EB91E00E94320288EB91E00E94EA
:100F8000690240E060E089E991E00E94320240E0BD
:100F900061E089E991E00E94320240E062E089E983
:100FA00091E00E94320240E063E089E991E00E9412
:100FB000320240E064E089E991E00E94320240E0C0
:100FC00065E089E991E00E94320240E066E089E94B
:100FD00091E00E94320240E067E089E991E00E94DE
:100FE00032024DE652E062E089E991E00C94D301CF
:100FF0008F929F92AF92BF92CF92DF92EF92FF9229
:1010000020919801809197012817C9F160910601FC
:101010002093970190E080E030E0812C912C5401E6
:101020008394A901082E02C0559547950A94E2F7CA
:1010300040FD15C075016401082E04C0CC0CDD1CF8
:10104000EE1CFF1C0A94D2F7462F50E0082E02C077
:10105000559547950A94E2F740FD3AC06C290196F0
:1010600088309105F1F660930601862F90E0909309
:10107000D8018093D70188EB91E00E9465026091CE
:10108000D7017091D801809106018617170631F0BB
:101090006093060188EB91E00E9465028091250231
:1010A000909126029093DA018093D90142E067ED96
:1010B00071E08BED91E00E94640680939801FF90AF
:1010C000EF90DF90CF90BF90AF909F908F9008955A
:1010D000C0946C21C4CFEBEDF1E01282138288EE54
:1010E00093E090932C0280932B0210923502109281
:1010F0003602109237021092380287E093E0918313
:10110000808388EB91E00E94B80189E991E00C941A
:10111000B80190E080E0089580916E0290916F0296
:10112000891B990B089590916F0280916E022FEFA9
:101130003FEF981748F4E92FF0E0E059FD4F208188
:1011400030E09F5F90936F02C9010895E0916F02B4
:1011500080916E02E81730F4F0E0E059FD4F808195
:1011600090E008958FEF9FEF08950895CF93DF9358
:10117000EC01E0914602F09147023097F1F0909136
:101180006F0280916E029817C0F090E0292F30E036
:101190002617370754F4DE01A20FB31F4C912059D4
:1011A0003D4FD9014C939F5FF1CF10926F02609336
:1011B0006E02CB01DF91CF910994DF91CF91089519
:1011C000E0914802F0914902309729F010924C02C8
:1011D00010924B0209940895CF93DF931F92CDB7DD
:1011E000DEB7698320914A022223F9F020914B0255
:1011F000203258F021E030E0FC013383228390E07C
:1012000080E00F90DF91CF91089580914C02E82FFC
:10121000F0E0E35BFD4F998190838F5F80934C02F8
:1012200080934B0281E090E0ECCF61E0CE0101962B
:101230000E94AE0AF7CFCF92DF92EF92FF920F9308
:101240001F93CF93DF937C01CB018A0120914A0247
:10125000222389F0EB016B01C40ED51ECC15DD05F0
:1012600069F06991D701ED91FC910190F081E02D39
:10127000C7010995F3CF642F0E94AE0AC801DF9120
:10128000CF911F910F91FF90EF90DF90CF90089535
:1012900010926F0210926E0210924C0210924B024A
:1012A0000E94F10980EE98E00E94DA0A86EB98E04D
:1012B0000C94D50A81E080934A0260936D021092EB
:1012C0004C0210924B0208950F93062F21E040919B
:1012D0004B026DE472E080916D020E94570A1092F9
:1012E0004C0210924B0210924A020F9108954F92B5
:1012F0005F926F927F92AF92BF92CF92EF92FF92E6
:101300000F931F93CF93DF935C01F62ED42F280108
:101310003901EE2019F10E945A09CE2DC43008F08F
:10132000C3E0C150B8F028E0C29FC0011124A3015E
:10133000920104C056954795379527958A95D2F71F
:10134000B901D501ED91FC910190F081E02DC5012D
:101350000995E7CF60E0C5010E9464094D2FD132A5
:1013600008F040E22C2D60E772E08F2D0E940F0AFA
:1013700010926F0280936E02DF91CF911F910F91B7
:10138000FF90EF90CF90BF90AF907F906F905F9065
:101390004F900895CF92EF920F931F93C22EE12C9E
:1013A00000E010E098010E9477091F910F91EF90E3
:1013B000CF90089521E00C94CA0961E00C9464096F
:1013C000EAE3F2E01382128288EE93E0A0E0B0E05C
:1013D00084839583A683B78383E191E0918380839F
:1013E00008951092FD0281E08093FB021092FA02B0
:1013F00061E082E10E94F20C61E083E10E94F20C64
:10140000E9EBF0E080818E7F808380818D7F808317
:1014100088E48093B80085E48093BC00089541324D
:1014200008F043C09091FD029111FCCF91E09093A0
:10143000FD022093FB022FEF209390021092D50221
:10144000240F2093D4029093FC029091FC02880F09
:10145000892B8093FC028091FA02813009F5109269
:10146000FA028091FC028093BB008091BC0083FD56
:10147000F8CF85EC8093BC008091FD028130E1F3D0
:101480008091D502841710F44091D502A6EDB2E008
:10149000962FFB018E2F891B841720F0842F08952F
:1014A00085EEE8CF8D918193F5CF40E0F7CF0F9394
:1014B000413208F04BC09091FD029111FCCF92E0B7
:1014C0009093FD020093FB029FEF90939002109285
:1014D000D5024093D402362FA6EDB2E0FB019E2F39
:1014E000931B941770F11092FC029091FC02880FEC
:1014F000892B8093FC028091FA02813029F51092A9
:10150000FA028091FC028093BB008091BC0083FDB5
:10151000F8CF85EC8093BC00222321F08091FD025E
:101520008230D1F3809190028F3F91F080919002B0
:10153000803281F080919002803371F084E00F91CD
:10154000089591919D93CBCF85EEE4CF81E0F7CFC5
:1015500080E0F5CF82E0F3CF83E0F1CF2091B202BB
:10156000260F3327331F21323105ECF42091FD0281
:10157000FC0190E080E0243069F082E00895A091C1
:10158000B2022191AC014C545D4FA40FB52FB11D97
:101590002C930196861798F38091B202680F60939E
:1015A000B20280E0089581E008959093F70280935D
:1015B000F60208959093F9028093F802089585ED5C
:1015C0008093BC008091BC0084FDFCCF1092FD0292
:1015D000089585EC8093BC001092FD0208951F923F
:1015E0000F920FB60F9211242F933F934F935F9357
:1015F0006F937F938F939F93AF93BF93EF93FF93DB
:101600008091B900887F803609F44CC008F03FC053
:10161000883209F4A8C018F5803109F49CC0B8F4E8
:10162000882309F4F9C0883009F495C0FF91EF913F
:10163000BF91AF919F918F917F916F915F914F91EA
:101640003F912F910F900FBE0F901F9018958831EA
:1016500009F489C0803251F78093900215C080341C
:1016600009F49EC048F48033B9F38833F9F68093C7
:1016700090020E94E90ADACF803509F485C08835E6
:1016800009F496C0883491F60E94DF0ACFCF8839DA
:1016900009F48CC038F5883729F050F4883611F0F9
:1016A000803721F683E08093FD021092910257C0AB
:1016B000883809F47BC0803919F0803809F0B6CF3A
:1016C00080919102803208F071C0E091910281E036
:1016D0008E0F809391028091BB00F0E0EE56FD4F9B
:1016E00080833DC0803B39F0E0F4803A09F479C052
:1016F000883A09F09BCF84E08093FD021092B302F8
:101700001092B202E091F802F091F90209958091ED
:10171000B20281110FC081E08093B2021092B40234
:1017200009C0803C09F476C0883C09F473C0883B4A
:1017300009F07CCFE091B30281E08E0F8093B30279
:10174000F0E0EC54FD4F80818093BB009091B30298
:101750008091B20229C08091FC028093BB0085EC8D
:101760008093BC0063CF9091D5028091D4029817EA
:1017700058F5E091D50281E08E0F8093D502F0E01C
:10178000EA52FD4F8081E9CFE091D50281E08E0FD2
:101790008093D5028091BB00F0E0EA52FD4F808338
:1017A0009091D5028091D4029817C8F285E8D8CFDD
:1017B000E091D50281E08E0F8093D5028091BB002D
:1017C000F0E0EA52FD4F80838091FB0281115CCFF3
:1017D00081E08093FA0284EA8093BC001092FD02BB
:1017E00025CF0E94E90A80919102803230F4E09185
:1017F0009102F0E0EE56FD4F10826091910270E090
:10180000E091F602F091F70282E992E009951092D8
:1018100091020CCF85ECE0CF1092900235CF1F9251
:101820000F920FB60F9211242F933F938F939F9394
:10183000AF93BF938091030390910403A09105039C
:10184000B09106033091020323E0230F2D3768F196
:1018500026E8230F0296A11DB11D20930203809359
:10186000030390930403A0930503B09306038091B0
:10187000FE029091FF02A0910003B0910103019636
:10188000A11DB11D8093FE029093FF02A09300035F
:10189000B0930103BF91AF919F918F913F912F9191
:1018A0000F900FBE0F901F9018950196A11DB11DAE
:1018B000D4CF2FB7F8946091030370910403809103
:1018C0000503909106032FBF0895789484B5836033
:1018D00084BD85B5836085BDEEE6F0E080818160E2
:1018E0008083E1E8F0E082E0808380818160808312
:1018F000E0E8F0E0808181608083E1EBF0E08081CE
:1019000084608083E0EBF0E080818160808387E801
:1019100080937A001092C1000895843081F028F4F9
:101920008230E9F08330F9F00895883071F0893021
:1019300091F08530B9F4809180008F7D03C0809153
:1019400080008F778093800008958091B0008F771A
:101950008093B00008958091B0008F7DF9CF84B559
:101960008F7784BD089584B58F7DFBCFCF93DF93B0
:1019700090E0FC01E158FF4F24918A569F4FFC01F3
:1019800084918823C9F090E0880F991FFC01EF53E0
:10199000FF4FA591B491FC01E954FF4FC591D4913B
:1019A00061110DC09FB7F8948C91209582238C9380
:1019B0008881282328839FBFDF91CF9108956230CB
:1019C00051F49FB7F8943C91822F809583238C9398
:1019D000E8812E2BEFCF8FB7F894EC912E2B2C9320
:1019E0008FBFEACF1F93CF93DF93282F30E0F90109
:1019F000E859FF4F8491F901E158FF4FD491F90163
:101A0000EA56FF4FC491CC23A9F0162F81110E94F2
:101A10008D0CEC2FF0E0EE0FFF1FE954FF4FA59166
:101A2000B4918FB7F894EC91111108C0D095DE23D2
:101A3000DC938FBFDF91CF911F910895DE2BF8CFFC
:101A4000FC01918D228D892F90E0805C9F4F821B3D
:101A500091098F7399270895FC01918D828D9817B4
:101A600031F0828DE80FF11D858D90E008958FEFA4
:101A70009FEF0895FC01918D828D981761F0A28DE2
:101A8000AE0FBF2FB11D5D968C91928D9F5F9F739E
:101A9000928F90E008958FEF9FEF0895FC01538D92
:101AA000448D252F30E0842F90E0821B930B541738
:101AB00010F0CF9608950197089583EA9EE0892B50
:101AC00049F080E090E0892B29F00E94A30E81115B
:101AD0000C9400000895FC01A48DA80FB92FB11D2E
:101AE000A35ABF4F2C91848D90E001968F73992754
:101AF000848FA689B7892C93A089B1898C91806441
:101B00008C93938D848D981306C00288F389E02D01
:101B100080818F7D80830895CF93DF93EC01888D42
:101B20008823B9F0AA89BB89E889F9898C9185FD58
:101B300003C0808186FD0DC00FB607FCF7CF8C91E6
:101B400085FFF2CF808185FFEDCFCE010E946B0D26
:101B5000E9CFDF91CF910895EF92FF920F931F93FA
:101B6000CF93DF93EC0181E0888F9B8D8C8D981350
:101B700016C0E889F989808185FF11C0EE89FF8947
:101B80006083E889F98980818064808381E090E0C6
:101B9000DF91CF911F910F91FF90EF900895F62E56
:101BA0000B8D10E00F5F1F4F0F731127E02E8C8DF0
:101BB0008E110CC00FB607FCFACFE889F989808135
:101BC00085FFF5CFCE010E946B0DF1CFEB8DEC0FB1
:101BD000FD2FF11DE35AFF4FF0820B8FEA89FB893D
:101BE00080818062D2CFCF92DF92EF92FF921F93DB
:101BF000CF93DF93EC016A017B01122FE889F98909
:101C000082E08083C11481EED806E104F104A1F0E2
:101C100060E079E08DE390E0A70196010E941A0F41
:101C20002150310941095109569547953795279516
:101C3000211580E1380798F0E889F989108260E879
:101C400074E88EE190E0A70196010E941A0F2150DE
:101C50003109410951095695479537952795EC85E6
:101C6000FD853083EE85FF852083188EEC89FD8904
:101C70001083EA89FB89808188698083EA89FB89EE
:101C800080818F7D8083DF91CF911F91FF90EF90B6
:101C9000DF90CF9008951F920F920FB60F921124EC
:101CA0002F938F939F93EF93FF93E0911703F091FE
:101CB00018038081E0911D03F0911E0382FD1BC07B
:101CC0009081809120038F5F8F7320912103821771
:101CD00041F0E0912003F0E0E95FFC4F958F8093A5
:101CE0002003FF91EF919F918F912F910F900FBE45
:101CF0000F901F9018958081F4CF1F920F920FB60E
:101D00000F9211242F933F934F935F936F937F9381
:101D10008F939F93AF93BF93EF93FF9387E093E0ED
:101D20000E946B0DFF91EF91BF91AF919F918F91A9
:101D30007F916F915F914F913F912F910F900FBEC7
:101D40000F901F90189587E093E00E94200D21E0EE
:101D5000892B09F420E0822F0895E7E0F3E0138255
:101D6000128288EE93E0A0E0B0E084839583A6839E
:101D7000B78385E291E09183808385EC90E095873D
:101D8000848784EC90E09787868780EC90E0918B45
:101D9000808B81EC90E0938B828B82EC90E0958B32
:101DA000848B86EC90E0978B868B118E128E138E2F
:101DB000148E0895AF92BF92CF92DF92EF92FF926E
:101DC0000F931F93CF93DF936C017B018B01040F63
:101DD000151FEB015E01AE18BF08C017D10759F0FF
:101DE0006991D601ED91FC910190F081E02DC60141
:101DF0000995892B79F7C501DF91CF911F910F913B
:101E0000FF90EF90DF90CF90BF90AF900895982F04
:101E1000862F089508950E94650C0E940A0F0E9463
:101E20006507CDE5DDE00E94F8072097E1F30E9409
:101E30005D0DF9CFA1E21A2EAA1BBB1BFD010DC03F
:101E4000AA1FBB1FEE1FFF1FA217B307E407F5076A
:101E500020F0A21BB30BE40BF50B661F771F881F46
:101E6000991F1A9469F760957095809590959B01DC
:101E7000AC01BD01CF010895EE0FFF1F0590F49155
:081E8000E02D0994F894FFCF56
:101E88006B006C006D00FF0102030405060F1000D3
:101E9800000000EC081B098908B5088C089308A6FF
:101EA8000800000000AC0DDA0E4E0D8C0D200D3A26
:041EB8000D2C0D00E0
:00000001FF
