:100000000C945D000C9485000C9485000C942F07D3
:100010000C940A070C94E5060C9485000C9485005A
:100020000C9485000C9485000C9485000C9485003C
:100030000C9485000C9485000C9485000C9485002C
:100040000C947C050C9485000C944A050C942405B2
:100050000C9485000C9485000C9485000C9485000C
:100060000C94C6050C9485000000000023002600B7
:10007000290000000000250028002B0004040404CF
:100080000404040402020202020203030303030342
:10009000010204081020408001020408102001021F
:1000A00004081020000000080002010000030407FB
:1000B00000000000000000006F0711241FBECFEFFA
:1000C000D4E0DEBFCDBF11E0A0E0B1E0EAE5F1E1B0
:1000D00002C005900D92AC32B107D9F723E0ACE233
:1000E000B1E001C01D92AB30B207E1F710E0CDE501
:1000F000D0E004C02197FE010E94A508CC35D107AD
:10010000C9F70E94AF070C94AB080C940000089547
:100110000895AF92BF92CF92DF92EF92FF920F932A
:100120001F93CF93DF936C017B018B01040F151F8D
:10013000EB015E01AE18BF08C017D10759F06991F5
:10014000D601ED91FC910190F081E02DC601099559
:10015000892B79F7C501DF91CF911F910F91FF9006
:10016000EF90DF90CF90BF90AF900895FC01538D3A
:10017000448D252F30E0842F90E0821B930B541781
:1001800010F0CF96089501970895FC01918D828D0E
:10019000981761F0A28DAE0FBF2FB11D5D968C91A7
:1001A000928D9F5F9F73928F90E008958FEF9FEFE6
:1001B0000895FC01918D828D981731F0828DE80FA2
:1001C000F11D858D90E008958FEF9FEF0895FC015C
:1001D000918D228D892F90E0805C9F4F821B910929
:1001E0008F73992708958EE692E00E94E70021E040
:1001F000892B09F420E0822F089580E090E0892B7C
:1002000029F00E94F30081110C9400000895FC0174
:10021000A48DA80FB92FB11DA35ABF4F2C91848D67
:1002200090E001968F739927848FA689B7892C93C4
:10023000A089B1898C91837080648C93938D848D17
:10024000981306C00288F389E02D80818F7D80831A
:100250000895EF92FF920F931F93CF93DF93EC01DA
:1002600081E0888F9B8D8C8D98131AC0E889F9895D
:10027000808185FF15C09FB7F894EE89FF89608360
:10028000E889F98980818370806480839FBF81E0E1
:1002900090E0DF91CF911F910F91FF90EF90089523
:1002A000F62E0B8D10E00F5F1F4F0F731127E02EFE
:1002B0008C8D8E110CC00FB607FCFACFE889F98936
:1002C000808185FFF5CFCE010E940701F1CFEB8D34
:1002D000EC0FFD2FF11DE35AFF4FF0829FB7F8940A
:1002E0000B8FEA89FB8980818062CFCFCF93DF9328
:1002F000EC01888D8823B9F0AA89BB89E889F9893E
:100300008C9185FD03C0808186FD0DC00FB607FC72
:10031000F7CF8C9185FFF2CF808185FFEDCFCE01A5
:100320000E940701E9CFDF91CF91089590E0FC0191
:10033000EC55FF4F2491FC01E057FF4F3491FC0135
:10034000E458FF4FE491EE23C9F0222339F0233023
:1003500001F1A8F4213019F1223029F1F0E0EE0F7B
:10036000FF1FEE58FF4FA591B4918FB7F894EC9111
:10037000611126C030953E233C938FBF08952730EE
:10038000A9F02830C9F0243049F7809180008F7D92
:1003900003C0809180008F7780938000DFCF84B589
:1003A0008F7784BDDBCF84B58F7DFBCF8091B0008C
:1003B0008F778093B000D2CF8091B0008F7DF9CF3E
:1003C0003E2BDACF3FB7F894809116029091170236
:1003D000A0911802B091190226B5A89B05C02F3F25
:1003E00019F00196A11DB11D3FBFBA2FA92F982F5B
:1003F0008827BC01CD01620F711D811D911D42E056
:10040000660F771F881F991F4A95D1F7089520918D
:10041000C701260F3327331F21323105ECF4209119
:10042000EB01FC0190E080E0243069F082E0089567
:10043000A091C7012191AC0149555E4FA40FB52F82
:10044000B11D2C930196861798F38091C701680F10
:100450006093C70180E0089581E008951092EB0158
:1004600081E08093ED011092EC0161E082E10E9455
:10047000960161E083E10E949601E9EBF0E0808162
:100480008E7F808380818D7F808388E48093B80015
:1004900085E48093BC000895CF93DF9391E090931F
:1004A000A6018823B9F0C091B800D091BA0080911C
:1004B000BC008A7B8093BC0060E082E10E949601D0
:1004C00060E083E10E9496010E942E02D093BA0060
:1004D000C093B800DF91CF9108950895E091210273
:1004E00080912002E81730F4F0E0EF57FE4F808152
:1004F00090E008958FEF9FEF0895909121028091F1
:1005000020022FEF3FEF981748F4E92FF0E0EF5764
:10051000FE4F208130E09F5F90932102C901089532
:100520008091200290912102891B990B0895CF920E
:10053000DF92EF92FF920F931F93CF93DF937C0193
:10054000CB018A0120918001222389F0EB016B010C
:10055000C40ED51ECC15DD0569F06991D701ED916A
:10056000FC910190F081E02DC7010995F3CF642F34
:100570000E940702C801DF91CF911F910F91FF9058
:10058000EF90DF90CF900895CF93DF931F92CDB778
:10059000DEB76983209180012223F9F020911E02A9
:1005A000203258F021E030E0FC013383228390E0D8
:1005B00080E00F90DF91CF91089580911F02E82F86
:1005C000F0E0E05AFE4F998190838F5F80931F0285
:1005D00080931E0281E090E0ECCF61E0CE010196B5
:1005E0000E940702F7CF90E080E00895CF92DF925B
:1005F000EF92FF920F931F93CF93DF93FC019181B2
:1006000062818081C38121E020938001C0935F01DA
:1006100010921F0210921E0260956923682B84E2DB
:1006200092E00E94C402D0911E02D13208F092C022
:100630000E94E2016B017C018091EB01811165C098
:1006400082E08093EB0181E08093ED018FEF809356
:10065000EA0110920F02D0930E02E0E6F1E0AEEE56
:10066000B1E080E0D81385C0109210028091100292
:10067000CC0FC82BC09310028091EC01813009F09F
:100680007CC01092EC010E94E2016B017C01809120
:1006900010028093BB008091A2019091A301A091D0
:1006A000A401B091A501892B8A2B8B2B99F00E9474
:1006B000E2010091A2011091A3012091A4013091C7
:1006C000A5016C197D098E099F09061717072807D0
:1006D0003907E0F18091BC0083FDD9CF85EC809390
:1006E000BC000E94E2016B017C018091EB01823031
:1006F00009F445C08091EA018F3F61F18091EA01E0
:10070000803241F18091EA0125C08091A20190914F
:10071000A301A091A401B091A501892B8A2B8B2B59
:1007200009F48ACF0E94E2010091A2011091A30175
:100730002091A4013091A5016C197D098E099F09B2
:10074000061717072807390708F076CF8091A1010F
:100750000E944C0210921F0210921E021092800101
:10076000DF91CF911F910F91FF90EF90DF90CF908D
:10077000089591919D938F5F75CF85EEB0CF809155
:10078000A2019091A301A091A401B091A501892B90
:100790008A2B8B2B09F4A9CF0E94E2010091A201C0
:1007A0001091A3012091A4013091A5016C197D093C
:1007B0008E099F09061717072807390708F095CFF4
:1007C000C5CFE0E3F2E0928121E030E001C0220FEA
:1007D0008A95EAF7209592239283808128232083AB
:1007E000CF010C94F60290E0FC01EE0FFF1FE459DC
:1007F000FF4FA591B4912C91FC01E45AFE4F30813A
:100800002083880F991FFC01EF5FFE4F0190F0815C
:10081000E02D808108958F929F92AF92BF92CF92E8
:10082000DF92EF92FF920F931F93CF938C01FC0105
:1008300081818483C3810E94E2016B017C018091EC
:10084000EB01811164C081E08093EB018093ED01A5
:100850009FEF9093EA0110920F0210920E02809384
:10086000100280911002CC0FC82BC093100280910F
:10087000EC01813009F078C01092EC010E94E20195
:100880006B017C01809110028093BB008091A201DA
:100890009091A301A091A401B091A501892B8A2B6D
:1008A0008B2BA1F00E94E2018090A2019090A30105
:1008B000A090A401B090A5016C197D098E099F0933
:1008C00086169706A806B90608F442C08091BC00B7
:1008D00083FDD8CF85EC8093BC000E94E2016B01C0
:1008E0007C018091EB01813009F440C080910F02BE
:1008F00081115EC080910F02AEEEB1E0E1E8F1E05F
:1009000090E0981751F12D9121939F5FFACF80913C
:10091000A2019091A301A091A401B091A501892BFE
:100920008A2B8B2B09F48BCF0E94E2018090A201CD
:100930009090A301A090A401B090A5016C197D092D
:100940008E099F0986169706A806B90608F077CF84
:100950008091A1010E944C0280E0109221028093BC
:100960002002811127C0FFCF85EEB5CF8091A20173
:100970009091A301A091A401B091A501892B8A2B8C
:100980008B2B09F4AECF0E94E2018090A2019090DF
:10099000A301A090A401B090A5016C197D098E0956
:1009A0009F0986169706A806B90608F09ACFD0CFF9
:1009B00081E0A2CF84E292E00E947D02F80181836F
:1009C000CF911F910F91FF90EF90DF90CF90BF904C
:1009D000AF909F908F90089585ED8093BC0080919B
:1009E000A2019091A301A091A401B091A501079645
:1009F000A11DB11D23E0B695A795979587952A95DA
:100A0000D1F72091BC0024FD03C01092EB010895A2
:100A10004091A2015091A3016091A4017091A501A0
:100A2000452B462B472B69F30097A105B10541F0F3
:100A300025E32A95F1F700000197A109B109E1CF5B
:100A40008091A1010C944C021F920F920FB60F924D
:100A500011242F933F934F935F936F937F938F93C3
:100A60009F93AF93BF93EF93FF938EE692E00E9424
:100A70000701FF91EF91BF91AF919F918F917F916E
:100A80006F915F914F913F912F910F900FBE0F90FB
:100A90001F9018951F920F920FB60F9211242F934B
:100AA0008F939F93EF93FF93E0917E02F0917F02EB
:100AB0008081E0918402F091850282FD1BC09081CB
:100AC000809187028F5F8F7320918802821741F097
:100AD000E0918702F0E0E259FD4F958F8093870205
:100AE000FF91EF919F918F912F910F900FBE0F90DB
:100AF0001F9018958081F4CF1F920F920FB60F921E
:100B000011242F933F938F939F93AF93BF93809123
:100B1000120290911302A0911402B091150230912B
:100B2000110223E0230F2D3758F50196A11DB11DA9
:100B3000209311028093120290931302A093140247
:100B4000B09315028091160290911702A09118029D
:100B5000B09119020196A11DB11D809316029093C8
:100B60001702A0931802B0931902BF91AF919F9101
:100B70008F913F912F910F900FBE0F901F9018955E
:100B800026E8230F0296A11DB11DD2CF1F920F920E
:100B90000FB60F9211242F933F934F935F936F9350
:100BA0007F938F939F93AF93BF93EF93FF93809126
:100BB000B900887F803609F44AC0F0F5883209F41C
:100BC000A7C018F5803109F49BC0B8F4882309F454
:100BD000F9C0883009F494C0FF91EF91BF91AF91B3
:100BE0009F918F917F916F915F914F913F912F9145
:100BF0000F900FBE0F901F901895883109F488C090
:100C0000803251F78093EA0114C0803409F49DC00A
:100C100040F48033B9F38833F9F68093EA0185EC28
:100C2000B0C0803509F485C0883509F496C0883491
:100C300099F60E94EC04D0CF883909F48CC038F5BD
:100C4000883729F050F4883611F0803729F683E090
:100C50008093EB011092E90157C0883809F47BC0FA
:100C6000803919F0803809F0B7CF8091E9018032DE
:100C700008F071C0E091E90181E08E0F8093E901F5
:100C80008091BB00F0E0E753FE4F80833DC0803B86
:100C900039F0E0F4803A09F479C0883A09F09CCF41
:100CA00084E08093EB011092C8011092C701E0919B
:100CB0001C02F0911D0209958091C70181110FC09E
:100CC00081E08093C7011092A70109C0803C09F41C
:100CD000A6CF883C09F4A3CF883B09F07DCFE091F3
:100CE000C80181E08E0F8093C801F0E0E955FE4F06
:100CF00080818093BB009091C8018091C70129C079
:100D0000809110028093BB0085EC8093BC0064CF7F
:100D100090910F0280910E02981758F5E0910F0202
:100D200081E08E0F80930F02F0E0E251FE4F808150
:100D3000E9CFE0910F0281E08E0F80930F02809146
:100D4000BB00F0E0E251FE4F808390910F02809152
:100D50000E029817C8F285E8D8CFE0910F0281E023
:100D60008E0F80930F028091BB00F0E0E251FE4FA6
:100D700080838091ED0181115CCF81E08093EC0153
:100D800084EA8093BC001092EB0126CF85EC80931F
:100D9000BC001092EB018091E901803230F4E091C7
:100DA000E901F0E0E753FE4F10826091E90170E045
:100DB000E0911A02F0911B0289EC91E009951092E2
:100DC000E9010ACF1092EA0134CF1F920F920FB6B9
:100DD0000F9211242F933F934F935F936F937F93C1
:100DE0008F939F93AF93BF93EF93FF9382E00E9403
:100DF000F303FF91EF91BF91AF919F918F917F91FD
:100E00006F915F914F913F912F910F900FBE0F9077
:100E10001F9018951F920F920FB60F9211242F93C7
:100E20003F934F935F936F937F938F939F93AF9372
:100E3000BF93EF93FF9381E00E94F303FF91EF9143
:100E4000BF91AF919F918F917F916F915F914F91E2
:100E50003F912F910F900FBE0F901F9018951F92EA
:100E60000F920FB60F9211242F933F934F935F93DE
:100E70006F937F938F939F93AF93BF93EF93FF9362
:100E800080E00E94F303FF91EF91BF91AF919F919A
:100E90008F917F916F915F914F913F912F910F9023
:100EA0000FBE0F901F901895CF93DF93FC01108217
:100EB000118212821382148215821682EC01279607
:100EC000DC011F961992AC17BD07E1F77F961D92C2
:100ED0001D92EA17FB07D9F7DF91CF910895EEE64F
:100EE000F2E01382128288EE93E0A0E0B0E0848307
:100EF0009583A683B7832BE031E03183208325ECF3
:100F000030E03587248724EC30E03787268720ECD3
:100F100030E0318B208B21EC30E0338B228B22ECC4
:100F200030E0358B248B26EC30E0378B268B118E0E
:100F3000128E138E148EE4E2F2E013821282848306
:100F40009583A683B7838DE191E0918380838FE4BD
:100F500092E00E94540780E392E00C945407789446
:100F600084B5826084BD84B5816084BD85B58260AE
:100F700085BD85B5816085BD80916E00816080935F
:100F80006E001092810080918100826080938100C8
:100F900080918100816080938100809180008160D8
:100FA000809380008091B10084608093B100809133
:100FB000B00081608093B00080917A00846080935B
:100FC0007A0080917A00826080937A0080917A0022
:100FD000816080937A0080917A00806880937A00A3
:100FE0001092C10080E2809352021092210210926E
:100FF000200210921F0210921E020E942E0287E809
:1010000090E090931D0280931C0288E890E09093FA
:101010001B0280931A02CFEFC0934F028FE492E03D
:101020000E94F6028FE492E00E940B0487E2809314
:101030003302109221021092200210921F0210928D
:101040001E020E942E02C093300280E392E00E94B2
:10105000F60280E392E00E940B04C0934F028FE4FB
:1010600092E00E94F60280E00E94E10381E00E948B
:10107000E10382E00E94E10383E00E94E10384E057
:101080000E94E10385E00E94E10386E00E94E10303
:1010900087E00E94E103C093300280E392E00E9467
:1010A000F602C12CD12C7601C394C0E0D0E040916F
:1010B000230280912202481791F1409322028091ED
:1010C000000130E020E050E0BA01022E02C0759528
:1010D00067950A94E2F760FD15C046015701022E9C
:1010E00004C0880C991CAA1CBB1C0A94D2F7682F58
:1010F00070E0022E02C0759567950A94E2F760FDD4
:1011000021C088292F5F3F4F28303105E9F68093B1
:10111000000180934F028FE492E00E94F60280E388
:1011200092E00E940B048091310280932302209769
:1011300009F4BDCF0E94F300882309F4B8CF0E94C0
:101140000000B5CF80948821DDCFEE0FFF1F059002
:0A115000F491E02D0994F894FFCF0C
:10115A00FF6B006C006D000000000029018900B6D9
:10116A00007601E700C500D90000000000C402971C
:0C117A0002F3026D0290027D026E020082
:00000001FF
