:020000040000FA
:100000000C9462000C9469040C9442040C948A00D1
:100010000C948A000C948A000C948A000C948A0038
:100020000C948A000C948A000C948A000C948A0028
:100030000C948A000C948A000C948A000C948A0018
:100040000C94F8030C948A000C94B6040C9490045D
:100050000C948A000C948A000C948A000C948A00F8
:100060000C948A000C948A000000000024002700F1
:100070002A0000000000250028002B0000000008D6
:10008000000201000003040700000000000000005F
:10009000010204081020408001020408102001021F
:1000A000040810200000000023002600290004049A
:1000B0000404040404040202020202020303030310
:1000C0000303E80411241FBECFEFD4E0DEBFCDBF91
:1000D00013E0A0E0B1E0EEE3FCE102C005900D9278
:1000E000AA34B107D9F724E0AAE4B3E001C01D9215
:1000F000A033B207E1F710E0C2E6D0E004C02197D8
:10010000FE010E94E90BC136D107C9F70E94DF0545
:100110000C941D0E0C940000833081F028F4813083
:1001200099F08230A9F008958730A9F08830C9F09D
:100130008430B1F4809180008F7D03C08091800075
:100140008F7780938000089584B58F7784BD08955C
:1001500084B58F7DFBCF8091B0008F778093B00006
:1001600008958091B0008F7DF9CF1F93CF93DF93D7
:10017000282F30E0F901E458FF4F8491F901E0574E
:10018000FF4FD491F901E255FF4FC491CC23A9F060
:10019000162F81110E948C00EC2FF0E0EE0FFF1F54
:1001A000EE58FF4FA591B4918FB7F894EC911111CF
:1001B00008C0D095DE23DC938FBFDF91CF911F91D4
:1001C0000895DE2BF8CFCF93DF9390E0FC01E0574A
:1001D000FF4F249182559F4FFC0184918823C9F0E1
:1001E00090E0880F991FFC01E859FF4FA591B49149
:1001F000FC01EE58FF4FC591D49161110DC09FB71E
:10020000F8948C91209582238C93888128232883CD
:100210009FBFDF91CF910895623051F49FB7F8945A
:100220003C91822F809583238C93E8812E2BEFCFF6
:100230008FB7F894EC912E2B2C938FBFEACF3FB75A
:10024000F8948091540390915503A0915603B09176
:10025000570326B5A89B05C02F3F19F00196A11D95
:10026000B11D3FBFBA2FA92F982F8827BC01CD0100
:10027000620F711D811D911D42E0660F771F881F5F
:10028000991F4A95D1F70895CF92DF92EF92FF928E
:100290000E941F016B017C010E941F016C197D09E6
:1002A0008E099F09683E734081059105A8F3FF9070
:1002B000EF90DF90CF9008952FB7F894609150039E
:1002C0007091510380915203909153032FBF089571
:1002D000862F642F0C94E3000895AF92BF92CF92C3
:1002E000DF92EF92FF920F931F93CF93DF936C01F6
:1002F0007B018B01040F151FEB015E01AE18BF08D7
:10030000C017D10759F06991D601ED91FC91019088
:10031000F081E02DC6010995892B79F7C501DF91A0
:10032000CF911F910F91FF90EF90DF90CF90BF90F2
:10033000AF900895FC01538D448D252F30E0842F1C
:1003400090E0821B930B541710F0CF9608950197FD
:100350000895FC01918D828D981761F0A28DAE0FEA
:10036000BF2FB11D5D968C91928D9F5F9F73928F71
:1003700090E008958FEF9FEF0895FC01918D828D9D
:10038000981731F0828DE80FF11D858D90E008956A
:100390008FEF9FEF0895FC01918D228D892F90E0C2
:1003A000805C9F4F821B91098F73992708958AE77C
:1003B00093E00E94CB0121E0892B09F420E0822FF9
:1003C000089580E090E0892B29F00E94D7018111E7
:1003D0000C9400000895FC01A48DA80FB92FB11D45
:1003E000A35ABF4F2C91848D90E001968F7399276B
:1003F000848FA689B7892C93A089B1898C91837049
:1004000080648C93938D848D981306C00288F38941
:10041000E02D80818F7D80830895EF92FF920F936E
:100420001F93CF93DF93EC0181E0888F9B8D8C8DA0
:1004300098131AC0E889F989808185FF15C09FB794
:10044000F894EE89FF896083E889F9898081837057
:10045000806480839FBF81E090E0DF91CF911F9106
:100460000F91FF90EF900895F62E0B8D10E00F5F27
:100470001F4F0F731127E02E8C8D8E110CC00FB6FD
:1004800007FCFACFE889F989808185FFF5CFCE0195
:100490000E94EB01F1CFEB8DEC0FFD2FF11DE35A24
:1004A000FF4FF0829FB7F8940B8FEA89FB89808118
:1004B0008062CFCFCF93DF93EC01888D8823B9F092
:1004C000AA89BB89E889F9898C9185FD03C080815F
:1004D00086FD0DC00FB607FCF7CF8C9185FFF2CFDC
:1004E000808185FFEDCFCE010E94EB01E9CFDF9146
:1004F000CF910895CF93DF93FC01218930E0F9017A
:10050000E458FF4F8491F901E057FF4FD491F9016E
:10051000E255FF4FC491CC2379F081110E948C00E9
:10052000EC2FF0E0EE0FFF1FEC55FF4FA591B491BB
:10053000EC91ED2381E009F480E08170DF91CF91AF
:100540000895FC0180819181009749F0FC01208190
:1005500031812617370719F086819781F5CF0895E5
:10056000CF93DF93EB01BC0187E194E00E94A102ED
:10057000009789F0DC011496ED91FC91309759F0C9
:1005800080819181C817D90750F081E022813381A1
:100590002C173D0708F080E0DF91CF91089581E0AE
:1005A000FBCF0E94A102009721F0FC018281938180
:1005B000089590E080E00895CF93DF93EA010E94D0
:1005C000A102009739F0FC01D383C28381E0DF915F
:1005D000CF91089580E0FBCFDC01ED91FD9180810A
:1005E000ED91FD919081ED91FD916C9163708E2361
:1005F00009F064609F2309F06860E9E0F3E0E60F2A
:10060000F11D659565956D936D917D918D919D9190
:10061000099423C01AC012C016C010C01EC009C061
:1006200014C013C006C019C009C00DC007C00DC05A
:1006300014C062507040804090400BC061507040C8
:100640008040904006C06E5F01C06F5F7F4F8F4F4C
:100650009F4F9E938E937E936E930895809158033F
:10066000909159030C94EC0280915A0390915B0392
:100670000C94EC020F931F93CF93DF938C01EB014B
:1006800088E090E00E94EF0BFC0111830083D3838C
:10069000C28315821482178216828091170490916A
:1006A0001804892B69F4F0931804E0931704F0936D
:1006B0001A04E0931904DF91CF911F910F910895CF
:1006C000A0911904B0911A041796FC93EE93169713
:1006D000EECF0F931F93CF93DF93182F062FC7E111
:1006E000D4E082E0888762E070E08E819F810E9482
:1006F000140DFC019F838E8310581083018383E0C7
:100700008987DF91CF911F910F910895AF92BF928A
:10071000DF92EF92FF920F931F93CF93DF93D82E28
:100720007B018A01BA016F5F7F4F660F60931F04E0
:1007300070E080911D0490911E040E94140D90930E
:100740001E0480931D0464E00097B9F1FC01D0827F
:1007500020911F0422502183F3E081E395E7DF120B
:1007600002C081E49CE9D0E0C0E0E80EF91E0C175D
:100770001D0779F15701AC0EBD1EB50187E194E06C
:100780000E94A102892BC1F0B50187E194E00E948B
:10079000D10221969E01220F331FA0911D04B0911A
:1007A0001E04A20FB31F9C93E0911D04F0911E0440
:1007B000E20FF31F8183DBCF62E08D2DDF91CF91BC
:1007C0001F910F91FF90EF90DF90BF90AF900C942E
:1007D000690383E080932004DF91CF911F910F91F3
:1007E000FF90EF90DF90BF90AF9008950E94D10DE1
:1007F0001F920F920FB60F9211242F933F938F9356
:100800009F93AF93BF938091500390915103A09118
:100810005203B091530330914F0323E0230F2D3740
:1008200058F50196A11DB11D20934F0380935003ED
:1008300090935103A0935203B093530380915403B8
:1008400090915503A0915603B09157030196A11DB5
:10085000B11D8093540390935503A0935603B09316
:100860005703BF91AF919F918F913F912F910F901F
:100870000FBE0F901F90189526E8230F0296A11D1A
:10088000B11DD2CF1F920F920FB60F9211242F934A
:100890003F934F935F936F937F938F939F93AF9308
:1008A000BF93EF93FF93E0910301F0910401099549
:1008B000FF91EF91BF91AF919F918F917F916F9138
:1008C0005F914F913F912F910F900FBE0F901F900E
:1008D00018951F920F920FB60F9211242F933F93EA
:1008E0004F935F936F937F938F939F93AF93BF9338
:1008F000EF93FF93E0910101F09102010995FF91BF
:10090000EF91BF91AF919F918F917F916F915F9187
:100910004F913F912F910F900FBE0F901F90189500
:100920001F920F920FB60F9211242F933F934F9364
:100930005F936F937F938F939F93AF93BF93EF9347
:10094000FF938AE793E00E94EB01FF91EF91BF9143
:10095000AF919F918F917F916F915F914F913F9157
:100960002F910F900FBE0F901F9018951F920F920E
:100970000FB60F9211242F938F939F93EF93FF93B2
:10098000E0918A03F0918B038081E0919003F091D4
:10099000910382FD1BC09081809193038F5F8F73C1
:1009A00020919403821741F0E0919303F0E0E65820
:1009B000FC4F958F80939303FF91EF919F918F91BF
:1009C0002F910F900FBE0F901F9018958081F4CF3C
:1009D000CF93DF9310927D0310927C0388EE93E017
:1009E000A0E0B0E080937E0390937F03A093800308
:1009F000B09381038FE293E090937B0380937A031B
:100A000085EC90E0909387038093860384EC90E0DC
:100A1000909389038093880380EC90E090938B03FC
:100A200080938A0381EC90E090938D0380938C03F4
:100A300082EC90E090938F0380938E0386EC90E09D
:100A400090939103809390031092930310929403D8
:100A500010929503109296031092180410921704A6
:100A600010921A041092190410921C0410921B0484
:100A700010921E0410921D0410921F041092200464
:100A800010922204109221048AE793E090932404A8
:100A9000809323048FEF9FEF909326048093250487
:100AA0008AE58093270410926A0310926B031092D8
:100AB0006C0310926D038AE090E090936F03809333
:100AC0006E031092700381E493E090936903809326
:100AD00068031092790362E082E00E94E30062E022
:100AE00083E00E94E300E0EBF0E0E491F0E0EE0F41
:100AF000FF1FEC55FF4FA591B491B0935D03A093F8
:100B00005C03E2E9F0E0449140936003E1EBF0E044
:100B1000E491F0E0EE0FFF1FEC55FF4FC591D4912B
:100B2000D0935F03C0935E03E3E9F0E0E491E093C8
:100B30006103109263031092640310926503109294
:100B400066032BE33FE1C9010197F1F79C91842FE4
:100B5000892391E009F490E08881E82309F092600C
:100B60002CE533E0909362033093590320935803AC
:100B70008EE293E0909302018093010180916900DD
:100B80008C7F816080936900E89A81E0809367039D
:100B900030935B0320935A0384E393E09093040122
:100BA0008093030180916900837F84608093690052
:100BB000E99A82E080936703DF91CF91089578945A
:100BC00084B5826084BD84B5816084BD85B5826052
:100BD00085BD85B5816085BD80916E008160809303
:100BE0006E0010928100809181008260809381006C
:100BF000809181008160809381008091800081607C
:100C0000809380008091B10084608093B1008091D6
:100C1000B00081608093B00080917A0084608093FE
:100C20007A0080917A00826080937A0080917A00C5
:100C3000816080937A0080917A00806880937A0046
:100C40001092C1008EE098E10FB6F894A8959093A9
:100C500060000FBE80936000E0918A03F0918B03E7
:100C600092E09083E0918603F09187031082E091F7
:100C70008803F09189039FEC908310929203E09196
:100C80008E03F0918F038083E0918C03F0918D03AC
:100C9000808180618083E0918C03F0918D0380815D
:100CA00088608083E0918C03F0918D03808180685F
:100CB0008083E0918C03F0918D0380818F7D808310
:100CC000809125049091260497FD08C061E00E9460
:100CD000E30060E0809125040E94B50086EB96E079
:100CE00090932904809328048AEA9FE090932B0430
:100CF00080932A0480911B0490911C040E948B0C09
:100D000085E090E00E94EF0B90931C0480931B04FD
:100D1000009721F065E473E00E94DF0D61E08AE056
:100D20000E94E30060E08AE00E94B50062E08FE08C
:100D30000E94E30080914C0360E07FEF811102C0CC
:100D400070E060E081E090E00E943A0360914D0322
:100D500070914E0381E49CE90E943A0360914A033A
:100D600070914B0382E49CE90E943A0362E08FE0B9
:100D70000E94E3008FE0809379031092700388E66D
:100D800093E00E947A02882329F0809170038360A7
:100D9000809370030E945C0160936A0370936B03FD
:100DA00080936C0390936D0389E190E090936F03BF
:100DB00080936E03A0E82A2E312CA89510921F0470
:100DC0008091230490912404DC01ED91FC91008436
:100DD000F185E02D099540911F04242F30E028175C
:100DE0003907E4F48091230490912404DC01ED910F
:100DF000FC910084F185E02D099580931F0480917A
:100E000028049091290482309105D0F2880F991F0F
:100E1000880F991F05970197F1F7D2CF442309F462
:100E200086C1C9010E94EF0B90931E0480931D049C
:100E3000C0E020911F04C217A0F480912304909178
:100E40002404DC01ED91FC910284F385E02D0995E9
:100E5000E0911D04F0911E04EC0FF11D8083CF5F23
:100E6000E8CF00911D0410911E04F8015080552018
:100E700021F080912704581252C13DEF320F7801C2
:100E8000FFEFEF1AFF0A652D609570E0FB01E55F4B
:100E9000FD4F8081482F4095655F7E4FDB015C915F
:100EA000F701315068F08191842790E0DC01A55F63
:100EB000BD4F4C914527DC01A55FBE4F5C91F1CF42
:100EC000200F312F311DF9013297908131968081A9
:100ED0004527542745278417950709F020C1F801B5
:100EE000B180C281D381DC27CD27DC27C480D580A7
:100EF000DC24CD24DC24EFEFEB0DE13108F02FC32F
:100F0000F0E0EB57F84F0C94E90B8409840975085D
:100F10007809F7099607AF0AAF0AAF0AAF0AAF0A16
:100F2000AF0AAF0AAF0A0F0AD907780ACF5BD346D8
:100F3000B601CE010E94B002882329F063E086E06A
:100F40000E946903DFC0A601BE0187E194E00E9410
:100F5000DC02811102C062E0F2CF82E080932004C3
:100F6000552009F4D1C0C0911D04D0911E04809178
:100F700025049091260497FD05C061E00E94B5000C
:100F80000E94440110E08091230490912404DC012C
:100F9000ED91FC9120911F04121708F01AC3DE0195
:100FA000A10FB11D0190F081E02D6C9109951F5F9B
:100FB000EACFC60101978B37910548F4D801169600
:100FC0002C91C601880F991F2817190619F063E0A4
:100FD00080E1B6CFF12CE12C3E014FEB641A43E6E1
:100FE000740AB701660D771D87E194E00E94A102A3
:100FF000892B11F462E0ECCF8FEFE81AF80ACE14D7
:10100000DF0479F7D12CC12CF801A7808085BA2C98
:10101000A82E4601860C971CB501C4010E94B0029F
:1010200081118CCFA501B40187E194E00E94DC021C
:10103000FFEFCF1ADF0A0E5F1F4FEC14FD0421F7FC
:1010400080911D0490911E040E948B0C85E080937A
:101050001F0485E090E00E94EF0BFC0190931E04BA
:1010600080931D0464E0892B09F4B2CF80E1808372
:10107000D183C2831382E48283E0809320045520CD
:1010800009F442C0C0911D04D0911E048091250432
:101090009091260497FD05C061E00E94B5000E9472
:1010A00044018091230490912404DC01ED91FC9192
:1010B0000190F081E02D60912704099510E04091A6
:1010C0001F048091230490912404DC01ED91FC9194
:1010D0000190F081E02D141708F043C2DE01A10F4A
:1010E000B11D6C9109951F5FEACFC60101978D373D
:1010F000910518F063E083E023CFA601BE0183E0F1
:101100000E948603511003C081E0809320048091E7
:101110002004833009F4B6CF823009F424CF8091C3
:101120001D0490911E040E948B0C10921F0480914C
:101130006703823008F069C2F8948CE593E00E945E
:10114000EC024091630350916403609165037091D8
:101150006603789480914D0390914E03092E000C04
:10116000AA0BBB0B84179507A607B70731F14138C7
:1011700051050CF04CC250934E0340934D038091A7
:101180004D0390914E0397FF0EC010924E031092A4
:101190004D03F89410926303109264031092650358
:1011A00010926603789440914D0350914E0361E490
:1011B0007CE987E194E00E94DC0261E47CE987E15C
:1011C00094E00E94D10220914D0330914E0382178A
:1011D000930721F1813891050CF02CC290934E03B6
:1011E00080934D0380914D0390914E0397FF04C06F
:1011F00010924E0310924D0380914D0390914E0337
:10120000092E000CAA0BBB0BF894809363039093F8
:101210006403A0936503B093660378948091700390
:101220008B7F8093700388E693E00E947A02C82F38
:101230008091700386958170C81709F400C20E94DE
:101240005C0160936A0370936B0380936C039093CB
:101250006D038091700392E08927809370038091E1
:10126000700382FF03C081708093000180910001B0
:10127000811115C080914C0391E0892780934C0324
:1012800040E05FEF811102C050E040E061E070E0BB
:1012900087E194E00E94DC0281E08093000161E03C
:1012A00070E087E194E00E94D10221E081159F4F18
:1012B00009F020E080914C03821320934C0380912D
:1012C0004C03811110C261E08AE00E94E30060E0FB
:1012D0008AE00E94B50020E030E0232B09F46DCDB8
:1012E0000E94D701882309F468CD0E94000065CDD3
:1012F000C60101978D37910518F063E084E020CE98
:10130000A601BE0184E0FCCEC601019763E0803DEA
:10131000974008F06AC0C60173E0969587957A9564
:10132000E1F7960127703327232B09F057C08E5F12
:1013300080931F0460911F0470E0C8010E94140D87
:1013400090931E0480931D0464E0009709F44DC03F
:10135000FC01B08220911F0422502183F1E061E062
:1013600070E0BF1611F061E177E210E000E0C60F17
:10137000D71F7E01E00EF11EB70187E194E00E94C5
:10138000A102892B89F1B70187E194E00E94D10283
:10139000202F277041E050E060E070E004C0440F6F
:1013A000551F661F771F2A95D2F7F80163E0F6955F
:1013B000E7956A95E1F7329620911D0430911E045D
:1013C000E20FF31F208181159F4F51F4422B408380
:1013D0000F5F1F4FC016D10661F64ECE8D5FA8CFAE
:1013E000409524232083F4CF62E08B2DA9CDC11436
:1013F0004FEFD40631F063E0CD2879F450E040E0BF
:1014000002C040E05FEFBE016F5F7F4F87E194E075
:101410000E94DC028111A1CD62E085E091CDC60180
:1014200053E0969587955A95E1F7960127703327F3
:10143000232B09F00196960121503109203B3740BA
:1014400008F054C0F80126812817190609F04EC08B
:1014500010E000E04E01FFEF8F1A9F0A5401A00E2A
:10146000B11EB50187E194E00E94A102892BD9F158
:10147000F80143E0F695E7954A95E1F7EE0DFF1D7B
:10148000868190E0202F277002C0959587952A9538
:10149000E2F740E05FEF80FD02C050E040E0B501C0
:1014A00087E194E00E94DC020F5F1F4FC016D10657
:1014B000A9F685E080931F0465E070E080911D042B
:1014C00090911E040E94140DFC0190931E048093C1
:1014D0001D0464E0892B41F08FE08083D183C283B7
:1014E000D382C482C9CD62E08FE02ACD63E0FCCF15
:1014F00084E080931F04A0911B04B0911C041097FA
:1015000041F0FD0101900020E9F7EA1BED5FE09357
:101510001F0460911F0470E0C8010E94140DFC01BB
:1015200090931E0480931D0464E081E1309709F4D8
:1015300007CD81E1808380911F04825081831282D4
:101540008FEF838360911B0470911C0461157105FA
:1015500009F492CDCF0104960E94DF0D8DCD61E09C
:1015600044CF20912704209530E0D901A55FBD4FDD
:10157000CC915C2F5095D901A55FBE4F6C91C09165
:101580001D04D0911E04415070F029915227252F3F
:1015900030E0D901A55FBD4F5C915627D901A55F09
:1015A000BE4F6C91F0CFC62F652F09958091230413
:1015B00090912404DC01ED91FC910190F081E02DEB
:1015C0006C2F09958091230490912404DC01ED9106
:1015D000FC910680F781E02D099580912A04909175
:1015E0002B048230910538F0880F991F880F991FBE
:1015F00005970197F1F7809125049091260497FDB6
:101600008ECD60E00E94B5008ACDF8949ACD3092DC
:101610004E0320924D03F89480E890E0A0E0B0E003
:101620008093630390936403A0936503B093660370
:101630007894A5CD30924E0320924D03D3CD0E94D5
:101640005C0100916A0310916B0320916C0330914F
:101650006D03AB01BC01401B510B620B730B8091FE
:101660006E0390916F03B0E0A0E0481759076A0736
:101670007B0708F4F4CD809170038170C81709F4DA
:10168000EECD0E945C0160936A0370936B038093BC
:101690006C0390936D038091700391E089278460BF
:1016A000809370030E945C0100917103109172039A
:1016B0002091730330917403601B710B820B930BA9
:1016C0006093750370937603809377039093780308
:1016D0000E945C01609371037093720380937303A3
:1016E00090937403BCCD80914D0390914E0397FD70
:1016F000039695958795959587958032910504F584
:1017000090934B0380934A03C0914A03D0914B03BB
:10171000AE0162E47CE987E194E00E94DC02C55FEF
:10172000DC4F1881C12FD0E061E08AE00E94E30025
:10173000209709F4CCCDCF3FD10549F461E0C8CD65
:10174000EFE1F0E0F0934B03E0934A03DDCFE6E8EE
:10175000F0E08491833019F140F48130B1F08230AF
:10176000C9F0C038D10554F7B2CD873011F18830B7
:1017700041F18430B1F780918000806280938000D5
:10178000D0938B00C0938A00A6CD84B5806884BDB9
:1017900017BDA1CD84B5806284BD18BD9CCD80915C
:1017A0008000806880938000D0938900C093880077
:1017B00092CD8091B00080688093B0001093B30008
:1017C0008ACD8091B00080628093B0001093B40005
:1017D00082CDEE0FFF1F0590F491E02D09940F9339
:1017E0001F93CF93DF938230910510F482E090E055
:1017F000E0912E04F0912F0430E020E0B0E0A0E072
:10180000309799F42115310509F44AC0281B390B8A
:1018100024303105D8F58A819B816115710589F1E4
:10182000FB0193838283FE0111C0408151810281BB
:10183000138148175907E0F04817590799F4109792
:1018400061F012960C93129713961C933296CF0167
:10185000DF91CF911F910F91089500932E04109363
:101860002F04F4CF2115310551F04217530738F0FA
:10187000A901DB019A01BD01DF01F801C1CFEF0130
:10188000F9CF90932F0480932E04CDCFFE01E20F69
:10189000F31F819391932250310939832883D7CF45
:1018A00020912C0430912D04232B41F42091070129
:1018B0003091080130932D0420932C0420910501D0
:1018C000309106012115310541F42DB73EB7409105
:1018D000090150910A01241B350BE0912C04F09171
:1018E0002D04E217F307A0F42E1B3F0B281739072E
:1018F00078F0AC014E5F5F4F2417350748F04E0F6C
:101900005F1F50932D0440932C04819391939FCF9C
:10191000F0E0E0E09CCFCF93DF930097E9F0FC018B
:10192000329713821282A0912E04B0912F04ED0100
:1019300030E020E01097A1F420813181820F931FC5
:1019400020912C0430912D042817390709F061C02B
:10195000F0932D04E0932C04DF91CF910895EA01D8
:10196000CE17DF07E8F54A815B819E0141155105DD
:10197000B1F7E901FB83EA8349915991C40FD51F5F
:10198000EC17FD0761F4808191810296840F951F09
:10199000E90199838883828193819B838A83F0E024
:1019A000E0E012968D919C9113970097B9F52D91D7
:1019B0003C911197CD010296820F931F20912C0428
:1019C00030912D042817390739F6309751F51092C8
:1019D0002F0410922E04B0932D04A0932C04BCCF9E
:1019E000D383C28340815181840F951FC817D907C3
:1019F00061F44E5F5F4F88819981480F591F518371
:101A000040838A819B81938382832115310509F06C
:101A1000B0CFF0932F04E0932E049ECFFD01DC01A4
:101A2000C0CF13821282D7CFB0E0A0E0EAE1FDE0A0
:101A30000C94E80D8C01009751F4CB010E94EF0B40
:101A40008C01C801CDB7DEB7E0E10C94040EFC01B7
:101A5000E60FF71F9C0122503109E217F30708F443
:101A60009DC0D901CD91DC911197C617D70798F089
:101A7000C530D10530F3CE0104978617970708F3D8
:101A8000C61BD70B2297C193D1936D937C93CF0143
:101A90000E948B0CD6CF5B01AC1ABD0A4C018C0E98
:101AA0009D1EA0912E04B0912F04512C412CF12C9D
:101AB000E12C109731F580912C0490912D0488151C
:101AC000990509F05CC04616570608F058C0809189
:101AD000050190910601009741F48DB79EB74091A2
:101AE000090150910A01841B950BE817F90708F0CA
:101AF00055C0F0932D04E0932C04F90171836083A9
:101B0000A0CF8D919C91119712966C90129713967D
:101B10007C901397A815B90559F56C0142E0C40EE5
:101B2000D11CCA14DB0420F1AC014A195B09DA01AB
:101B30001296159780F06282738251834083D90197
:101B40006D937C93E114F10471F0D7011396FC932B
:101B5000EE93129776CF22968C0F9D1FF9019183F9
:101B60008083F301EFCFF0932F04E0932E0469CF2D
:101B70004816590608F42C017D01D3019ACFCB01F8
:101B80000E94EF0B7C01009749F0AE01B8010E9462
:101B9000D60DC8010E948B0C870153CF10E000E0E6
:101BA00050CF81E090E0F8940C941D0EFB01DC0115
:101BB00002C001900D9241505040D8F70895FB01AA
:101BC000DC0101900D920020E1F708952F923F92E1
:101BD0004F925F926F927F928F929F92AF92BF923D
:101BE000CF92DF92EF92FF920F931F93CF93DF93E9
:101BF000CDB7DEB7CA1BDB0B0FB6F894DEBF0FBE46
:101C0000CDBF09942A88398848885F846E847D8492
:101C10008C849B84AA84B984C884DF80EE80FD8094
:101C20000C811B81AA81B981CE0FD11D0FB6F8940A
:101C3000DEBF0FBECDBFED010895F894FFCF016C5C
:101C4000016C0100003004800000C0C101C3030228
:101C5000C2C60607C705C5C404CC0C0DCD0FCFCE38
:101C60000E0ACACB0BC90908C8D81819D91BDBDA68
:101C70001A1EDEDF1FDD1D1CDC14D4D515D7171688
:101C8000D6D21213D311D1D010F03031F133F3F298
:101C90003236F6F737F53534F43CFCFD3DFF3F3E78
:101CA000FEFA3A3BFB39F9F83828E8E929EB2B2A08
:101CB000EAEE2E2FEF2DEDEC2CE42425E527E7E6C8
:101CC0002622E2E323E12120E0A06061A163A3A238
:101CD0006266A6A767A56564A46CACAD6DAF6F6EB8
:101CE000AEAA6A6BAB69A9A86878B8B979BB7B7AE8
:101CF000BABE7E7FBF7DBDBC7CB47475B577B7B608
:101D00007672B2B373B17170B050909151935352D7
:101D10009296565797559594549C5C5D9D5F9F9EF7
:101D20005E5A9A9B5B99595898884849894B8B8A87
:101D30004A4E8E8F4F8D4D4C8C4484854587474647
:101D400086824243834181804000C1814001C0803E
:101D50004101C0804100C1814001C0804100C1817A
:101D60004000C1814001C0804101C0804100C1816B
:101D70004000C1814001C0804100C1814001C0805C
:101D80004101C0804100C1814001C0804100C1814A
:101D90004000C1814001C0804100C1814001C0803C
:101DA0004101C0804100C1814000C1814001C0802B
:101DB0004101C0804100C1814001C0804100C1811A
:101DC0004000C1814001C0804101C0804100C1810B
:101DD0004000C1814001C0804100C1814001C080FC
:101DE0004101C0804100C1814000C1814001C080EB
:101DF0004101C0804100C1814001C0804100C181DA
:101E00004000C1814001C0804100C1814001C080CB
:101E10004101C0804100C1814001C0804100C181B9
:101E20004000C1814001C0804101C0804100C181AA
:101E30004000C1814001C0804100C1814001C0809B
:101E40004101C0804100C181400001020304050737
:101E5000090C0F12161B20262C333A434C56606C8B
:101E6000788694A3B4C5D8EBFF000000000D026D86
:101E7000019A015A02CB01A901BD01000000007ABC
:081E80000268014C414D5000C5
:103800000C94341C0C94511C0C94511C0C94511CA1
:103810000C94511C0C94511C0C94511C0C94511C74
:103820000C94511C0C94511C0C94511C0C94511C64
:103830000C94511C0C94511C0C94511C0C94511C54
:103840000C94511C0C94511C0C94511C0C94511C44
:103850000C94511C0C94511C0C94511C0C94511C34
:103860000C94511C0C94511C11241FBECFEFD4E0BA
:10387000DEBFCDBF11E0A0E0B1E0E4EAFFE302C0AB
:1038800005900D92A230B107D9F712E0A2E0B1E0A5
:1038900001C01D92AD30B107E1F70E94361D0C94B6
:1038A000D01F0C94001C982F9595959595959595FE
:1038B000905D8F708A307CF0282F295A8091C0004B
:1038C00085FFFCCF9093C6008091C00085FFFCCFA0
:1038D0002093C6000895282F205DF0CF982F809167
:1038E000C00085FFFCCF9093C6000895EF92FF9231
:1038F0000F931F93EE24FF2487018091C00087FD62
:1039000017C00894E11CF11C011D111D81E4E8168B
:1039100082E4F8068FE0080780E0180770F3E09172
:103920000401F091050109958091C00087FFE9CF5E
:103930008091C6001F910F91FF90EF9008950E9413
:10394000761C982F8091C00085FFFCCF9093C60015
:1039500091362CF490330CF09053892F089597559D
:10396000892F08951F930E949F1C182F0E949F1C4F
:103970001295107F810F1F910895882351F0982F81
:1039800091508091C00087FFFCCF8091C6009923A1
:10399000B9F708951F93182F0E94761C803249F0C2
:1039A000809103018F5F809303018530C1F01F91E7
:1039B00008958091C00085FFFCCF84E18093C6000C
:1039C0008091C00085FFFCCF1093C6008091C0009D
:1039D00085FFFCCF80E18093C6001F910895E091A0
:1039E0000401F091050109951F9108950E94761C2C
:1039F000803241F0809103018F5F80930301853015
:103A000081F008958091C00085FFFCCF84E1809310
:103A1000C6008091C00085FFFCCF80E18093C60086
:103A20000895E0910401F09105010995089510921F
:103A30000A028823D1F090E040E951E02D9A28EE67
:103A400033E0FA013197F1F721503040D1F72D984A
:103A500028EE33E0FA013197F1F721503040D1F7E9
:103A60009F5F981758F380930A0208953F924F92F0
:103A70005F926F927F928F929F92AF92BF92CF92FE
:103A8000DF92EF92FF920F931F93CF93DF9300008B
:103A900083E38093C4001092C50088E18093C10045
:103AA00086E08093C2005098589A259A81E00E943F
:103AB000171D44E1F42E3EE1E32E24E9D22E96E0D8
:103AC000C92E80E1B82EAA24A39401E4902E16E515
:103AD000812EB2E57B2EA0E26A2EF9E45F2EE3E5AB
:103AE0004E2E70E5372E0E94761C8033B1F1813363
:103AF00009F441C0803409F479C0813409F48CC0E0
:103B0000823471F1853409F47BC0803531F182351E
:103B100021F1813511F1853509F48DC0863509F41F
:103B20009DC0843609F4AEC0843709F41BC18537C3
:103B300009F485C1863709F47AC0809103018F5F4B
:103B400080930301853079F6E0910401F09105013D
:103B500009950E94761C803351F60E94F61CC3CF53
:103B600093E18091C00087FFFCCF8091C60099232C
:103B7000A1F39150F6CF0E94761C8032F1F680912D
:103B8000C00085FFFCCFF092C6008091C00085FF89
:103B9000FCCF9092C6008091C00085FFFCCF809240
:103BA000C6008091C00085FFFCCF7092C600809156
:103BB000C00085FFFCCF6092C6008091C00085FFE9
:103BC000FCCF5092C6008091C00085FFFCCF409290
:103BD000C6008091C00085FFFCCF3092C600809166
:103BE000C00085FFFCCFB092C6007DCF0E94761C3E
:103BF000863808F4B2CF0E94761C0E94F61C73CF60
:103C000094E08091C00087FFFCCF8091C60099238B
:103C100009F4A3CF9150F5CF0E94761C8038D1F0E3
:103C2000813861F1823809F499C0883979F080E0EF
:103C30000E94CA1C58CF0E94761C809306010E94E5
:103C4000761C809307010E94F61C4DCF83E00E94F2
:103C5000CA1C49CF82E00E94CA1C45CF0E94761C34
:103C6000803309F486C192E08091C00087FFFCCFC9
:103C70008091C6009923D9F29150F6CF81E00E943D
:103C8000CA1C31CF0E94761C809309020E94761CC8
:103C90008093080280910C028E7F80930C020E9418
:103CA000761C853429F480910C02816080930C028B
:103CB0008091080290910902892B89F000E010E0C0
:103CC0000E94761CF801E85FFE4F80830F5F1F4F54
:103CD00080910802909109020817190788F30E9441
:103CE000761C803209F029CF80910C0280FFD1C070
:103CF0004091060150910701440F551F5093070151
:103D000040930601A0910802B09109021097C9F0F2
:103D1000E8E0F1E09A01BD016E0F7F1FF999FECF37
:103D200032BD21BD819180BDFA9AF99A2F5F3F4F34
:103D3000E617F70799F74A0F5B1F50930701409367
:103D400006018091C00085FFFCCFF092C6008091F3
:103D5000C00085FFFCCFB092C600C5CE80E10E94B6
:103D6000CA1CC1CE0E94761C809309020E94761C58
:103D7000809308028091060190910701880F991F96
:103D800090930701809306010E94761C853409F404
:103D90007AC080910C028E7F80930C020E94761C68
:103DA000803209F0A0CE8091C00085FFFCCFF09258
:103DB000C600A0910802B09109021097B9F1809154
:103DC0000C02182F1170082F0270E0910601F0917B
:103DD00007019F012F5F3F4FB90140E050E01123E1
:103DE000B1F4002339F494918091C00085FFFCCF99
:103DF0009093C6004F5F5F4FCB010196F9014A17C0
:103E00005B0780F4BC012F5F3F4F112351F3F999F9
:103E1000FECFF2BDE1BDF89A90B58091C00085FF5C
:103E2000FCCFE6CF70930701609306018091C0003C
:103E300085FDD9CE8091C00085FFF8CFD4CE0E94F9
:103E4000761C803209F079CE8091C00085FFFCCFCE
:103E5000F092C6008091C00085FFFCCFE092C600C2
:103E60008091C00085FFFCCFD092C6008091C00039
:103E700085FFFCCFC092C6008091C00085FFFCCFBB
:103E8000B092C60030CE80910C02816080930C020B
:103E900085CF809107018823880F880B8A21809322
:103EA0000B028091060190910701880F991F909352
:103EB0000701809306018091080280FF09C080916C
:103EC00008029091090201969093090280930802DA
:103ED000F894F999FECF1127E0910601F0910701BE
:103EE000C8E0D1E08091080290910902103091F46D
:103EF0000091570001700130D9F303E0009357009F
:103F0000E8950091570001700130D9F301E1009369
:103F10005700E89509901990009157000170013001
:103F2000D9F301E000935700E8951395103498F009
:103F300011270091570001700130D9F305E000937B
:103F40005700E8950091570001700130D9F301E165
:103F500000935700E8953296029709F0C7CF1030CA
:103F600011F00296E5CF11248091C00085FFE9CEC3
:103F7000ECCE0E94761C0E94761C182F0E94761CA4
:103F8000112351F0113021F086E00E94CA1CABCD04
:103F900084E90E94CA1CA7CD8EE10E94CA1CA3CD51
:063FA000F894FFCF800041
:00000001FF
