:100000000C9462000C948A000C948A000C948A0070
:100010000C948A000C948A000C948A000C948A0038
:100020000C948A000C948A000C948A000C948A0028
:100030000C948A000C948A000C948A000C948A0018
:100040000C9446050C948A000C94B6050C9490050B
:100050000C948A000C948A000C948A000C948A00F8
:100060000C948A000C948A000000000023002600F3
:10007000290000000000240027002A0000000000E2
:10008000250028002B0004040404040404040202D4
:100090000202020203030303030301020408102007
:1000A0004080010204081020010204081020000012
:1000B0000008000201000003040700000000000027
:1000C0000000E80511241FBECFEFD8E0DEBFCDBF92
:1000D00013E0A0E0B1E0E6E0FEE102C005900D9281
:1000E000AC32B107D9F724E0ACE2B3E001C01D9215
:1000F000A233B207E1F710E0C2E6D0E004C02197D6
:10010000FE010E94AC0CC136D107C9F70E94590606
:100110000C94010F0C940000833081F028F481309E
:1001200099F08230A9F008958730A9F08830C9F09D
:100130008430B1F4809180008F7D03C08091800075
:100140008F7780938000089584B58F7784BD08955C
:1001500084B58F7DFBCF8091B0008F778093B00006
:1001600008958091B0008F7DF9CF1F93CF93DF93D7
:10017000282F30E0F901E255FF4F8491F901E6564E
:10018000FF4FD491F901EA57FF4FC491CC23A9F056
:10019000162F81110E948C00EC2FF0E0EE0FFF1F54
:1001A000E458FF4FA591B4918FB7F894EC911111D9
:1001B00008C0D095DE23DC938FBFDF91CF911F91D4
:1001C0000895DE2BF8CFCF93DF9390E0FC01E65645
:1001D000FF4F24918A579F4FFC0184918823C9F0D7
:1001E00090E0880F991FFC01EE58FF4FA591B49144
:1001F000FC01E458FF4FC591D49161110DC09FB728
:10020000F8948C91209582238C93888128232883CD
:100210009FBFDF91CF910895623051F49FB7F8945A
:100220003C91822F809583238C93E8812E2BEFCFF6
:100230008FB7F894EC912E2B2C938FBFEACF862F9B
:10024000642F0C94E3003FB7F8948091540390918D
:100250005503A0915603B091570326B5A89B05C03E
:100260002F3F19F00196A11DB11D3FBFBA2FA92F35
:10027000982F8827BC01CD01620F711D811D911D32
:1002800042E0660F771F881F991F4A95D1F708959E
:100290008F929F92AF92BF92CF92DF92EF92FF9296
:1002A0004B015C010E9423016B017C010E94230130
:1002B0006C197D098E099F09683E7340810591057F
:1002C000A8F321E0821A9108A108B10888EEC80EAF
:1002D00083E0D81EE11CF11C81149104A104B10437
:1002E00029F7FF90EF90DF90CF90BF90AF909F9055
:1002F0008F9008952FB7F894609150037091510337
:1003000080915203909153032FBF0895AF92BF92F3
:10031000CF92DF92EF92FF920F931F93CF93DF93D1
:100320006C017B018B01040F151FEB015E01AE1800
:10033000BF08C017D10759F06991D601ED91FC9122
:100340000190F081E02DC6010995892B79F7C5014F
:10035000DF91CF911F910F91FF90EF90DF90CF90A1
:10036000BF90AF900895FC01538D448D252F30E050
:10037000842F90E0821B930B541710F0CF960895B2
:1003800001970895FC01918D828D981761F0A28DDF
:10039000AE0FBF2FB11D5D968C91928D9F5F9F73A5
:1003A000928F90E008958FEF9FEF0895FC01918D5B
:1003B000828D981731F0828DE80FF11D858D90E0C8
:1003C00008958FEF9FEF0895FC01918D228D892F65
:1003D00090E0805C9F4F821B91098F73992708954D
:1003E0008CE793E00E94E40121E0892B09F420E0EE
:1003F000822F089580E090E0892B29F00E94F0017F
:1004000081110C9400000895FC01A48DA80FB92F50
:10041000B11DA35ABF4F2C91848D90E001968F732C
:100420009927848FA689B7892C93A089B1898C914B
:10043000837080648C93938D848D981306C002889A
:10044000F389E02D80818F7D80830895EF92FF9264
:100450000F931F93CF93DF93EC0181E0888F9B8DE7
:100460008C8D98131AC0E889F989808185FF15C0A1
:100470009FB7F894EE89FF896083E889F9898081C4
:100480008370806480839FBF81E090E0DF91CF9193
:100490001F910F91FF90EF900895F62E0B8D10E0B5
:1004A0000F5F1F4F0F731127E02E8C8D8E110CC024
:1004B0000FB607FCFACFE889F989808185FFF5CF6F
:1004C000CE010E940402F1CFEB8DEC0FFD2FF11D48
:1004D000E35AFF4FF0829FB7F8940B8FEA89FB89AC
:1004E00080818062CFCFCF93DF93EC01888D88230A
:1004F000B9F0AA89BB89E889F9898C9185FD03C087
:10050000808186FD0DC00FB607FCF7CF8C9185FF6B
:10051000F2CF808185FFEDCFCE010E940402E9CFAA
:10052000DF91CF910895CF93DF93FC01218930E0D3
:10053000F901E255FF4F8491F901E656FF4FD4913E
:10054000F901EA57FF4FC491CC2379F081110E9441
:100550008C00EC2FF0E0EE0FFF1FE859FF4FA59144
:10056000B491EC91ED2381E009F480E08170DF919A
:10057000CF9108951F93CF93DF93EC01162F60E086
:10058000812F0E94E300198B1886CE010E949302EE
:10059000882319F08885836088870E947A016A839E
:1005A0007B838C839D83DF91CF911F910895CF92A0
:1005B000DF92EF92FF920F931F93CF93DF93EC01A3
:1005C00088858B7F8887CE010E949302182F8885AB
:1005D000869581701817B9F00E947A016A837B832F
:1005E0008C839D83888592E089278887888582FB14
:1005F000882780F9DF91CF911F910F91FF90EF90A5
:10060000DF90CF9008950E947A01CA80DB80EC8051
:10061000FD80AB01BC014C195D096E097F098E811B
:100620009F81B0E0A0E0481759076A077B07F0F206
:10063000888581701817D1F20E947A016A837B83C2
:100640008C839D83888591E08927846088870E94B8
:100650007A0109851A852B853C85601B710B820BFD
:10066000930B6D877E878F87988B0E947A016987AD
:100670007A878B879C87BACFFC0180819181009714
:1006800049F0FC01208131812617370719F0868156
:100690009781F5CF0895CF93DF93EB01BC0189E1FA
:1006A00094E00E943C03009789F0DC011496ED91E0
:1006B000FC91309759F080819181C817D90750F08B
:1006C00081E0228133812C173D0708F080E0DF9123
:1006D000CF91089581E0FBCF0E943C03009721F069
:1006E000FC0182819381089590E080E00895CF928B
:1006F000DF92EF92FF920E947A01C0902E03D09079
:100700002F03E0903003F09031039B01AC012C19D2
:100710003D094E095F0969017A01A4E6B0E00E9433
:10072000B90C28E139E740E050E00E948A0C2536F8
:1007300031054105510520F024E630E040E050E06D
:1007400080912C0390912D0360913203613089F5E3
:10075000821B930B97FF02C090E080E090933803D8
:100760008093370338E1C31639E7D306E104F10477
:10077000D8F0613041F582E0809332031092380363
:100780001092370360E08EE00E94B50060E08FE0D9
:100790000E94B50010922E0310922F031092300386
:1007A0001092310310924D03FF90EF90DF90CF90A5
:1007B0000895633099F6820F931F8536910574F280
:1007C00084E690E0CBCF6330E9F684E08093320397
:1007D00084E690E09093380380933703D3CF60E0B2
:1007E0008EE00E94B50062E370E080E090E00E943D
:1007F000480161E08FE00E94B5008FEF9FEF90937A
:10080000010180930001109233031092340310927F
:1008100035031092360383E08093320380913703CF
:100820009091380390932D0380932C030E947A01BA
:1008300060932E0370932F038093300390933103C2
:1008400081E080934D030C947A01CF9360E08FE0B8
:100850000E94B50062E370E080E090E00E944801F1
:1008600061E08EE00E94B5008FEF9FEF9093010151
:1008700080930001109233031092340310923503D9
:1008800010923603C1E0C0933203809137039091F8
:10089000380390932D0380932C030E947A01609378
:1008A0002E0370932F038093300390933103C093F2
:1008B0004D03CF910C947A0160E08EE00E94B50068
:1008C00060E08FE00E94B50080912E0390912F038D
:1008D000A0913003B0913103892B8A2B8B2B11F01F
:1008E0000E94770310922E0310922F031092300370
:1008F0001092310310923303109234031092350397
:10090000109236038FEF9FEF9093010180930001C7
:1009100010924D03109232030895CF93DF93EC01B0
:1009200088E090E00E94D30CFC01D183C083138245
:100930001282158214821782168280911904909176
:100940001A04892B59F4F0931A04E0931904F093D4
:100950001C04E0931B04DF91CF910895A0911B0428
:10096000B0911C041796FC93EE931697F0CF0F935B
:100970001F93CF93DF93182F062FC9E1D4E082E0B5
:10098000888762E070E08E819F810E94F80DFC01F3
:100990009F838E8310581083018383E08987DF91C2
:1009A000CF911F910F910895AF92BF92DF92EF9276
:1009B000FF920F931F93CF93DF93D82E7B018A0171
:1009C000BA016F5F7F4F660F6093210470E08091E2
:1009D0001F04909120040E94F80D909320048093AE
:1009E0001F0464E00097B9F1FC01D082209121043A
:1009F00022502183F3E081E395E7DF1202C081E416
:100A00009CE9D0E0C0E0E80EF91E0C171D0779F153
:100A10005701AC0EBD1EB50189E194E00E943C0374
:100A2000892BC1F0B50189E194E00E946C03219605
:100A30009E01220F331FA0911F04B0912004A20F2A
:100A4000B31F9C93E0911F04F0912004E20FF31F69
:100A50008183DBCF62E08D2DDF91CF911F910F91CC
:100A6000FF90EF90DF90BF90AF900C94B70483E0BD
:100A700080932204DF91CF911F910F91FF90EF900F
:100A8000DF90BF90AF9008950E94B50E1F920F9215
:100A90000FB60F9211242F933F938F939F93AF9391
:100AA000BF938091500390915103A0915203B09154
:100AB000530330914F0323E0230F2D3758F5019650
:100AC000A11DB11D20934F038093500390935103B8
:100AD000A0935203B0935303809154039091550314
:100AE000A0915603B09157030196A11DB11D8093AB
:100AF000540390935503A0935603B0935703BF91AB
:100B0000AF919F918F913F912F910F900FBE0F90BA
:100B10001F90189526E8230F0296A11DB11DD2CF74
:100B20001F920F920FB60F9211242F933F934F9362
:100B30005F936F937F938F939F93AF93BF93EF9345
:100B4000FF938CE793E00E940402FF91EF91BF9125
:100B5000AF919F918F917F916F915F914F913F9155
:100B60002F910F900FBE0F901F9018951F920F920C
:100B70000FB60F9211242F938F939F93EF93FF93B0
:100B8000E0918C03F0918D038081E0919203F091CC
:100B9000930382FD1BC09081809195038F5F8F73BB
:100BA00020919603821741F0E0919503F0E0E4581C
:100BB000FC4F958F80939503FF91EF919F918F91BB
:100BC0002F910F900FBE0F901F9018958081F4CF3A
:100BD000ECE7F3E01382128288EE93E0A0E0B0E04D
:100BE00084839583A683B78380E193E09183808398
:100BF00085EC90E09587848784EC90E097878687E2
:100C000080EC90E0918B808B81EC90E0938B828BD9
:100C100082EC90E0958B848B86EC90E0978B868BB2
:100C2000118E128E138E148EA9E1B4E011961C92CF
:100C30001E9213961C921E92129715961C921E924B
:100C4000149717961C921E92169718961C92189736
:100C500019961C9219971B961C921E921A971D9614
:100C6000FC93EE931C978FEF9FEF1F969C938E93B0
:100C70001E9783E350968C93EAE6F3E01282138288
:100C8000148215822AE030E037832683108682E2C0
:100C900093E091838083118AE8E5F3E01282138266
:100CA0001482158237832683108691838083118A6C
:100CB0000895789484B5826084BD84B5816084BDD4
:100CC00085B5826085BD85B5816085BD80916E00EA
:100CD000816080936E00109281008091810082601B
:100CE0008093810080918100816080938100809158
:100CF00080008160809380008091B1008460809347
:100D0000B1008091B00081608093B00080917A0042
:100D1000846080937A0080917A00826080937A0068
:100D200080917A00816080937A0080917A00806857
:100D300080937A001092C100CEE088E10FB6F8945B
:100D4000A895809360000FBEC093600060E087E0CC
:100D50000E94E30060E088E00E94E30060E089E038
:100D60000E94E30060E08AE00E94E30060E087E028
:100D70000E94B50060E088E00E94B50060E089E074
:100D80000E94B50060E08AE00E94B50061E08EE05C
:100D90000E94E30061E08FE00E94E30060E08EE0EB
:100DA0000E94B50060E08FE00E94B50061E170E054
:100DB0008AE693E00E94BA0209E110E01093710301
:100DC0000093700360E170E088E593E00E94BA024E
:100DD00010935F0300935E03E0918C03F0918D0309
:100DE00082E08083E0918803F09189031082E09192
:100DF0008A03F0918B038FEC808310929403E0912F
:100E00009003F0919103C083E0918E03F0918F03E2
:100E1000808180618083E0918E03F0918F038081D7
:100E200088608083E0918E03F0918F0380818068D9
:100E30008083E0918E03F0918F0380818F7D80838A
:100E4000809127049091280497FD08C061E00E94DA
:100E5000E30060E0809127040E94B50086EB96E0F5
:100E600090932B0480932A048AEA9FE090932D04A8
:100E700080932C0480911D0490911E040E946F0D9C
:100E800086E090E00E94D30C90931E0480931D0492
:100E9000009721F066E273E00E94C30E81E49CE9B2
:100EA0000E948D0482E49CE90E948D0483E49CE905
:100EB0000E948D0484E49CE90E948D0485E49CE9F1
:100EC0000E948D04F4E04F2EA8950E947A011092A2
:100ED00021048091250490912604DC01ED91FC9180
:100EE0000084F185E02D099540912104242F30E004
:100EF00028173907E4F48091250490912604EC0129
:100F0000E881F9810084F185E02D09958093210421
:100F100080912A0490912B0482309105D0F2880FA1
:100F2000991F880F991F05970197F1F7D2CF442396
:100F300009F498C1C9010E94D30C909320048093B6
:100F40001F04C0E080912104C817A0F480912504FB
:100F500090912604DC01ED91FC910284F385E02D53
:100F60000995E0911F04F0912004EC0FF11D80839E
:100F7000CF5FE8CF00911F0410912004E801588052
:100F8000552021F090912904591264C19DEF980FCA
:100F90005801DFEFAD1ABD0A652D609570E0FB01C9
:100FA000E45FFD4F40814095645F7E4FFB015081BF
:100FB000F501915070F021914227242F30E0D901A2
:100FC000A45FBD4F4C914527245F3E4FD9015C91F2
:100FD000F0CF800F912F911DFC0132972081019756
:100FE000EC018881922F45275427452784179507C0
:100FF00009F030C1F801F180C281D381DC27CD270F
:10100000DC27C480D580DC24CD24DC24EFEFEF0D79
:10101000E13108F0E1C3F0E0E05FF74F0C94AC0C75
:10102000BE0ABE0A1009B20A310B2108EC0BEC0B08
:10103000EC0BEC0BEC0BEC0BEC0BEC0B4F0B6C0818
:10104000B60BCF5BD346B601CE010E944B0388237B
:1010500029F063E086E00E94B704EFC0BE0189E199
:1010600094E00E943C03009711F462E0F3CFDC01AE
:101070001396DC92CE92129782E080932204552040
:1010800009F4DDC000911F04109120048091270411
:101090009091280497FD09C061E00E94B50061E0CD
:1010A00070E080E090E00E944801C0E0809125045B
:1010B00090912604DC01ED91FC9120912104C2174E
:1010C00008F0C6C3D801AC0FB11D0190F081E02D2E
:1010D0006C910995CF5FEACFC60101978B379105D7
:1010E00040F4F8012681C601880F991F28171906B8
:1010F00019F063E080E1AFCFF12CE12C1E018FEB02
:10110000281A83E6380AB1016E0D7F1D89E194E04B
:101110000E943C03892B11F462E0ECCF9FEFE91AA7
:10112000F90ACE14DF0479F75801D12CC12CD5016E
:1011300017968C91179718966C90782E41018C0C0D
:101140009D1CB301C4010E944B03811182CFB401E5
:1011500089E194E00E943C03009719F0FC0173823E
:101160006282FFEFCF1ADF0A22E0A20EB11CEC145C
:10117000FD04E9F6C8010E946F0D85E0809321040B
:1011800085E090E00E94D30CFC01909320048093B2
:101190001F0464E0892B09F4ADCF80E18083D18303
:1011A000C2831382E48283E080932204552009F4F1
:1011B00046C0C0911F04D0912004809127049091D3
:1011C000280497FD09C061E00E94B50061E070E06D
:1011D00080E090E00E9448018091250490912604CF
:1011E000DC01ED91FC910190F081E02D60912904EA
:1011F000099510E0609121048091250490912604C6
:10120000DC01ED91FC910190F081E02D161708F0C2
:10121000E5C2DE01A10FB11D6C9109951F5FEACFF8
:10122000C60101978D37910518F063E083E013CF75
:10123000A601BE0183E00E94D404511003C081E0E6
:101240008093220480912204833009F4B2CF82304B
:1012500009F418CF80911F04909120040E946F0D13
:10126000109221048AE693E00E94D70288E593E079
:101270000E94D7028091720382FF05C08170809323
:101280000401109205018091600382FF05C0817006
:101290008093020110920301009104011091050155
:1012A000C0910201D09103010115110529F4209785
:1012B00019F481E080934E0380914E038823A1F0BE
:1012C0000115110589F0209779F010924E03809155
:1012D0004D03882309F4D8C20E945C0462E370E0E5
:1012E00080E090E00E9448018091720382FF10C06C
:1012F000012B09F0D7C20E94250481E080934B03A3
:1013000010924C0362E370E080E090E00E9448019C
:101310008091600382FF10C0CD2B09F0CDC20E94E6
:10132000EF0381E080934B0380934C0362E370E012
:1013300080E090E00E94480161E47CE989E194E06A
:101340000E946C03EC0190933E0380933D0363E4A1
:101350007CE989E194E00E946C03909342038093BE
:10136000410364E47CE989E194E00E946C038C0110
:10137000909344038093430380913B0390913C03FB
:10138000C817D90751F0C230D10509F09FC20E9499
:101390002504D0933C03C0933B0380913903909183
:1013A0003A030817190709F444C0902F812F053616
:1013B000110514F094E680E0C92FD82FD7FF02C0A2
:1013C000D0E0C0E0A0903703B0903803AC16BD0663
:1013D00061F1DE01AA19BB09B7FF03C0B195A19560
:1013E000B10928E139E70E94B20C24E630E040E080
:1013F00050E00E948A0C69017A01AC16BD060CF01F
:1014000071C20E94EF03D0930101C09300010E94BA
:101410007A01C60ED71EE81EF91EC0923303D09281
:101420003403E0923503F092360310933A030093AD
:101430003903C0910001D0910101CF3FDC0771F168
:10144000C0903303D0903403E0903503F09036031E
:10145000C114D104E104F10409F10E947A016C1570
:101460007D058E059F05D0F0D0933803C0933703D8
:10147000EFEFFFEFF0930101E093000110923303CF
:10148000109234031092350310923603209709F01E
:101490002CC282E0809332030E945C0480914D0351
:1014A000882351F1C0902E03D0902F03E090300399
:1014B000F0903103C114D104E104F104E9F00E9479
:1014C0007A01F8E1CF0EF9E7DF1EE11CF11C6C1583
:1014D0007D058E059F0580F00E9477038091320381
:1014E000813009F00BC282E08093320310923803FE
:1014F000109237030E945C04009137031091380367
:101500001093460300934503C09132030C2E000C48
:10151000DD0BD0934003C0933F0362E47CE989E193
:1015200094E00E943C03009729F0DC011396DC93C1
:10153000CE93129765E47CE989E194E00E943C0334
:10154000009719F0EC011B830A83E0E0F0E0EF2B39
:1015500009F4BACC0E94F001882309F4B3CC0E94AC
:101560000000B0CCC60101978D37910518F063E0FB
:1015700084E071CDA601BE0184E05DCEC601019775
:1015800063E0803D974008F06AC0C60163E096952D
:1015900087956A95E1F7960127703327232B09F089
:1015A00057C08E5F809321046091210470E0C801D0
:1015B0000E94F80D9093200480931F0464E000972C
:1015C00009F44DC0FC01F0822091210422502183B6
:1015D000F1E061E070E0FF1611F061E177E210E008
:1015E00000E0C60FD71F5E01A00EB11EB50189E154
:1015F00094E00E943C03892B89F1B50189E194E0D4
:101600000E946C03202F277041E050E060E070E002
:1016100004C0440F551F661F771F2A95D2F7F801A3
:1016200053E0F695E7955A95E1F7329620911F041D
:1016300030912004E20FF31F208181159F4F51F458
:10164000422B40830F5F1F4FC016D10661F6ABCD12
:101650008D5FA8CF409524232083F4CF62E08F2DA7
:10166000FACCC1144FEFD40631F063E0CD28A9F4D1
:1016700010E000E002C000E01FEFBE016F5F7F4F8F
:1016800089E194E00E943C03009731F0DC0113965D
:101690001C930E931297F0CC62E085E0DCCCC6017F
:1016A00043E0969587954A95E1F796012770332791
:1016B000232B09F00196960121503109203B374038
:1016C00008F052C0F80126812817190609F04CC00D
:1016D000F12CE12C4E01FFEF8F1A9F0AB4016E0D21
:1016E0007F1D89E194E00E943C030097D1F1F7014E
:1016F00033E0F695E7953A95E1F7EA0DFB1D268173
:1017000030E04E2D477002C0359527954A95E2F797
:1017100020FF24C020E03FEFDC0113963C932E9382
:101720001297BFEFEB1AFB0ACE14DF04B9F685E07F
:101730008093210465E070E0C8010E94F80DFC016F
:101740009093200480931F0464E0892B59F08FE06C
:101750008083D183C283D382C48225CD30E020E050
:10176000DBCF62E08FE077CC63E0FCCF40922104D6
:10177000A0911D04B0911E04109741F0FD0101904D
:101780000020E9F7EA1BED5FE0932104609121045A
:1017900070E0C8010E94F80DFC0190932004809332
:1017A0001F0464E081E1309709F455CC81E1808326
:1017B000809121048250818312828FEF8383609114
:1017C0001D0470911E046115710509F4ECCCCF0164
:1017D00004960E94C30EE7CC61E041CF40912904FA
:1017E000409550E0DA01A45FBD4FCC917C2F7095FD
:1017F000445F5E4FEA014881A0911F04B09120042C
:10180000615080F02D91C72FC2272C2F30E0E901C5
:10181000C45FDD4FC8817C2F7427245F3E4FE901F0
:101820004881EECFC42F672F0995809125049091B0
:101830002604DC01ED91FC910190F081E02D6C2FEC
:1018400009958091250490912604EC01E881F981A5
:101850000680F781E02D099580912C0490912D044C
:101860008230910538F0880F991F880F991F0597CE
:101870000197F1F7809127049091280497FDEACC15
:1018800060E00E94B500E6CC80914C03882339F0DB
:101890000E94EF0310924B030E947A011FCD0E9419
:1018A0002504F8CF80914B03882309F42BCD0E94A7
:1018B0005C0410924B0326CD80914B03882309F4DE
:1018C00035CD0E945C0410924B0330CDC430D1055D
:1018D00019F40E94EF035DCD209709F05ACD0E94C4
:1018E0005C0457CD0E9425048ECDC436D10519F471
:1018F00040923203D1CD10923203CECD833009F025
:10190000F9CD4092320324E630E03093380320933F
:101910003703F0CDA1E21A2EAA1BBB1BFD010DC09F
:10192000AA1FBB1FEE1FFF1FA217B307E407F5078F
:1019300020F0A21BB30BE40BF50B661F771F881F6B
:10194000991F1A9469F760957095809590959B0101
:10195000AC01BD01CF010895EE0FFF1F0590F4917A
:10196000E02D09940E94C40CB7FF0895821B930BCD
:1019700008950E94C40CA59F900DB49F900DA49F44
:10198000800D911D11240895A29FB001B39FC00145
:10199000A39F700D811D1124911DB29F700D811D9B
:1019A0001124911D08950F931F93CF93DF938230DD
:1019B000910510F482E090E0E0913004F091310460
:1019C00030E020E0B0E0A0E0309799F42115310537
:1019D00009F44AC0281B390B24303105D8F58A8117
:1019E0009B816115710589F1FB0193838283FE015F
:1019F00011C0408151810281138148175907E0F0DD
:101A00004817590799F4109761F012960C931297A2
:101A100013961C933296CF01DF91CF911F910F91B6
:101A200008950093300410933104F4CF211531054B
:101A300051F04217530738F0A901DB019A01BD01AB
:101A4000DF01F801C1CFEF01F9CF9093310480930A
:101A50003004CDCFFE01E20FF31F8193919322500A
:101A6000310939832883D7CF20912E0430912F0458
:101A7000232B41F4209108013091090130932F0468
:101A800020932E0420910601309107012115310584
:101A900041F42DB73EB740910A0150910B01241B30
:101AA000350BE0912E04F0912F04E217F307A0F418
:101AB0002E1B3F0B2817390778F0AC014E5F5F4FA4
:101AC0002417350748F04E0F5F1F50932F044093A3
:101AD0002E04819391939FCFF0E0E0E09CCFCF93D1
:101AE000DF930097E9F0FC01329713821282A091F4
:101AF0003004B0913104ED0130E020E01097A1F402
:101B000020813181820F931F20912E0430912F0468
:101B10002817390709F061C0F0932F04E0932E04D1
:101B2000DF91CF910895EA01CE17DF07E8F54A81EA
:101B30005B819E0141155105B1F7E901FB83EA8301
:101B400049915991C40FD51FEC17FD0761F48081AD
:101B500091810296840F951FE90199838883828180
:101B600093819B838A83F0E0E0E012968D919C91B3
:101B700013970097B9F52D913C911197CD010296DD
:101B8000820F931F20912E0430912F0428173907BC
:101B900039F6309751F51092310410923004B09319
:101BA0002F04A0932E04BCCFD383C28340815181E4
:101BB000840F951FC817D90761F44E5F5F4F888166
:101BC0009981480F591F518340838A819B81938358
:101BD00082832115310509F0B0CFF0933104E093F1
:101BE00030049ECFFD01DC01C0CF13821282D7CF1B
:101BF000B0E0A0E0EEEFFDE00C94CC0E8C0100977D
:101C000051F4CB010E94D30C8C01C801CDB7DEB7D3
:101C1000E0E10C94E80EFC01E60FF71F9C01225056
:101C20003109E217F30708F49DC0D901CD91DC9189
:101C30001197C617D70798F0C530D10530F3CE01FC
:101C400004978617970708F3C61BD70B2297C193F3
:101C5000D1936D937C93CF010E946F0DD6CF5B0122
:101C6000AC1ABD0A4C018C0E9D1EA0913004B0919F
:101C70003104512C412CF12CE12C109731F580913D
:101C80002E0490912F048815990509F05CC0461622
:101C9000570608F058C080910601909107010097FF
:101CA00041F48DB79EB740910A0150910B01841BFE
:101CB000950BE817F90708F055C0F0932F04E0934F
:101CC0002E04F90171836083A0CF8D919C911197AF
:101CD00012966C90129713967C901397A815B905DD
:101CE00059F56C0142E0C40ED11CCA14DB0420F18A
:101CF000AC014A195B09DA011296159780F06282ED
:101D0000738251834083D9016D937C93E114F10474
:101D100071F0D7011396FC93EE93129776CF22962B
:101D20008C0F9D1FF90191838083F301EFCFF09316
:101D30003104E093300469CF4816590608F42C01A9
:101D40007D01D3019ACFCB010E94D30C7C01009777
:101D500049F0AE01B8010E94BA0EC8010E946F0D91
:101D6000870153CF10E000E050CF81E090E0F8947D
:101D70000C94010FFB01DC0102C001900D92415057
:101D80005040D8F70895FB01DC0101900D9200202E
:101D9000E1F708952F923F924F925F926F927F9258
:101DA0008F929F92AF92BF92CF92DF92EF92FF926B
:101DB0000F931F93CF93DF93CDB7DEB7CA1BDB0B17
:101DC0000FB6F894DEBF0FBECDBF09942A883988BC
:101DD00048885F846E847D848C849B84AA84B984C3
:101DE000C884DF80EE80FD800C811B81AA81B981CF
:101DF000CE0FD11D0FB6F894DEBF0FBECDBFED01E3
:061E00000895F894FFCFE5
:101E0600FFFF0100010000003204800000C0C10194
:101E1600C30302C2C60607C705C5C404CC0C0DCD54
:101E26000FCFCE0E0ACACB0BC90908C8D81819D9C4
:101E36001BDBDA1A1EDEDF1FDD1D1CDC14D4D515F4
:101E4600D71716D6D21213D311D1D010F03031F1E4
:101E560033F3F23236F6F737F53534F43CFCFD3D14
:101E6600FF3F3EFEFA3A3BFB39F9F83828E8E92904
:101E7600EB2B2AEAEE2E2FEF2DEDEC2CE42425E5B4
:101E860027E7E62622E2E323E12120E0A06061A124
:101E960063A3A26266A6A767A56564A46CACAD6DD4
:101EA600AF6F6EAEAA6A6BAB69A9A86878B8B97944
:101EB600BB7B7ABABE7E7FBF7DBDBC7CB47475B574
:101EC60077B7B67672B2B373B17170B05090915164
:101ED6009353529296565797559594549C5C5D9D94
:101EE6005F9F9E5E5A9A9B5B995958988848498984
:101EF6004B8B8A4A4E8E8F4F8D4D4C8C4484854534
:101F060087474686824243834181804000C18140A3
:101F160001C0804101C0804100C1814001C08041B3
:101F260000C1814000C1814001C0804101C08041A3
:101F360000C1814000C1814001C0804100C1814093
:101F460001C0804101C0804100C1814001C0804183
:101F560000C1814000C1814001C0804100C1814073
:101F660001C0804101C0804100C1814000C1814063
:101F760001C0804101C0804100C1814001C0804153
:101F860000C1814000C1814001C0804101C0804143
:101F960000C1814000C1814001C0804100C1814033
:101FA60001C0804101C0804100C1814000C1814023
:101FB60001C0804101C0804100C1814001C0804113
:101FC60000C1814000C1814001C0804100C1814003
:101FD60001C0804101C0804100C1814001C08041F3
:101FE60000C1814000C1814001C0804101C08041E3
:101FF60000C1814000C1814001C0804100C18140D3
:1020060001C0804101C0804100C181400000000044
:1020160026028601B3017302E401C201D601000063
:0C202600000093021F01424C494E440090
:00000001FF
