:100000000C9468000C9490000C9490000C94900058
:100010000C9490000C9490000C9490000C94900020
:100020000C9490000C9490000C9490000C94900010
:100030000C9490000C9490000C9490000C94900000
:100040000C940A010C9490000C9469030C949B038B
:100050000C9490000C9490000C9490000C949000E0
:100060000C9490000C949000000000090003020022
:10007000000405080000000000000000000000016E
:10008000020408102040800102040810200102042C
:100090000810204080400404040404040404020204
:1000A000020202020303030303030202030000002F
:1000B0000023002600290000000000250028002B56
:1000C0000000000000240027002A0000F300CB03FA
:1000D00011241FBECFEFD4E0DEBFCDBF11E0A0E002
:1000E000B1E0ECE7F8E002C005900D92A231B10753
:1000F000D9F722E0A2E1B1E001C01D92A931B20717
:10010000E1F710E0C8E6D0E004C02197FE010E94AC
:100110003604C636D107C9F70E9426040C943C0465
:100120000C94000061E084E00E94030261E085E03D
:100130000E94030261E086E00E94030261E087E022
:100140000E94030261E088E00E94030261E089E00E
:100150000E94030261E08AE00E94030261E086E0FF
:100160000E94030260E08EE00E94030260E08FE0E4
:100170000E94030260E080E10E94030260E081E1EE
:100180000E94030260E082E10E94030260E083E1DA
:100190000E94030260E082E00E94030260E083E0CC
:1001A0000C9403028EE00E946D02811119C064E17B
:1001B00070E080E090E00E9479018091120181114D
:1001C0000AC081E090911301911180E080931301A6
:1001D00081E0809312016091130184E00C943F024E
:1001E00010921201F8CFE4E1F1E01282138288EE5E
:1001F00093E0909365018093640110926E011092D8
:100200006F0110927001109271018CE791E091835F
:10021000808308951F920F920FB60F9211242F938F
:100220003F938F939F93AF93BF9380917801909169
:100230007901A0917A01B0917B013091770123E09F
:10024000230F2D3768F126E8230F0296A11DB11D5B
:10025000209377018093780190937901A0937A019C
:10026000B0937B018091730190917401A09175010D
:10027000B09176010196A11DB11D809373019093F9
:100280007401A0937501B0937601BF91AF919F91D6
:100290008F913F912F910F900FBE0F901F90189547
:1002A0000196A11DB11DD4CF3FB7F8948091730181
:1002B00090917401A0917501B091760126B5A89B2B
:1002C00005C02F3F19F00196A11DB11D3FBFBA2FE8
:1002D000A92F982F8827BC01CD01620F711D811DA8
:1002E000911D42E0660F771F881F991F4A95D1F72D
:1002F00008958F929F92AF92BF92CF92DF92EF922A
:10030000FF926B017C010E9454014B015C01C114FE
:10031000D104E104F104E9F00E9435040E94540183
:10032000681979098A099B09683E7340810591051E
:1003300070F321E0C21AD108E108F10888EE880EB6
:1003400083E0981EA11CB11CC114D104E104F10486
:1003500029F7FF90EF90DF90CF90BF90AF909F90E4
:100360008F900895789484B5836084BD85B583604B
:1003700085BDEEE6F0E0808181608083E1E8F0E019
:1003800082E08083808181608083E0E8F0E080818A
:1003900081608083E1EBF0E0808184608083E0EB2A
:1003A000F0E080818160808387E880937A001092FA
:1003B000C1000895843081F028F48230E9F0833060
:1003C000F9F00895883071F0893091F08530B9F4F2
:1003D000809180008F7D03C0809180008F77809313
:1003E000800008958091B0008F778093B0000895C9
:1003F0008091B0008F7DF9CF84B58F7784BD08954B
:1004000084B58F7DFBCFCF93DF9390E0FC01E15863
:10041000FF4F24918A569F4FFC0184918823C9F095
:1004200090E0880F991FFC01EF53FF4FA591B49105
:10043000FC01E954FF4FC591D49161110DC09FB7E4
:10044000F8948C91209582238C938881282328838B
:100450009FBFDF91CF910895623051F49FB7F89418
:100460003C91822F809583238C93E8812E2BEFCFB4
:100470008FB7F894EC912E2B2C938FBFEACF1F935C
:10048000CF93DF93282F30E0F901E859FF4F849193
:10049000F901E158FF4FD491F901EA56FF4FC49199
:1004A000CC23A9F0162F81110E94DA01EC2FF0E085
:1004B000EE0FFF1FE954FF4FA591B4918FB7F89449
:1004C000EC91111108C0D095DE23DC938FBFDF9132
:1004D000CF911F910895DE2BF8CFCF93DF93282F74
:1004E00030E0F901E859FF4F8491F901E158FF4FDD
:1004F000D491F901EA56FF4FC491CC23A1F08111A8
:100500000E94DA01EC2FF0E0EE0FFF1FE355FF4FE2
:10051000A591B491EC91ED2381E090E009F480E0A5
:10052000DF91CF91089580E090E0FACFFC01918DAA
:10053000228D892F90E0805C9F4F821B91098F73E1
:1005400099270895FC01918D828D981731F0828D45
:10055000E80FF11D858D90E008958FEF9FEF0895CE
:10056000FC01918D828D981761F0A28DAE0FBF2F87
:10057000B11D5D968C91928D9F5F9F73928F90E0DD
:1005800008958FEF9FEF0895FC01538D448D252F23
:1005900030E0842F90E0821B930B541710F0CF961D
:1005A00008950197089581EC93E0892B49F080E04C
:1005B00090E0892B29F00E94C10381110C94000066
:1005C0000895FC01A48DA80FB92FB11DA35ABF4FE8
:1005D0002C91848D90E001968F739927848FA68942
:1005E000B7892C93A089B1898C9180648C93938D69
:1005F000848D981306C00288F389E02D80818F7D59
:1006000080830895CF93DF93EC01888D8823B9F020
:10061000AA89BB89E889F9898C9185FD03C080810D
:1006200086FD0DC00FB607FCF7CF8C9185FFF2CF8A
:10063000808185FFEDCFCE010E94E102E9CFDF91FD
:10064000CF910895EF92FF920F931F93CF93DF9373
:10065000EC0181E0888F9B8D8C8D981316C0E88902
:10066000F989808185FF11C0EE89FF896083E8895F
:10067000F98980818064808381E090E0DF91CF916F
:100680001F910F91FF90EF900895F62E0B8D10E0C3
:100690000F5F1F4F0F731127E02E8C8D8E110CC032
:1006A0000FB607FCFACFE889F989808185FFF5CF7D
:1006B000CE010E94E102F1CFEB8DEC0FFD2FF11D79
:1006C000E35AFF4FF0820B8FEA89FB8980818062B9
:1006D000D2CF1F920F920FB60F9211242F938F93A8
:1006E0009F93EF93FF93E0918C01F0918D018081B6
:1006F000E0919201F091930182FD1BC09081809165
:1007000095018F5F8F7320919601821741F0E091E0
:100710009501F0E0E458FE4F958F80939501FF918D
:10072000EF919F918F912F910F900FBE0F901F907F
:1007300018958081F4CF1F920F920FB60F9211245B
:100740002F933F934F935F936F937F938F939F93D9
:10075000AF93BF93EF93FF938CE791E00E94E10288
:10076000FF91EF91BF91AF919F918F917F916F9189
:100770005F914F913F912F910F900FBE0F901F905F
:1007800018958CE791E00E94960221E0892B09F4EC
:1007900020E0822F0895ECE7F1E01382128288EEC8
:1007A00093E0A0E0B0E084839583A683B78384E0E0
:1007B00091E09183808385EC90E09587848784EC39
:1007C00090E09787868780EC90E0918B808B81EC1E
:1007D00090E0938B828B82EC90E0958B848B86ECFF
:1007E00090E0978B868B118E128E138E148E089547
:1007F000AF92BF92CF92DF92EF92FF920F931F932F
:10080000CF93DF936C017B018B01040F151FEB016C
:100810005E01AE18BF08C017D10759F06991D60123
:10082000ED91FC910190F081E02DC6010995892B95
:1008300079F7C501DF91CF911F910F91FF90EF9054
:10084000DF90CF90BF90AF90089508950E94B201BD
:100850000E9425040E949200C3EDD2E00E94D200C3
:100860002097E1F30E94D302F9CF0895EE0FFF1F06
:0C0870000590F491E02D0994F894FFCF5E
:10087C00000000002203F803C40202039602B00237
:02088C00A202C6
:00000001FF
