:100000000C9468000C9490000C9490000C94900058
:100010000C9490000C9490000C9490000C94900020
:100020000C9490000C9490000C9490000C94900010
:100030000C9490000C9490000C9490000C94900000
:100040000C94F6010C9490000C94B9040C94EB04FD
:100050000C9490000C9490000C9490000C949000E0
:100060000C9490000C949000000000090003020022
:10007000000405080000000000000000000000016E
:10008000020408102040800102040810200102042C
:100090000810204080400404040404040404020204
:1000A000020202020303030303030202030000002F
:1000B0000023002600290000000000250028002B56
:1000C0000000000000240027002A000029011B0571
:1000D00011241FBECFEFD4E0DEBFCDBF11E0A0E002
:1000E000B1E0EEECFBE002C005900D92A233B10747
:1000F000D9F721E0A2E3B1E001C01D92AC3FB20705
:10010000E1F710E0C8E6D0E004C02197FE010E94AC
:10011000DA05C636D107C9F70E94A8050C94E50593
:100120000C94000061E08EE00E94FB0261E08FE031
:100130000E94FB0261E082E00E94FB0260E082E03C
:100140000E94370350E040E060E170E084E491E019
:100150000E94E40169E170E084E491E00E944E01B4
:1001600050E040E061E170E082E391E00E94E40150
:1001700069E170E082E391E00E944E0126E040E8F0
:1001800055E260E070E08FE591E00E94610444E692
:1001900050E060E070E08FE591E00E949F0561E033
:1001A00082E00E94370364E071E08FE591E00E94F5
:1001B000880560E082E00C94370384E491E00E94BB
:1001C0006A0182E391E00E946A0180914C0182FF02
:1001D00009C084E491E00E94D30190E09093010172
:1001E0008093000180913A0182FF09C082E391E08F
:1001F0000E94D30190E090930301809302018091CB
:1002000000019091010160E0892B09F461E08EE02A
:100210000E943703809102019091030160E0892BD5
:1002200009F461E08FE00E94370361E082E00E9400
:10023000370364E071E08FE591E00E94880560E09B
:1002400082E00E94370368EE73E080E090E00C9457
:10025000710284E491E00E94D70182E391E00C9462
:10026000D701FC0181890E94650321E0892B09F4F3
:1002700020E0822F0895862F642F0C94FB02FC014E
:1002800083E191E09183808312821382148215822C
:100290008AE090E09783868310860895FC01778337
:1002A00066830895CF93DF93EC011886E881F98186
:1002B0000190F081E02D0995882319F088858360ED
:1002C00088870E9440026A837B838C839D83DF91B1
:1002D000CF910895CF92DF92EF92FF920F931F93E9
:1002E000CF93DF93EC0188858B7F8887E881F98144
:1002F0000190F081E02DCE010995182F8885869513
:1003000081701817B9F00E9440026A837B838C8346
:100310009D83888592E089278887888582FB882746
:1003200080F9DF91CF911F910F91FF90EF90DF90B7
:10033000CF9008950E944002CA80DB80EC80FD804F
:10034000AB01BC014C195D096E097F098E819F814B
:10035000B0E0A0E0481759076A077B07F0F28885EC
:1003600081701817D1F20E9440026A837B838C83CC
:100370009D83888591E08927846088870E94400258
:1003800009851A852B853C85601B710B820B930BAD
:100390006D877E878F87988B0E94400269877A8756
:1003A0008B879C87BACFFC01808581700895CF939D
:1003B000DF93EC010E943F0189E191E099838883FA
:1003C000198ADF91CF9108951F93CF93DF93EC01AA
:1003D000162FE881F9810280F381E02D0995198BB0
:1003E000CE01DF91CF911F910C9452011F920F9279
:1003F0000FB60F9211242F933F938F939F93AF9338
:10040000BF9380915B0190915C01A0915D01B091DF
:100410005E0130915A0123E0230F2D3768F126E861
:10042000230F0296A11DB11D20935A0180935B01F9
:1004300090935C01A0935D01B0935E0180915601A1
:1004400090915701A0915801B09159010196A11DB9
:10045000B11D8093560190935701A0935801B0931A
:100460005901BF91AF919F918F913F912F910F9023
:100470000FBE0F901F9018950196A11DB11DD4CFEE
:100480002FB7F89460915B0170915C0180915D01E0
:1004900090915E012FBF08953FB7F8948091560167
:1004A00090915701A0915801B091590126B5A89B90
:1004B00005C02F3F19F00196A11DB11D3FBFBA2FF6
:1004C000A92F982F8827BC01CD01620F711D811DB6
:1004D000911D42E0660F771F881F991F4A95D1F73B
:1004E00008958F929F92AF92BF92CF92DF92EF9238
:1004F000FF926B017C010E944C024B015C01C11414
:10050000D104E104F104E9F00E94B7050E944C0215
:10051000681979098A099B09683E7340810591052C
:1005200070F321E0C21AD108E108F10888EE880EC4
:1005300083E0981EA11CB11CC114D104E104F10494
:1005400029F7FF90EF90DF90CF90BF90AF909F90F2
:100550008F900895789484B5836084BD85B5836059
:1005600085BDEEE6F0E0808181608083E1E8F0E027
:1005700082E08083808181608083E0E8F0E0808198
:1005800081608083E1EBF0E0808184608083E0EB38
:10059000F0E080818160808387E880937A00109208
:1005A000C1000895843081F028F48230E9F083306E
:1005B000F9F00895883071F0893091F08530B9F400
:1005C000809180008F7D03C0809180008F77809321
:1005D000800008958091B0008F778093B0000895D7
:1005E0008091B0008F7DF9CF84B58F7784BD089559
:1005F00084B58F7DFBCFCF93DF9390E0FC01E15872
:10060000FF4F24918A569F4FFC0184918823C9F0A3
:1006100090E0880F991FFC01EF53FF4FA591B49113
:10062000FC01E954FF4FC591D49161110DC09FB7F2
:10063000F8948C91209582238C9388812823288399
:100640009FBFDF91CF910895623051F49FB7F89426
:100650003C91822F809583238C93E8812E2BEFCFC2
:100660008FB7F894EC912E2B2C938FBFEACF1F936A
:10067000CF93DF93282F30E0F901E859FF4F8491A1
:10068000F901E158FF4FD491F901EA56FF4FC491A7
:10069000CC23A9F0162F81110E94D202EC2FF0E09A
:1006A000EE0FFF1FE954FF4FA591B4918FB7F89457
:1006B000EC91111108C0D095DE23DC938FBFDF9140
:1006C000CF911F910895DE2BF8CFCF93DF93282F82
:1006D00030E0F901E859FF4F8491F901E158FF4FEB
:1006E000D491F901EA56FF4FC491CC23A1F08111B6
:1006F0000E94D202EC2FF0E0EE0FFF1FE355FF4FF8
:10070000A591B491EC91ED2381E090E009F480E0B3
:10071000DF91CF91089580E090E0FACFFC01918DB8
:10072000228D892F90E0805C9F4F821B91098F73EF
:1007300099270895FC01918D828D981731F0828D53
:10074000E80FF11D858D90E008958FEF9FEF0895DC
:10075000FC01918D828D981761F0A28DAE0FBF2F95
:10076000B11D5D968C91928D9F5F9F73928F90E0EB
:1007700008958FEF9FEF0895FC01538D448D252F31
:1007800030E0842F90E0821B930B541710F0CF962B
:1007900008950197089581E195E0892B49F080E063
:1007A00090E0892B29F00E94110581110C94000022
:1007B0000895FC01A48DA80FB92FB11DA35ABF4FF6
:1007C0002C91848D90E001968F739927848FA68950
:1007D000B7892C93A089B1898C9180648C93938D77
:1007E000848D981306C00288F389E02D80818F7D67
:1007F00080830895CF93DF93EC01888D8823B9F02F
:10080000AA89BB89E889F9898C9185FD03C080811B
:1008100086FD0DC00FB607FCF7CF8C9185FFF2CF98
:10082000808185FFEDCFCE010E94D903E9CFDF9112
:10083000CF910895EF92FF920F931F93CF93DF9381
:10084000EC0181E0888F9B8D8C8D981316C0E88910
:10085000F989808185FF11C0EE89FF896083E8896D
:10086000F98980818064808381E090E0DF91CF917D
:100870001F910F91FF90EF900895F62E0B8D10E0D1
:100880000F5F1F4F0F731127E02E8C8D8E110CC040
:100890000FB607FCFACFE889F989808185FFF5CF8B
:1008A000CE010E94D903F1CFEB8DEC0FFD2FF11D8E
:1008B000E35AFF4FF0820B8FEA89FB8980818062C7
:1008C000D2CFCF92DF92EF92FF921F93CF93DF931D
:1008D000EC016A017B01122FE889F98982E08083AB
:1008E000C11481EED806E104F104A1F060E079E0E2
:1008F0008DE390E0A70196010E94B80521503109CF
:10090000410951095695479537952795211580E15D
:10091000380798F0E889F989108260E874E88EE178
:1009200090E0A70196010E94B805215031094109C4
:1009300051095695479537952795EC85FD85308368
:10094000EE85FF852083188EEC89FD891083EA8966
:10095000FB89808188698083EA89FB8980818F7D1A
:100960008083DF91CF911F91FF90EF90DF90CF9028
:1009700008951F920F920FB60F9211242F938F9309
:100980009F93EF93FF93E0916F01F091700180814D
:10099000E0917501F091760182FD1BC090818091FC
:1009A00078018F5F8F7320917901821741F0E09178
:1009B0007801F0E0E15AFE4F958F80937801FF9126
:1009C000EF919F918F912F910F900FBE0F901F90DD
:1009D00018958081F4CF1F920F920FB60F921124B9
:1009E0002F933F934F935F936F937F938F939F9337
:1009F000AF93BF93EF93FF938FE591E00E94D903EC
:100A0000FF91EF91BF91AF919F918F917F916F91E6
:100A10005F914F913F912F910F900FBE0F901F90BC
:100A200018958FE591E00E948E0321E0892B09F44F
:100A300020E0822F0895EFE5F1E01382128288EE24
:100A400093E0A0E0B0E084839583A683B78381E23E
:100A500091E09183808385EC90E09587848784EC96
:100A600090E09787868780EC90E0918B808B81EC7B
:100A700090E0938B828B82EC90E0958B848B86EC5C
:100A800090E0978B868B118E128E138E148E0895A4
:100A9000AF92BF92CF92DF92EF92FF920F931F938C
:100AA000CF93DF936C017B018B01040F151FEB01CA
:100AB0005E01AE18BF08C017D10759F06991D60181
:100AC000ED91FC910190F081E02DC6010995892BF3
:100AD00079F7C501DF91CF911F910F91FF90EF90B2
:100AE000DF90CF90BF90AF900895FB010190002060
:100AF000E9F73197AF01461B570BDC01ED91FC91F3
:100B00000280F381E02D09946FE271E00C94750589
:100B10000F931F93CF93DF938C01D0E0C0E061155A
:100B2000710519F00E947505EC01C8010E94840549
:100B30008C0F9D1FDF91CF911F910F910895FC01A4
:100B4000448355836683778308950E94E005089562
:100B50000E94AA020E94A7050E949200CBECD3E05B
:100B60000E94DD002097E1F30E94CB03F9CF0895A6
:100B7000A1E21A2EAA1BBB1BFD010DC0AA1FBB1FA1
:100B8000EE1FFF1FA217B307E407F50720F0A21B13
:100B9000B30BE40BF50B661F771F881F991F1A9480
:100BA00069F760957095809590959B01AC01BD01AA
:100BB000CF010895EE0FFF1F0590F491E02D0994E9
:0E0BC00081E090E0F8940C94E505F894FFCFE6
:100BCE00010001004F4B2C20647A69616C610000BA
:100BDE00000000A5050000000031013B01000000EF
:100BEE00001A044805BC03FA038E03A8039A030DEA
:020BFE000A00EB
:00000001FF
