:020000040000FA
:100000000C9462000C948A000C948A000C948A0070
:100010000C948A000C948A000C948A000C948A0038
:100020000C948A000C948A000C948A000C948A0028
:100030000C948A000C948A000C948A000C948A0018
:100040000C94D6040C948A000C9446050C9420055C
:100050000C948A000C948A000C948A000C948A00F8
:100060000C948A000C948A000000000023002600F3
:10007000290000000000240027002A0000000000E2
:10008000250028002B0004040404040404040202D4
:100090000202020203030303030301020408102007
:1000A0004080010204081020010204081020000012
:1000B0000008000201000003040700000000000027
:1000C0000000780511241FBECFEFD8E0DEBFCDBF02
:1000D00013E0A0E0B1E0EAE2FDE102C005900D927C
:1000E000AA32B107D9F724E0AAE2B3E001C01D9219
:1000F000A333B207E1F710E0C2E6D0E004C02197D5
:10010000FE010E945F0CC136D107C9F70E94E905C4
:100110000C94930E0C940000833081F028F481300D
:1001200099F08230A9F008958730A9F08830C9F09D
:100130008430B1F4809180008F7D03C08091800075
:100140008F7780938000089584B58F7784BD08955C
:1001500084B58F7DFBCF8091B0008F778093B00006
:1001600008958091B0008F7DF9CF1F93CF93DF93D7
:10017000282F30E0F901E255FF4F8491F901E6564E
:10018000FF4FD491F901EA57FF4FC491CC23A9F056
:10019000162F81110E948C00EC2FF0E0EE0FFF1F54
:1001A000E458FF4FA591B4918FB7F894EC911111D9
:1001B00008C0D095DE23DC938FBFDF91CF911F91D4
:1001C0000895DE2BF8CFCF93DF9390E0FC01E65645
:1001D000FF4F24918A579F4FFC0184918823C9F0D7
:1001E00090E0880F991FFC01EE58FF4FA591B49144
:1001F000FC01E458FF4FC591D49161110DC09FB728
:10020000F8948C91209582238C93888128232883CD
:100210009FBFDF91CF910895623051F49FB7F8945A
:100220003C91822F809583238C93E8812E2BEFCFF6
:100230008FB7F894EC912E2B2C938FBFEACF862F9B
:10024000642F0C94E3003FB7F8948091550390918C
:100250005603A0915703B091580326B5A89B05C03B
:100260002F3F19F00196A11DB11D3FBFBA2FA92F35
:10027000982F8827BC01CD01620F711D811D911D32
:1002800042E0660F771F881F991F4A95D1F708959E
:100290008F929F92AF92BF92CF92DF92EF92FF9296
:1002A0004B015C010E9423016B017C010E94230130
:1002B0006C197D098E099F09683E7340810591057F
:1002C000A8F321E0821A9108A108B10888EEC80EAF
:1002D00083E0D81EE11CF11C81149104A104B10437
:1002E00029F7FF90EF90DF90CF90BF90AF909F9055
:1002F0008F9008952FB7F894609151037091520335
:1003000080915303909154032FBF0895AF92BF92F1
:10031000CF92DF92EF92FF920F931F93CF93DF93D1
:100320006C017B018B01040F151FEB015E01AE1800
:10033000BF08C017D10759F06991D601ED91FC9122
:100340000190F081E02DC6010995892B79F7C5014F
:10035000DF91CF911F910F91FF90EF90DF90CF90A1
:10036000BF90AF900895FC01538D448D252F30E050
:10037000842F90E0821B930B541710F0CF960895B2
:1003800001970895FC01918D828D981761F0A28DDF
:10039000AE0FBF2FB11D5D968C91928D9F5F9F73A5
:1003A000928F90E008958FEF9FEF0895FC01918D5B
:1003B000828D981731F0828DE80FF11D858D90E0C8
:1003C00008958FEF9FEF0895FC01918D228D892F65
:1003D00090E0805C9F4F821B91098F73992708954D
:1003E0008DE793E00E94E40121E0892B09F420E0ED
:1003F000822F089580E090E0892B29F00E94F0017F
:1004000081110C9400000895FC01A48DA80FB92F50
:10041000B11DA35ABF4F2C91848D90E001968F732C
:100420009927848FA689B7892C93A089B1898C914B
:10043000837080648C93938D848D981306C002889A
:10044000F389E02D80818F7D80830895EF92FF9264
:100450000F931F93CF93DF93EC0181E0888F9B8DE7
:100460008C8D98131AC0E889F989808185FF15C0A1
:100470009FB7F894EE89FF896083E889F9898081C4
:100480008370806480839FBF81E090E0DF91CF9193
:100490001F910F91FF90EF900895F62E0B8D10E0B5
:1004A0000F5F1F4F0F731127E02E8C8D8E110CC024
:1004B0000FB607FCFACFE889F989808185FFF5CF6F
:1004C000CE010E940402F1CFEB8DEC0FFD2FF11D48
:1004D000E35AFF4FF0829FB7F8940B8FEA89FB89AC
:1004E00080818062CFCFCF93DF93EC01888D88230A
:1004F000B9F0AA89BB89E889F9898C9185FD03C087
:10050000808186FD0DC00FB607FCF7CF8C9185FF6B
:10051000F2CF808185FFEDCFCE010E940402E9CFAA
:10052000DF91CF910895CF93DF93FC01218930E0D3
:10053000F901E255FF4F8491F901E656FF4FD4913E
:10054000F901EA57FF4FC491CC2379F081110E9441
:100550008C00EC2FF0E0EE0FFF1FE859FF4FA59144
:10056000B491EC91ED2381E009F480E08170DF919A
:10057000CF9108951F93CF93DF93EC01162F60E086
:10058000812F0E94E300198B1886CE010E949302EE
:10059000882319F08885836088870E947A016A839E
:1005A0007B838C839D83DF91CF911F910895CF92A0
:1005B000DF92EF92FF920F931F93CF93DF93EC01A3
:1005C00088858B7F8887CE010E949302182F8885AB
:1005D000869581701817B9F00E947A016A837B832F
:1005E0008C839D83888592E089278887888582FB14
:1005F000882780F9DF91CF911F910F91FF90EF90A5
:10060000DF90CF9008950E947A01CA80DB80EC8051
:10061000FD80AB01BC014C195D096E097F098E811B
:100620009F81B0E0A0E0481759076A077B07F0F206
:10063000888581701817D1F20E947A016A837B83C2
:100640008C839D83888591E08927846088870E94B8
:100650007A0109851A852B853C85601B710B820BFD
:10066000930B6D877E878F87988B0E947A016987AD
:100670007A878B879C87BACFFC0180819181009714
:1006800049F0FC01208131812617370719F0868156
:100690009781F5CF0895CF93DF93EB01BC018AE1F9
:1006A00094E00E943C03009789F0DC011496ED91E0
:1006B000FC91309759F080819181C817D90750F08B
:1006C00081E0228133812C173D0708F080E0DF9123
:1006D000CF91089581E0FBCFCF93DF93EA010E9491
:1006E0003C03009739F0FC01D383C28381E0DF91A2
:1006F000CF91089580E0FBCF0E943C03009721F04A
:10070000FC0182819381089590E080E0089560E08B
:100710008EE00E94B50060E088E00E94B5006AE0CB
:1007200070E080E090E00E94480161E08FE00E946C
:10073000B50061E089E00E94B50083E08093440346
:100740000E947A0160932A0370932B0380932C03F9
:1007500090932D03089560E08FE00E94B50060E063
:1007600089E00E94B5006AE070E080E090E00E94BD
:10077000480161E08EE00E94B50061E088E00E94DF
:10078000B50081E0809344030E947A0160932A03BC
:1007900070932B0380932C0390932D0308950F9354
:1007A0001F9360E08EE00E94B50060E08FE00E9441
:1007B000B50060E088E00E94B50060E089E00E943A
:1007C000B500109244030E947A0100912A0310910F
:1007D0002B0320912C0330912D03601B710B820B96
:1007E000930B28E139E740E050E00E943D0C64E6BD
:1007F000629FC001639F900D1124209142033091AC
:1008000043032115310579F4919581959109853638
:10081000910520F4909343038093420310924B037D
:100820001F910F91089521303105C1F7019685364A
:10083000910580F384E690E0EDCFCF93DF93EC0158
:1008400088E090E00E94650CFC01D183C083138294
:100850001282158214821782168280911A04909156
:100860001B04892B59F4F0931B04E0931A04F093B2
:100870001D04E0931C04DF91CF910895A0911C0406
:10088000B0911D041796FC93EE931697F0CF0F933B
:100890001F93CF93DF93182F062FCAE1D4E082E095
:1008A000888762E070E08E819F810E948A0DFC0142
:1008B0009F838E8310581083018383E08987DF91A3
:1008C000CF911F910F910895AF92BF92DF92EF9257
:1008D000FF920F931F93CF93DF93D82E7B018A0152
:1008E000BA016F5F7F4F660F6093220470E08091C2
:1008F0002004909121040E948A0D909321048093FA
:10090000200464E00097B9F1FC01D0822091220418
:1009100022502183F3E081E395E7DF1202C081E4F6
:100920009CE9D0E0C0E0E80EF91E0C171D0779F134
:100930005701AC0EBD1EB5018AE194E00E943C0354
:10094000892BC1F0B5018AE194E00E947C032196D5
:100950009E01220F331FA0912004B0912104A20F09
:10096000B31F9C93E0912004F0912104E20FF31F48
:100970008183DBCF62E08D2DDF91CF911F910F91AD
:10098000FF90EF90DF90BF90AF900C94470483E00E
:1009900080932304DF91CF911F910F91FF90EF90EF
:1009A000DF90BF90AF9008950E94470E1F920F9264
:1009B0000FB60F9211242F933F938F939F93AF9372
:1009C000BF938091510390915203A0915303B09132
:1009D00054033091500323E0230F2D3758F501962F
:1009E000A11DB11D20935003809351039093520396
:1009F000A0935303B09354038091550390915603F1
:100A0000A0915703B09158030196A11DB11D809389
:100A1000550390935603A0935703B0935803BF9187
:100A2000AF919F918F913F912F910F900FBE0F909B
:100A30001F90189526E8230F0296A11DB11DD2CF55
:100A40001F920F920FB60F9211242F933F934F9343
:100A50005F936F937F938F939F93AF93BF93EF9326
:100A6000FF938DE793E00E940402FF91EF91BF9105
:100A7000AF919F918F917F916F915F914F913F9136
:100A80002F910F900FBE0F901F9018951F920F92ED
:100A90000FB60F9211242F938F939F93EF93FF9391
:100AA000E0918D03F0918E038081E0919303F091AA
:100AB000940382FD1BC09081809196038F5F8F739A
:100AC00020919703821741F0E0919603F0E0E358FC
:100AD000FC4F958F80939603FF91EF919F918F919B
:100AE0002F910F900FBE0F901F9018958081F4CF1B
:100AF000EDE7F3E01382128288EE93E0A0E0B0E02D
:100B000084839583A683B7838EE093E0918380836B
:100B100085EC90E09587848784EC90E097878687C2
:100B200080EC90E0918B808B81EC90E0938B828BBA
:100B300082EC90E0958B848B86EC90E0978B868B93
:100B4000118E128E138E148EAAE1B4E011961C92AF
:100B50001E9213961C921E92129715961C921E922C
:100B6000149717961C921E92169718961C92189717
:100B700019961C9219971B961C921E921A971D96F5
:100B8000FC93EE931C978FEF9FEF1F969C938E9391
:100B90001E9788E350968C93EBE6F3E01282138263
:100BA000148215822AE030E037832683108680E2A3
:100BB00093E091838083118AE9E5F3E01282138246
:100BC0001482158237832683108691838083118A4D
:100BD0000895CF93DF9300D000D01F92CDB7DEB73A
:100BE000789484B5826084BD84B5816084BD85B508
:100BF000826085BD85B5816085BD80916E00816014
:100C000080936E00109281008091810082608093B9
:100C100081008091810081608093810080918000BB
:100C20008160809380008091B10084608093B100E6
:100C30008091B00081608093B00080917A008460E0
:100C400080937A0080917A00826080937A0080910C
:100C50007A00816080937A0080917A008068809326
:100C60007A001092C10088E10EE00FB6F894A895C2
:100C7000809360000FBE0093600060E087E00E94F8
:100C8000E30060E08AE00E94E30060E087E00E9409
:100C9000B50060E088E00E94B50060E089E00E9455
:100CA000B50060E08AE00E94B50061E08EE00E943D
:100CB000E30061E08FE00E94E30061E088E00E94D1
:100CC000E30061E089E00E94E30060E08EE00E94C2
:100CD000B50060E08FE00E94B50060E088E00E940F
:100CE000B50060E089E00E94B50061E170E08BE64C
:100CF00093E00E94BA0209E110E01093720300939E
:100D0000710360E170E089E593E00E94BA021093FC
:100D1000600300935F03E0918D03F0918E0382E006
:100D20008083E0918903F0918A031082E0918B0324
:100D3000F0918C038FEC808310929503E0919103E6
:100D4000F09192031EE01083E0918F03F0919003E5
:100D5000808180618083E0918F03F0919003808196
:100D600088608083E0918F03F09190038081806898
:100D70008083E0918F03F091900380818F7D808349
:100D8000809128049091290497FD08C061E00E9499
:100D9000E30060E0809128040E94B50086EB96E0B5
:100DA00090932C0480932B048AEA9FE090932E0466
:100DB00080932D0480911E0490911F040E94010DC8
:100DC00086E090E00E94650C90931F0480931E04BF
:100DD000009721F064E273E00E94550E81E49CE9E3
:100DE0000E941D0482E49CE90E941D0483E49CE9A6
:100DF0000E941D0484E49CE90E941D0485E49CE992
:100E00000E941D0486E49CE90E941D04212C312CC3
:100E100021012394A4E66A2E712CA8950E947A01E0
:100E200060934C0370934D0380934E0390934F0354
:100E3000109222048091260490912704DC01ED9108
:100E4000FC910084F185E02D099540912204242F26
:100E500030E028173907E4F48091260490912704A4
:100E6000DC01ED91FC910084F185E02D09958093E2
:100E7000220480912B0490912C0482309105D0F2B1
:100E8000880F991F880F991F05970197F1F7D2CF07
:100E9000442309F4A9C1C9010E94650C909321045F
:100EA0008093200419828091220409810817A8F4F4
:100EB0008091260490912704DC01ED91FC9102843D
:100EC000F385E02D0995E0912004F0912104E00FD5
:100ED000F11D80830F5F0983E6CF009120041091FC
:100EE0002104F801F081F983FF2321F090912A0475
:100EF000F91372C19DEF980F58012FEFA21AB20A91
:100F00004981409550E0FA01E65FFD4F2081622F54
:100F10006095465F5E4FDA014C91F501915068F0A3
:100F20002191262730E0D901A65FBD4F6C9164273F
:100F3000265F3E4FD9014C91F1CF800F912F911D2B
:100F4000FC01329720810197FC018081922F562F5E
:100F50008417950709F040C1D8011196FC901197AC
:100F60001296ED91FC911397FE27EF27FE27FD8344
:100F7000EC831496CD90DC901597DC24CD24DC24F2
:100F8000EFEFEF0DE13108F037C3F0E0E653F84F33
:100F90000C945F0CCA09CA09D008BD09430ADB07D3
:100FA000FC0AFC0AFC0AFC0AFC0AFC0AFC0AFC0A11
:100FB0005C0A2B08C50A0C811D810F5B13461B833D
:100FC0000A83B601C8010E944B03882329F063E01D
:100FD00086E00E944704F2C0A6016A817B818AE113
:100FE00094E00E946C03811102C062E0F1CF82E0C4
:100FF000809323041981112309F4E3C00091200494
:10100000109121041B830A83809128049091290464
:1010100097FD09C061E00E94B50061E070E080E0EA
:1010200090E00E94480110E08091260490912704EE
:10103000DC01ED91FC9120912204121708F015C3F8
:10104000AA81BB81A10FB11D0190F081E02D6C91AF
:1010500009951F5FE9CFC60101978B37910540F4D1
:1010600016962C91C601880F991F2817190619F09A
:1010700063E080E1AECFF12CE12C2C813D812F5B30
:1010800033463B832A836A817B816E0D7F1D8AE113
:1010900094E00E943C03892B11F462E0EACF3FEF19
:1010A000E31AF30ACE14DF0471F7D12CC12CF80136
:1010B000A7808085BA2CA82E8A809B808C0C9D1CD2
:1010C000B501C4010E944B03811181CFA501B40178
:1010D0008AE194E00E946C03FFEFCF1ADF0A0E5FF3
:1010E0001F4FEC14FD0419F7809120049091210406
:1010F0000E94010D85E08093220485E090E00E942B
:10110000650CFC01909321048093200464E0892BFA
:1011100009F4AFCF80E180830D8101831C811283AC
:101120001382E48283E0809323040981002309F47D
:1011300048C0E0902004F090210480912804909110
:10114000290497FD09C061E00E94B50061E070E0EC
:1011500080E090E00E94480180912604909127044D
:10116000DC01ED91FC910190F081E02D60912A0469
:10117000099510E060912204809126049091270443
:10118000DC01ED91FC91C080D180161708F036C2C9
:10119000D701A10FB11D6C91F60109951F5FEACF30
:1011A000C60101978D37910518F063E083E011CFF8
:1011B000A6016C817D8183E00E9464040981011194
:1011C00003C081E08093230480912304833009F4D9
:1011D000B0CF823009F412CF809120049091210485
:1011E0000E94010D1092220480914B03882381F00C
:1011F00080914C0390914D03A0914E03B0914F0309
:10120000892B8A2B8B2B21F010924B030E94CF034A
:1012100080914A03882361F18091460390914703AE
:10122000A0914803B0914903885E9648AF4FBF4FE5
:1012300040914C0350914D0360914E0370914F03C8
:1012400084179507A607B70798F410924A030E94DF
:10125000CF0380914503811124C282E0809344032F
:1012600010924303109242031092410310924003E4
:101270008BE693E00E94D70289E593E00E94D702B3
:101280008091730382FF05C08170809302011092E8
:1012900003018091610382FF05C08170809300018A
:1012A0001092010180913F038823D9F0809131038E
:1012B000909132030297A9F40E94AB0381E08093DE
:1012C0004A030E947A016093460370934703809318
:1012D00048039093490310923F0370924103609238
:1012E000400380913F03882361F080913103909106
:1012F0003203892B31F40E94CF0310924A031092DB
:101300003F0380913F038823D9F08091310390916E
:1013100032030497A9F40E94870381E080934A0373
:101320000E947A01609346037093470380934803B9
:101330009093490310923F0310924103109240038F
:1013400080910001909101018130910509F0B5C1B2
:1013500080910201909103018130910509F076C2DC
:1013600080914A03811106C080914B03811102C014
:101370000E94CF0310923003EBC1C60101978D3755
:10138000910518F063E084E024CEA6016C817D8194
:1013900084E012CFC601019763E0803D974008F0DA
:1013A00070C0C60163E0969587956A95E1F796014E
:1013B00027703327232B09F05DC08E5F80932204B2
:1013C0006091220470E0C8010E948A0D909321046C
:1013D0008093200464E0009709F453C0DC01FC9280
:1013E00020912204225011962C93B1E061E070E02C
:1013F000FB1611F061E177E210E000E0AC80BD8007
:10140000A60EB71EF501E00FF11FFB83EA83BF01B3
:101410008AE194E00E943C03892B91F16A817B81EF
:101420008AE194E00E947C03202F2770B201A10181
:1014300004C0440F551F661F771F2A95D2F79801E5
:1014400053E0369527955A95E1F72E5F3F4FE0918F
:101450002004F0912104E20FF31F208181159F4F9A
:1014600059F4822F842B80830F5F1F4FC016D10643
:1014700049F658CE8D5FA2CF842F80958223F3CF7B
:1014800062E08F2DA6CDC1144FEFD40631F063E09A
:10149000CD2881F450E040E002C040E05FEF6C8175
:1014A0007D816F5F7F4F8AE194E00E946C03811120
:1014B0009ECD62E085E08DCDC60143E0969587958F
:1014C0004A95E1F7960127703327232B09F00196FF
:1014D000960121503109203B374008F054C0D80113
:1014E00016962C912817190609F04DC0F12CE12C05
:1014F0008C809D80BFEF8B1A9B0AB4016E0D7F1DFF
:101500008AE194E00E943C030097D1F1F70133E0B7
:10151000F695E7953A95E1F7EA0DFB1D268130E057
:101520004E2D477002C0359527954A95E2F720FF6A
:1015300024C020E03FEFFC0133832283FFEFEF1A4A
:10154000FF0ACE14DF04C9F685E08093220465E02B
:1015500070E0C8010E948A0DFC01909321048093E1
:10156000200464E0892B69F08FE080830D81018382
:101570001C811283D382C482D5CD30E020E0DBCF42
:1015800062E08FE026CD63E0FCCF24E020932204CC
:10159000A0911E04B0911F04109741F0FD0101902D
:1015A0000020E9F7EA1BED5FE0932204609122043A
:1015B00070E0C8010E948A0DFC0190932104809381
:1015C000200464E081E1309709F403CD31E13083F8
:1015D000809122048250818312824FEF4383609175
:1015E0001E0470911F046115710509F49BCDCF0194
:1015F00004960E94550E96CD61E043CF40912A0497
:10160000409550E0DA01A65FBD4F7C917095465F32
:101610005E4FDA014C91A0912004B09121046150F9
:1016200068F02D91272730E0F901E65FFD4F7081CA
:101630007427265F3E4FF9014081F1CF042F672FB9
:10164000F60109958091260490912704DC01ED9123
:10165000FC910190F081E02D602F09958091260486
:1016600090912704DC01ED91FC910680F781E02D3B
:10167000099580912D0490912E048230910538F0C7
:10168000880F991F880F991F05970197F1F780918F
:1016900028049091290497FD9FCD60E00E94B50039
:1016A0009BCDB4E0B0934403709243036092420335
:1016B0007092410360924003DBCD892B09F048C052
:1016C0008091020190910301892B31F580913003C3
:1016D000811122C080914503882309F4A6C00E948D
:1016E00087030E947A0160934603709347038093B7
:1016F00048039093490381E080934A038093300329
:1017000064E670E080E090E00E9448018091000172
:1017100090910101892BE1F48091020190910301E4
:101720000197B1F480913003811112C080914A0376
:10173000882309F483C00E94CF0310924A0381E0FA
:101740008093300362E370E080E090E00E94480103
:10175000009142031091430310933A03009339031D
:10176000E0914003F0914103FB83EA83F0933C0353
:10177000E0933B03E0903103F0903203F0922F03AB
:10178000E0922E0340914403042E000C550B50931D
:1017900034034093330362E47CE98AE194E00E94DD
:1017A0006C03A80165E47CE98AE194E00E946C0383
:1017B0004A815B8166E47CE98AE194E00E946C03E3
:1017C00061E47CE98AE194E00E947C039B838A8344
:1017D000909332038093310363E47CE98AE194E0DF
:1017E0000E947C03909336038093350364E47CE984
:1017F0008AE194E00E947C0390933803809337033E
:101800000A811B81E016F106F1F081E080933F032D
:1018100020E030E0232B09F400CB0E94F001882364
:1018200009F4FBCA0E940000F8CA0E94AB0359CF1A
:101830000E94870381E0809345031AC00E94AB0396
:10184000109245037FCF10923F03E2CF892B09F01E
:101850007FCF8091300381117BCF80914A03882311
:1018600039F30E94CF0310924A0381E08093300342
:1018700062E370E080E090E047CFA1E21A2EAA1B5D
:10188000BB1BFD010DC0AA1FBB1FEE1FFF1FA21730
:10189000B307E407F50720F0A21BB30BE40BF50B2D
:1018A000661F771F881F991F1A9469F760957095B6
:1018B000809590959B01AC01BD01CF010895EE0F7D
:1018C000FF1F0590F491E02D09940F931F93CF9380
:1018D000DF938230910510F482E090E0E0913104D2
:1018E000F091320430E020E0B0E0A0E0309799F4CD
:1018F0002115310509F44AC0281B390B2430310564
:10190000D8F58A819B816115710589F1FB0193836B
:101910008283FE0111C040815181028113814817E9
:101920005907E0F04817590799F4109761F012969B
:101930000C93129713961C933296CF01DF91CF919F
:101940001F910F9108950093310410933204F4CF46
:101950002115310551F04217530738F0A901DB0179
:101960009A01BD01DF01F801C1CFEF01F9CF9093DA
:10197000320480933104CDCFFE01E20FF31F819337
:1019800091932250310939832883D7CF20912F0496
:1019900030913004232B41F420910601309107014E
:1019A0003093300420932F042091040130910501DD
:1019B0002115310541F42DB73EB7409108015091F2
:1019C0000901241B350BE0912F04F0913004E2173C
:1019D000F307A0F42E1B3F0B2817390778F0AC0152
:1019E0004E5F5F4F2417350748F04E0F5F1F50932F
:1019F000300440932F04819391939FCFF0E0E0E077
:101A00009CCFCF93DF930097E9F0FC0132971382CC
:101A10001282A0913104B0913204ED0130E020E057
:101A20001097A1F420813181820F931F20912F0400
:101A3000309130042817390709F061C0F093300461
:101A4000E0932F04DF91CF910895EA01CE17DF07CD
:101A5000E8F54A815B819E0141155105B1F7E90125
:101A6000FB83EA8349915991C40FD51FEC17FD07F9
:101A700061F4808191810296840F951FE901998319
:101A80008883828193819B838A83F0E0E0E01296D1
:101A90008D919C9113970097B9F52D913C911197D9
:101AA000CD010296820F931F20912F0430913004B4
:101AB0002817390739F6309751F5109232041092F1
:101AC0003104B0933004A0932F04BCCFD383C283DE
:101AD00040815181840F951FC817D90761F44E5F6B
:101AE0005F4F88819981480F591F518340838A81B4
:101AF0009B81938382832115310509F0B0CFF09348
:101B00003204E09331049ECFFD01DC01C0CF13828B
:101B10001282D7CFB0E0A0E0E0E9FDE00C945E0EC9
:101B20008C01009751F4CB010E94650C8C01C80117
:101B3000CDB7DEB7E0E10C947A0EFC01E60FF71F9B
:101B40009C0122503109E217F30708F49DC0D90126
:101B5000CD91DC911197C617D70798F0C530D10504
:101B600030F3CE0104978617970708F3C61BD70BEF
:101B70002297C193D1936D937C93CF010E94010D65
:101B8000D6CF5B01AC1ABD0A4C018C0E9D1EA091F4
:101B90003104B0913204512C412CF12CE12C1097DE
:101BA00031F580912F04909130048815990509F042
:101BB0005CC04616570608F058C080910401909109
:101BC0000501009741F48DB79EB7409108015091EF
:101BD0000901841B950BE817F90708F055C0F0932D
:101BE0003004E0932F04F90171836083A0CF8D91BD
:101BF0009C91119712966C90129713967C90139764
:101C0000A815B90559F56C0142E0C40ED11CCA14DF
:101C1000DB0420F1AC014A195B09DA011296159731
:101C200080F06282738251834083D9016D937C93EB
:101C3000E114F10471F0D7011396FC93EE9312971F
:101C400076CF22968C0F9D1FF90191838083F3013B
:101C5000EFCFF0933204E093310469CF4816590670
:101C600008F42C017D01D3019ACFCB010E94650CB1
:101C70007C01009749F0AE01B8010E944C0EC801EA
:101C80000E94010D870153CF10E000E050CF81E0AA
:101C900090E0F8940C94930EFB01DC0102C00190DB
:101CA0000D9241505040D8F70895FB01DC0101909E
:101CB0000D920020E1F708952F923F924F925F928C
:101CC0006F927F928F929F92AF92BF92CF92DF924C
:101CD000EF92FF920F931F93CF93DF93CDB7DEB7B1
:101CE000CA1BDB0B0FB6F894DEBF0FBECDBF099445
:101CF0002A88398848885F846E847D848C849B849C
:101D0000AA84B984C884DF80EE80FD800C811B81A9
:101D1000AA81B981CE0FD11D0FB6F894DEBF0FBED8
:101D2000CDBFED010895F894FFCF01000100000040
:101D30003304800000C0C101C30302C2C60607C746
:101D400005C5C404CC0C0DCD0FCFCE0E0ACACB0BEB
:101D5000C90908C8D81819D91BDBDA1A1EDEDF1F1B
:101D6000DD1D1CDC14D4D515D71716D6D21213D30B
:101D700011D1D010F03031F133F3F23236F6F737BB
:101D8000F53534F43CFCFD3DFF3F3EFEFA3A3BFBAB
:101D900039F9F83828E8E929EB2B2AEAEE2E2FEF5B
:101DA0002DEDEC2CE42425E527E7E62622E2E323CB
:101DB000E12120E0A06061A163A3A26266A6A767FB
:101DC000A56564A46CACAD6DAF6F6EAEAA6A6BAB6B
:101DD00069A9A86878B8B979BB7B7ABABE7E7FBF9B
:101DE0007DBDBC7CB47475B577B7B67672B2B3738B
:101DF000B17170B05090915193535292965657973B
:101E0000559594549C5C5D9D5F9F9E5E5A9A9B5B2A
:101E100099595898884849894B8B8A4A4E8E8F4FDA
:101E20008D4D4C8C4484854587474686824243834A
:101E30004181804000C1814001C0804101C080419A
:101E400000C1814001C0804100C1814000C181408A
:101E500001C0804101C0804100C1814000C181407A
:101E600001C0804100C1814001C0804101C080416A
:101E700000C1814001C0804100C1814000C181405A
:101E800001C0804100C1814001C0804101C080414A
:101E900000C1814000C1814001C0804101C080413A
:101EA00000C1814001C0804100C1814000C181402A
:101EB00001C0804101C0804100C1814000C181401A
:101EC00001C0804100C1814001C0804101C080410A
:101ED00000C1814000C1814001C0804101C08041FA
:101EE00000C1814001C0804100C1814000C18140EA
:101EF00001C0804100C1814001C0804101C08041DA
:101F000000C1814001C0804100C1814000C18140C9
:101F100001C0804101C0804100C1814000C18140B9
:101F200001C0804100C1814001C0804101C08041A9
:101F300000C181400000000026028601B301730247
:101F4000E401C201D6010000000093021F01424CCF
:041F5000494E4400B2
:107800000C94343C0C94513C0C94513C0C94513CE1
:107810000C94513C0C94513C0C94513C0C94513CB4
:107820000C94513C0C94513C0C94513C0C94513CA4
:107830000C94513C0C94513C0C94513C0C94513C94
:107840000C94513C0C94513C0C94513C0C94513C84
:107850000C94513C0C94513C0C94513C0C94513C74
:107860000C94513C0C94513C11241FBECFEFD8E036
:10787000DEBFCDBF11E0A0E0B1E0ECE9FFE702C060
:1078800005900D92A230B107D9F712E0A2E0B1E065
:1078900001C01D92AD30B107E1F70E942D3D0C945F
:1078A000CC3F0C94003C982F959595959595959582
:1078B000905D8F708A307CF0282F295A8091C0000B
:1078C00085FFFCCF9093C6008091C00085FFFCCF60
:1078D0002093C6000895282F205DF0CF982F809127
:1078E000C00085FFFCCF9093C6000895EF92FF92F1
:1078F0000F931F93EE24FF2487018091C00087FD22
:1079000017C00894E11CF11C011D111D81E4E8164B
:1079100082E4F8068FE0080780E0180770F3E09132
:107920000401F091050109958091C00087FFE9CF1E
:107930008091C6001F910F91FF90EF9008950E94D3
:10794000763C982F8091C00085FFFCCF9093C600B5
:1079500091362CF490330CF09053892F089597555D
:10796000892F08951F930E949F3C182F0E949F3CCF
:107970001295107F810F1F9108951F93182F882350
:1079800021F00E94763C1150E1F71F9108951F935A
:10799000182F0E94763C803249F0809103018F5F5E
:1079A000809303018530C1F01F9108958091C0003C
:1079B00085FFFCCF84E18093C6008091C00085FFE5
:1079C000FCCF1093C6008091C00085FFFCCF80E102
:1079D0008093C6001F910895E0910401F091050184
:1079E00009951F9108950E94763C803241F0809164
:1079F00003018F5F80930301853081F008958091AA
:107A0000C00085FFFCCF84E18093C6008091C00058
:107A100085FFFCCF80E18093C6000895E0910401CA
:107A2000F09105010995089540E951E08823A1F0FE
:107A30002D9A28EE33E0FA013197F1F721503040CA
:107A4000D1F72D9828EE33E0FA013197F1F7215064
:107A50003040D1F7815061F708953F924F925F9285
:107A60006F927F928F929F92AF92BF92CF92DF924E
:107A7000EF92FF920F931F93CF93DF93000080E16B
:107A80008093C4001092C50088E18093C10086E015
:107A90008093C2005098589A259A81E00E94143D24
:107AA00024E1F22E9EE1E92E85E9D82E0FE0C02ECA
:107AB00010E1B12EAA24A394B1E49B2EA6E58A2E50
:107AC000F2E57F2EE0E26E2E79E4572E63E5462E36
:107AD00050E5352E0E94763C8033B1F18133B9F107
:107AE000803409F46FC0813409F476C0823409F41B
:107AF00085C0853409F488C0803531F1823521F1A3
:107B0000813511F1853509F485C0863509F48DC0BC
:107B1000843609F496C0843709F403C1853709F423
:107B200072C1863709F466C0809103018F5F80932C
:107B30000301853079F6E0910401F0910501099582
:107B40000E94763C803351F60E94F33CC3CF0E94E2
:107B5000763C803249F78091C00085FFFCCFF092DF
:107B6000C6008091C00085FFFCCF9092C600809136
:107B7000C00085FFFCCF8092C6008091C00085FFC9
:107B8000FCCF7092C6008091C00085FFFCCF609250
:107B9000C6008091C00085FFFCCF5092C600809146
:107BA000C00085FFFCCF4092C6008091C00085FFD9
:107BB000FCCF3092C6008091C00085FFFCCFB09210
:107BC000C60088CF0E94763C863808F4BDCF0E945C
:107BD000763C0E94F33C7ECF0E94763C803809F4CC
:107BE0009CC0813809F40BC1823809F43CC1883942
:107BF00009F48FC080E00E94C73C6CCF84E10E94F2
:107C0000BD3C0E94F33C66CF85E00E94BD3C0E94D3
:107C1000F33C60CF0E94763C809306010E94763C44
:107C2000809307010E94F33C55CF0E94763C80333D
:107C300009F41DC183E00E94BD3C80E00E94C73C66
:107C400049CF0E94763C809309020E94763C809343
:107C5000080280910C028E7F80930C020E94763C79
:107C6000853409F415C18091080290910902892B8D
:107C700089F000E010E00E94763CF801E85FFE4FDA
:107C800080830F5F1F4F80910802909109020817AF
:107C9000190788F30E94763C803209F045CF809125
:107CA0000C0280FF01C16091060170910701660F0F
:107CB000771F7093070160930601A0910802B091AD
:107CC00009021097C9F0E8E0F1E09B01AD014E0F09
:107CD0005F1FF999FECF32BD21BD819180BDFA9A17
:107CE000F99A2F5F3F4FE417F50799F76A0F7B1F4B
:107CF00070930701609306018091C00085FFFCCF5F
:107D0000F092C6008091C00085FFFCCFB092C60003
:107D1000E1CE83E00E94C73CDDCE82E00E94C73CFA
:107D2000D9CE0E94763C809309020E94763C8093D3
:107D300008028091060190910701880F991F909386
:107D40000701809306010E94763C853409F4A6C0A1
:107D500080910C028E7F80930C020E94763C8032D0
:107D600009F0B8CE8091C00085FFFCCFF092C6002C
:107D7000609108027091090261157105B9F140E046
:107D800050E080910C02A82FA170B82FB27011C0E2
:107D9000BB2309F45CC0E0910601F0910701319624
:107DA000F0930701E09306014F5F5F4F46175707B7
:107DB000E8F4AA2369F3F999FECF209106013091E6
:107DC000070132BD21BDF89A90B58091C00085FFB2
:107DD000FCCF9093C6002F5F3F4F30930701209355
:107DE00006014F5F5F4F4617570718F38091C00099
:107DF00085FDE5CE8091C00085FFF8CFE0CE81E023
:107E00000E94C73C67CE0E94763C803209F08CCE3F
:107E10008091C00085FFFCCFF092C6008091C00029
:107E200085FFFCCFE092C6008091C00085FFFCCFAB
:107E3000D092C6008091C00085FFFCCFC092C600E2
:107E40008091C00085FFFCCFB092C60043CEE09188
:107E50000601F091070194918091C00085FFFCCF4D
:107E60009093C6009CCF80E10E94C73C33CE0E9415
:107E7000763C0E94763C182F0E94763C112309F430
:107E800083C0113009F484C08FE00E94C73C22CE29
:107E900080910C02816080930C02E5CE80910C02EF
:107EA000816080930C0259CF809107018823880F4D
:107EB000880B8A2180930B02809106019091070123
:107EC000880F991F90930701809306018091080203
:107ED00080FF09C080910802909109020196909359
:107EE000090280930802F894F999FECF1127E091D6
:107EF0000601F0910701C8E0D1E08091080290915D
:107F00000902103091F40091570001700130D9F34B
:107F100003E000935700E89500915700017001308D
:107F2000D9F301E100935700E89509901990009169
:107F3000570001700130D9F301E000935700E89534
:107F40001395103498F011270091570001700130FB
:107F5000D9F305E000935700E895009157000170B0
:107F60000130D9F301E100935700E895329602976A
:107F700009F0C7CF103011F00296E5CF112480919F
:107F8000C00085FFB9CEBCCE8EE10E94C73CA2CD19
:0E7F900085E90E94C73C9ECDF894FFCF80008B
:00000001FF
