:100000000C9462000C948A000C948A000C948A0070
:100010000C948A000C948A000C948A000C948A0038
:100020000C948A000C948A000C948A000C948A0028
:100030000C948A000C948A000C948A000C948A0018
:100040000C94F9040C948A000C9469050C944305F3
:100050000C948A000C948A000C948A000C948A00F8
:100060000C948A000C948A000000000023002600F3
:10007000290000000000240027002A0000000000E2
:10008000250028002B0004040404040404040202D4
:100090000202020203030303030301020408102007
:1000A0004080010204081020010204081020000012
:1000B0000008000201000003040700000000000027
:1000C00000009B0511241FBECFEFD8E0DEBFCDBFDF
:1000D00013E0A0E0B1E0ECE8FDE102C005900D9274
:1000E000AA32B107D9F724E0AAE2B3E001C01D9219
:1000F000A033B207E1F710E0C2E6D0E004C02197D8
:10010000FE010E94760CC136D107C9F70E940C0689
:100110000C94C40E0C940000833081F028F48130DC
:1001200099F08230A9F008958730A9F08830C9F09D
:100130008430B1F4809180008F7D03C08091800075
:100140008F7780938000089584B58F7784BD08955C
:1001500084B58F7DFBCF8091B0008F778093B00006
:1001600008958091B0008F7DF9CF1F93CF93DF93D7
:10017000282F30E0F901E255FF4F8491F901E6564E
:10018000FF4FD491F901EA57FF4FC491CC23A9F056
:10019000162F81110E948C00EC2FF0E0EE0FFF1F54
:1001A000E458FF4FA591B4918FB7F894EC911111D9
:1001B00008C0D095DE23DC938FBFDF91CF911F91D4
:1001C0000895DE2BF8CFCF93DF9390E0FC01E65645
:1001D000FF4F24918A579F4FFC0184918823C9F0D7
:1001E00090E0880F991FFC01EE58FF4FA591B49144
:1001F000FC01E458FF4FC591D49161110DC09FB728
:10020000F8948C91209582238C93888128232883CD
:100210009FBFDF91CF910895623051F49FB7F8945A
:100220003C91822F809583238C93E8812E2BEFCFF6
:100230008FB7F894EC912E2B2C938FBFEACF862F9B
:10024000642F0C94E3003FB7F8948091520390918F
:100250005303A0915403B091550326B5A89B05C044
:100260002F3F19F00196A11DB11D3FBFBA2FA92F35
:10027000982F8827BC01CD01620F711D811D911D32
:1002800042E0660F771F881F991F4A95D1F708959E
:100290008F929F92AF92BF92CF92DF92EF92FF9296
:1002A0004B015C010E9423016B017C010E94230130
:1002B0006C197D098E099F09683E7340810591057F
:1002C000A8F321E0821A9108A108B10888EEC80EAF
:1002D00083E0D81EE11CF11C81149104A104B10437
:1002E00029F7FF90EF90DF90CF90BF90AF909F9055
:1002F0008F9008952FB7F89460914E0370914F033B
:1003000080915003909151032FBF0895AF92BF92F7
:10031000CF92DF92EF92FF920F931F93CF93DF93D1
:100320006C017B018B01040F151FEB015E01AE1800
:10033000BF08C017D10759F06991D601ED91FC9122
:100340000190F081E02DC6010995892B79F7C5014F
:10035000DF91CF911F910F91FF90EF90DF90CF90A1
:10036000BF90AF900895FC01538D448D252F30E050
:10037000842F90E0821B930B541710F0CF960895B2
:1003800001970895FC01918D828D981761F0A28DDF
:10039000AE0FBF2FB11D5D968C91928D9F5F9F73A5
:1003A000928F90E008958FEF9FEF0895FC01918D5B
:1003B000828D981731F0828DE80FF11D858D90E0C8
:1003C00008958FEF9FEF0895FC01918D228D892F65
:1003D00090E0805C9F4F821B91098F73992708954D
:1003E0008AE793E00E94E40121E0892B09F420E0F0
:1003F000822F089580E090E0892B29F00E94F0017F
:1004000081110C9400000895FC01A48DA80FB92F50
:10041000B11DA35ABF4F2C91848D90E001968F732C
:100420009927848FA689B7892C93A089B1898C914B
:10043000837080648C93938D848D981306C002889A
:10044000F389E02D80818F7D80830895EF92FF9264
:100450000F931F93CF93DF93EC0181E0888F9B8DE7
:100460008C8D98131AC0E889F989808185FF15C0A1
:100470009FB7F894EE89FF896083E889F9898081C4
:100480008370806480839FBF81E090E0DF91CF9193
:100490001F910F91FF90EF900895F62E0B8D10E0B5
:1004A0000F5F1F4F0F731127E02E8C8D8E110CC024
:1004B0000FB607FCFACFE889F989808185FFF5CF6F
:1004C000CE010E940402F1CFEB8DEC0FFD2FF11D48
:1004D000E35AFF4FF0829FB7F8940B8FEA89FB89AC
:1004E00080818062CFCFCF93DF93EC01888D88230A
:1004F000B9F0AA89BB89E889F9898C9185FD03C087
:10050000808186FD0DC00FB607FCF7CF8C9185FF6B
:10051000F2CF808185FFEDCFCE010E940402E9CFAA
:10052000DF91CF910895CF93DF93FC01218930E0D3
:10053000F901E255FF4F8491F901E656FF4FD4913E
:10054000F901EA57FF4FC491CC2379F081110E9441
:100550008C00EC2FF0E0EE0FFF1FE859FF4FA59144
:10056000B491EC91ED2381E009F480E08170DF919A
:10057000CF9108951F93CF93DF93EC01162F60E086
:10058000812F0E94E300198B1886CE010E949302EE
:10059000882319F08885836088870E947A016A839E
:1005A0007B838C839D83DF91CF911F910895CF92A0
:1005B000DF92EF92FF920F931F93CF93DF93EC01A3
:1005C00088858B7F8887CE010E949302182F8885AB
:1005D000869581701817B9F00E947A016A837B832F
:1005E0008C839D83888592E089278887888582FB14
:1005F000882780F9DF91CF911F910F91FF90EF90A5
:10060000DF90CF9008950E947A01CA80DB80EC8051
:10061000FD80AB01BC014C195D096E097F098E811B
:100620009F81B0E0A0E0481759076A077B07F0F206
:10063000888581701817D1F20E947A016A837B83C2
:100640008C839D83888591E08927846088870E94B8
:100650007A0109851A852B853C85601B710B820BFD
:10066000930B6D877E878F87988B0E947A016987AD
:100670007A878B879C87BACFFC0180819181009714
:1006800049F0FC01208131812617370719F0868156
:100690009781F5CF0895CF93DF93EB01BC0187E1FC
:1006A00094E00E943C03009789F0DC011496ED91E0
:1006B000FC91309759F080819181C817D90750F08B
:1006C00081E0228133812C173D0708F080E0DF9123
:1006D000CF91089581E0FBCFCF93DF93EA010E9491
:1006E0003C03009739F0FC01D383C28381E0DF91A2
:1006F000CF91089580E0FBCF0E943C03009721F04A
:10070000FC0182819381089590E080E0089560E08B
:100710008EE00E94B50060E088E00E94B5006AE0CB
:1007200070E080E090E00E94480161E08FE00E946C
:10073000B50061E089E00E94B50083E08093420348
:100740000E947A0160932A0370932B0380932C03F9
:1007500090932D0381E080934303089560E08FE040
:100760000E94B50060E089E00E94B5006AE070E098
:1007700080E090E00E94480161E08EE00E94B500B8
:1007800061E088E00E94B50081E0809342030E940E
:100790007A0160932A0370932B0380932C03909328
:1007A0002D03109243030895CF92DF92EF92FF92B0
:1007B0000F931F9360E08EE00E94B50060E08FE031
:1007C0000E94B50060E088E00E94B50060E089E02A
:1007D0000E94B5000E947A0100912A0310912B0318
:1007E00020912C0330912D036B017C01C01AD10A9A
:1007F000E20AF30AA701960180914203813021F5B4
:10080000A4E6B0E00E947C0C20E23EE440E050E030
:100810000E94540C8091400390914103821B930BE2
:1008200097FD05C0909341038093400304C010924C
:10083000410310924003109242031F910F91FF90C9
:10084000EF90DF90CF9008958330A9F7A4E6B0E051
:100850000E947C0C28E33AE440E050E00E94540CF3
:100860008091400390914103280F391F84E690E066
:1008700025363105BCF63093410320934003DBCF8E
:10088000CF93DF93EC0188E090E00E94960CFC018E
:10089000D183C0831382128215821482178216823A
:1008A0008091170490911804892B59F4F09318043F
:1008B000E0931704F0931A04E0931904DF91CF91A9
:1008C0000895A0911904B0911A041796FC93EE9321
:1008D0001697F0CF0F931F93CF93DF93182F062F08
:1008E000C7E1D4E082E0888762E070E08E819F817A
:1008F0000E94BB0DFC019F838E83105810830183DF
:1009000083E08987DF91CF911F910F910895AF9276
:10091000BF92DF92EF92FF920F931F93CF93DF93DB
:10092000D82E7B018A01BA016F5F7F4F660F6093FB
:100930001F0470E080911D0490911E040E94BB0D65
:1009400090931E0480931D0464E00097B9F1FC01AC
:10095000D08220911F0422502183F3E081E395E7A8
:10096000DF1202C081E49CE9D0E0C0E0E80EF91E8D
:100970000C171D0779F15701AC0EBD1EB50187E1BB
:1009800094E00E943C03892BC1F0B50187E194E01B
:100990000E947C0321969E01220F331FA0911D040B
:1009A000B0911E04A20FB31F9C93E0911D04F0911F
:1009B0001E04E20FF31F8183DBCF62E08D2DDF91F8
:1009C000CF911F910F91FF90EF90DF90BF90AF906C
:1009D0000C946A0483E080932004DF91CF911F91EF
:1009E0000F91FF90EF90DF90BF90AF9008950E941D
:1009F000780E1F920F920FB60F9211242F933F93F0
:100A00008F939F93AF93BF9380914E0390914F0329
:100A1000A0915003B091510330914D0323E0230F77
:100A20002D3758F50196A11DB11D20934D038093DC
:100A30004E0390934F03A0935003B09351038091C2
:100A4000520390915303A0915403B0915503019622
:100A5000A11DB11D8093520390935303A09354039F
:100A6000B0935503BF91AF919F918F913F912F917B
:100A70000F900FBE0F901F90189526E8230F029637
:100A8000A11DB11DD2CF1F920F920FB60F9211244C
:100A90002F933F934F935F936F937F938F939F9386
:100AA000AF93BF93EF93FF938AE793E00E94040212
:100AB000FF91EF91BF91AF919F918F917F916F9136
:100AC0005F914F913F912F910F900FBE0F901F900C
:100AD00018951F920F920FB60F9211242F938F9398
:100AE0009F93EF93FF93E0918A03F0918B038081B2
:100AF000E0919003F091910382FD1BC09081809161
:100B000093038F5F8F7320919403821741F0E091DC
:100B10009303F0E0E658FC4F958F80939303FF9189
:100B2000EF919F918F912F910F900FBE0F901F907B
:100B300018958081F4CFEAE7F3E01382128288EE01
:100B400093E0A0E0B0E084839583A683B7838EE032
:100B500093E09183808385EC90E09587848784EC93
:100B600090E09787868780EC90E0918B808B81EC7A
:100B700090E0938B828B82EC90E0958B848B86EC5B
:100B800090E0978B868B118E128E138E148EA7E1B8
:100B9000B4E011961C921E9213961C921E9212970C
:100BA00015961C921E92149717961C921E921697D9
:100BB00018961C92189719961C9219971B961C92BE
:100BC0001E921A971D96FC93EE931C978FEF9FEF42
:100BD0001F969C938E931E9783E350968C93E8E622
:100BE000F3E012821382148215822AE030E0378308
:100BF0002683108680E293E091838083118AE6E564
:100C0000F3E01282138214821582378326831086C2
:100C100091838083118A0895CF93DF9300D000D011
:100C2000CDB7DEB7789484B5826084BD84B5816029
:100C300084BD85B5826085BD85B5816085BD8091A7
:100C40006E00816080936E0010928100809181001F
:100C50008260809381008091810081608093810017
:100C6000809180008160809380008091B1008460D9
:100C70008093B1008091B00081608093B00080913A
:100C80007A00846080937A0080917A0082608093F9
:100C90007A0080917A00816080937A0080917A0056
:100CA000806880937A001092C10088E10EE00FB650
:100CB000F894A895809360000FBE0093600060E0F8
:100CC00087E00E94E30060E088E00E94E30060E0CB
:100CD00089E00E94E30060E08AE00E94E30060E0B7
:100CE00087E00E94B50060E088E00E94B50060E007
:100CF00089E00E94B50060E08AE00E94B50061E0F2
:100D00008EE00E94E30061E08FE00E94E30061E07A
:100D100088E00E94E30061E089E00E94E30060E077
:100D20008EE00E94B50060E08FE00E94B50060E0B8
:100D300088E00E94B50060E089E00E94B50061E1B2
:100D400070E088E693E00E94BA0209E110E0109397
:100D50006F0300936E0360E170E086E593E00E940C
:100D6000BA0210935D0300935C03E0918A03F09153
:100D70008B0382E08083E0918603F09187031082E9
:100D8000E0918803F09189038FEC808310929203A5
:100D9000E0918E03F0918F031EE01083E0918C03AD
:100DA000F0918D03808180618083E0918C03F091CC
:100DB0008D03808188608083E0918C03F0918D03A6
:100DC000808180688083E0918C03F0918D03808125
:100DD0008F7D8083809125049091260497FD08C023
:100DE00061E00E94E30060E0809125040E94B5006C
:100DF00086EB96E090932904809328048AEA9FE08A
:100E000090932B0480932A0480911B0490911C04DE
:100E10000E94320D86E090E00E94960C90931C0494
:100E200080931B04009721F064E273E00E94860E19
:100E300081E49CE90E94400482E49CE90E94400411
:100E400083E49CE90E94400484E49CE90E944004FD
:100E500085E49CE90E94400486E49CE90E944004E9
:100E6000212C312C21012394F4E06F2EA8950E94AF
:100E70007A016093490370934A0380934B039093E4
:100E80004C0310921F048091230490912404DC01F0
:100E9000ED91FC910084F185E02D099540911F04AE
:100EA000242F30E028173907E4F48091230490912F
:100EB0002404DC01ED91FC910084F185E02D09957D
:100EC00080931F0480912804909129048230910519
:100ED000D0F2880F991F880F991F05970197F1F796
:100EE000D2CF442309F4AEC1C9010E94960C90935D
:100EF0001E0480931D04198280911F040981081724
:100F0000A8F48091230490912404DC01ED91FC91DC
:100F10000284F385E02D0995E0911D04F0911E04F3
:100F2000E00FF11D80830F5F0983E6CFE0901D0481
:100F3000F0901E04F7017080772021F09091270433
:100F4000791278C19DEF980F4701FFEF8F1A9F0A22
:100F5000272D209530E0F901E65FFD4F4081409557
:100F6000265F3E4FD9015C91F401915070F02191C0
:100F70004227242F30E0D901A65FBD4F4C91452771
:100F8000265F3E4FD9015C91F0CF8E0D9F2D911DB4
:100F9000FC01329720810197FC018081322F282F9C
:100FA0004527542745272417350709F043C1D701A2
:100FB0001196DC90119712960D911C9113971027A2
:100FC000012710271496ED91FC911597FE27EF2726
:100FD000FE27FC83EB83EFEFED0DE13108F027C333
:100FE000F0E0EB50F84F0C94760CE309E309FE08AF
:100FF000D5095A0A0608170B170B170B170B170BF7
:10100000170B170B170B740A5208E10A0F5B1346F4
:101010006B817C81C8010E944B03882329F063E027
:1010200086E00E946A04F9C04B815C81B80187E1C7
:1010300094E00E946C03811102C062E0F1CF82E073
:1010400080932004772009F4EAC000911D041091D8
:101050001E041A830983809125049091260497FD2C
:1010600009C061E00E94B50061E070E080E090E0BE
:101070000E94480110E08091230490912404DC0137
:10108000ED91FC9120911F04121708F009C3A9816A
:10109000BA81A10FB11D0190F081E02D6C910995ED
:1010A0001F5FE9CF8B819C8101978B37910548F4B5
:1010B00016962C918B819C81880F991F28171906F1
:1010C00019F063E080E1ADCFD12CC12CA8014F5BBA
:1010D00053465A83498369817A816C0D7D1D87E16E
:1010E00094E00E943C03892B11F462E0EBCF5FEFA8
:1010F000C51AD50A8B819C818C159D0561F7FC82F0
:10110000EB82912C812CEB81FC81E7808085FE2C89
:10111000E82EA980BA80A80CB91CB701C5010E94AD
:101120004B0381117CCFA701B50187E194E00E94B8
:101130006C03FFEF8F1A9F0A2B813C812E5F3F4F7C
:101140003C832B83C814D904F1F680911D0490913F
:101150001E040E94320D85E080931F0485E090E01C
:101160000E94960CFC0190931E0480931D0464E081
:10117000892B09F4A7CF80E1808311830283138236
:10118000C48283E080932004772009F448C0E09073
:101190001D04F0901E04809125049091260497FD73
:1011A00009C061E00E94B50061E070E080E090E07D
:1011B0000E9448018091230490912404DC01ED9168
:1011C000FC910190F081E02D60912704099510E0D9
:1011D00060911F048091230490912404DC01ED911F
:1011E000FC91C080D180161708F023C2D701A10F4F
:1011F000B11D6C91F60109951F5FEACF8B819C812F
:1012000001978D37910518F063E083E00ACF4B8199
:101210005C81B80183E00E948704711003C081E003
:101220008093200480912004833009F4B0CF823071
:1012300009F40BCF80911D0490911E040E94320D81
:1012400010921F0480914803882341F18091440348
:1012500090914503A0914603B0914703805E914B66
:10126000AF4FBF4F4091490350914A0360914B03E8
:1012700070914C0384179507A607B70778F410926E
:1012800048030E94D40380914303811125C282E068
:1012900080934203109241031092400388E693E04A
:1012A0000E94D70286E593E00E94D70280917003E6
:1012B00082FF05C08170809302011092030180912A
:1012C0005E0382FF05C081708093000110920101CE
:1012D00080913F038823B9F08091310390913203CC
:1012E000029789F40E94AE0381E0809348030E9434
:1012F0007A0160934403709345038093460390936F
:10130000470310923F0380913F03882361F080914F
:10131000310390913203892B31F40E94D40310924F
:10132000480310923F0380913F038823B9F08091D6
:10133000310390913203049789F40E94870381E07E
:10134000809348030E947A0160934403709345039D
:10135000809346039093470310923F0380910001CE
:10136000909101018130910509F0BFC18091020186
:10137000909103018130910509F07FC2809148036B
:10138000811110C060E08EE00E94B50060E08FE047
:101390000E94B50060E088E00E94B50060E089E04E
:1013A0000E94B50010923003EBC18B819C810197A4
:1013B0008D37910518F063E084E033CE4B815C817A
:1013C000B80184E028CF8B819C81019763E0803D48
:1013D000974008F06DC08B819C8163E0969587955E
:1013E0006A95E1F72B813C8127703327232B09F085
:1013F00059C08E5F80931F0460911F0470E0C70185
:101400000E94BB0D90931E0480931D0464E000971E
:1014100009F44EC0FC01D08220911F042250218388
:10142000F1E061E070E0DF1611F061E177E2F12CAC
:10143000E12C060F171F5801AE0CBF1CB50187E148
:1014400094E00E943C03892B91F1B50187E194E07F
:101450000E947C032E2D27705201410104C0880C8C
:10146000991CAA1CBB1C2A95D2F7970153E036950C
:1014700027955A95E1F72E5F3F4FE0911D04F091BB
:101480001E04E20FF31F208181159F4F69F4822A09
:1014900080824FEFE41AF40A8B819C818E159F05A0
:1014A00051F66FCE8D5FA6CF80948222F1CF62E09D
:1014B0008D2DB7CDAB81BC81A115EFEFBE0731F00B
:1014C00063E0AB2B79F450E040E002C040E05FEF16
:1014D000B8016F5F7F4F87E194E00E946C03811138
:1014E000AECD62E085E09DCD8B819C8143E09695F9
:1014F00087954A95E1F72B813C8127703327232B71
:1015000009F001962B813C8121503109203B374065
:1015100008F055C0D70116962C912817190609F026
:101520004EC0D12CC12C5801BFEFAB1ABB0AB5017C
:101530006C0D7D1D87E194E00E943C030097E1F172
:10154000F60133E0F695E7953A95E1F7E80DF91DD8
:10155000268130E04C2D477002C0359527954A957D
:10156000E2F720FF26C020E03FEFFC013383228317
:10157000FFEFCF1ADF0A2B813C812C153D05B9F610
:1015800085E080931F0465E070E0C7010E94BB0DF9
:10159000FC0190931E0480931D0464E0892B69F084
:1015A0008FE08083118302833C8133834B814483AA
:1015B000E8CD30E020E0D9CF62E08FE032CD63E0CB
:1015C000FCCF60921F04A0911B04B0911C041097E3
:1015D00041F0FD0101900020E9F7EA1BED5FE09387
:1015E0001F0460911F0470E0C7010E94BB0DFC0145
:1015F00090931E0480931D0464E081E1309709F408
:1016000010CD51E1508380911F048250818312825A
:101610008FEF838360911B0470911C046115710529
:1016200009F4AFCDCF0104960E94860EAACD61E0E9
:101630003FCF40912704409550E0DA01A65FBD4FAF
:101640007C917095465F5E4FDA014C91A0911D042C
:10165000B0911E04615068F02D91272730E0F90108
:10166000E65FFD4F70817427265F3E4FF901408190
:10167000F1CF042F672FF6010995809123049091F3
:101680002404DC01ED91FC910190F081E02D602FAC
:1016900009958091230490912404DC01ED91FC9143
:1016A0000680F781E02D099580912A0490912B0402
:1016B0008230910538F0880F991F880F991F059780
:1016C0000197F1F7809125049091260497FDB2CD02
:1016D00060E00E94B500AECD60924203E4E6F0E027
:1016E000F0934103E0934003D9CD892B09F048C022
:1016F0008091020190910301892B31F58091300393
:10170000811122C080914303882309F4A5C00E945F
:1017100087030E947A01609344037093450380938A
:1017200046039093470381E08093480380933003FE
:1017300064E670E080E090E00E9448018091000142
:1017400090910101892BE1F48091020190910301B4
:101750000197B1F480913003811112C08091480348
:10176000882309F482C00E94D4031092480381E0C8
:101770008093300362E370E080E090E00E944801D3
:1017800000914003109141031A83098310933A0397
:101790000093390323E630E030933C0320933B036E
:1017A000009131031091320310932F0300932E0305
:1017B00040914203042E000C550B50933403409388
:1017C000330362E47CE987E194E00E946C03498181
:1017D0005A8165E47CE987E194E00E946C0343E66A
:1017E00050E066E47CE987E194E00E946C0361E4E8
:1017F0007CE987E194E00E947C039A83898390933B
:1018000032038093310363E47CE987E194E00E9432
:101810007C03909336038093350364E47CE987E18D
:1018200094E00E947C0390933803809337034981AE
:101830005A8104171507F1F081E080933F0380E09F
:1018400090E0892B09F412CB0E94F001882309F45F
:101850000DCB0E94000008CB0E94AE035ACF0E941D
:10186000870381E0809343031AC00E94AE03109265
:10187000430380CF10923F03E2CF892B09F080CF42
:101880008091300381117CCF80914803882339F304
:101890000E94D4031092480381E08093300362E3F6
:1018A00070E080E090E048CFA1E21A2EAA1BBB1B9B
:1018B000FD010DC0AA1FBB1FEE1FFF1FA217B3071C
:1018C000E407F50720F0A21BB30BE40BF50B661F32
:1018D000771F881F991F1A9469F7609570958095F6
:1018E00090959B01AC01BD01CF010895EE0FFF1F44
:1018F0000590F491E02D09940E94870CA59F900D0E
:10190000B49F900DA49F800D911D11240895A29F56
:10191000B001B39FC001A39F700D811D1124911DC3
:10192000B29F700D811D1124911D08950F931F9377
:10193000CF93DF938230910510F482E090E0E09144
:101940002E04F0912F0430E020E0B0E0A0E03097CA
:1019500099F42115310509F44AC0281B390B2430AC
:101960003105D8F58A819B816115710589F1FB01EB
:1019700093838283FE0111C04081518102811381D2
:1019800048175907E0F04817590799F4109761F084
:1019900012960C93129713961C933296CF01DF91F7
:1019A000CF911F910F91089500932E0410932F044F
:1019B000F4CF2115310551F04217530738F0A90132
:1019C000DB019A01BD01DF01F801C1CFEF01F9CFC1
:1019D00090932F0480932E04CDCFFE01E20FF31FCE
:1019E000819391932250310939832883D7CF209155
:1019F0002C0430912D04232B41F4209106013091C9
:101A0000070130932D0420932C0420910401309180
:101A100005012115310541F42DB73EB7409108016C
:101A200050910901241B350BE0912C04F0912D04F9
:101A3000E217F307A0F42E1B3F0B2817390778F0A5
:101A4000AC014E5F5F4F2417350748F04E0F5F1F04
:101A500050932D0440932C04819391939FCFF0E0F9
:101A6000E0E09CCFCF93DF930097E9F0FC01329741
:101A700013821282A0912E04B0912F04ED0130E068
:101A800020E01097A1F420813181820F931F2091D3
:101A90002C0430912D042817390709F061C0F09308
:101AA0002D04E0932C04DF91CF910895EA01CE1725
:101AB000DF07E8F54A815B819E0141155105B1F7C9
:101AC000E901FB83EA8349915991C40FD51FEC17B3
:101AD000FD0761F4808191810296840F951FE901D1
:101AE00099838883828193819B838A83F0E0E0E0FD
:101AF00012968D919C9113970097B9F52D913C9179
:101B00001197CD010296820F931F20912C043091E2
:101B10002D042817390739F6309751F510922F0404
:101B200010922E04B0932D04A0932C04BCCFD38329
:101B3000C28340815181840F951FC817D90761F472
:101B40004E5F5F4F88819981480F591F51834083B1
:101B50008A819B81938382832115310509F0B0CF5F
:101B6000F0932F04E0932E049ECFFD01DC01C0CF43
:101B700013821282D7CFB0E0A0E0E1ECFDE00C943C
:101B80008F0E8C01009751F4CB010E94960C8C01B2
:101B9000C801CDB7DEB7E0E10C94AB0EFC01E60F57
:101BA000F71F9C0122503109E217F30708F49DC08A
:101BB000D901CD91DC911197C617D70798F0C530A0
:101BC000D10530F3CE0104978617970708F3C61B9B
:101BD000D70B2297C193D1936D937C93CF010E9431
:101BE000320DD6CF5B01AC1ABD0A4C018C0E9D1E86
:101BF000A0912E04B0912F04512C412CF12CE12CFA
:101C0000109731F580912C0490912D048815990539
:101C100009F05CC04616570608F058C080910401D0
:101C200090910501009741F48DB79EB7409108014E
:101C300050910901841B950BE817F90708F055C06E
:101C4000F0932D04E0932C04F90171836083A0CFFD
:101C50008D919C91119712966C90129713967C908F
:101C60001397A815B90559F56C0142E0C40ED11CB3
:101C7000CA14DB0420F1AC014A195B09DA0112969F
:101C8000159780F06282738251834083D9016D93EE
:101C90007C93E114F10471F0D7011396FC93EE9359
:101CA000129776CF22968C0F9D1FF9019183808326
:101CB000F301EFCFF0932F04E0932E0469CF481681
:101CC000590608F42C017D01D3019ACFCB010E9463
:101CD000960C7C01009749F0AE01B8010E947D0E80
:101CE000C8010E94320D870153CF10E000E050CFB1
:101CF00081E090E0F8940C94C40EFB01DC0102C07A
:101D000001900D9241505040D8F70895FB01DC013D
:101D100001900D920020E1F708952F923F924F928B
:101D20005F926F927F928F929F92AF92BF92CF926B
:101D3000DF92EF92FF920F931F93CF93DF93CDB774
:101D4000DEB7CA1BDB0B0FB6F894DEBF0FBECDBFEC
:101D500009942A88398848885F846E847D848C84BD
:101D60009B84AA84B984C884DF80EE80FD800C81C6
:101D70001B81AA81B981CE0FD11D0FB6F894DEBFA9
:0C1D80000FBECDBFED010895F894FFCF19
:101D8C000100010000003004800000C0C101C30349
:101D9C0002C2C60607C705C5C404CC0C0DCD0FCFB7
:101DAC00CE0E0ACACB0BC90908C8D81819D91BDB27
:101DBC00DA1A1EDEDF1FDD1D1CDC14D4D515D71777
:101DCC0016D6D21213D311D1D010F03031F133F327
:101DDC00F23236F6F737F53534F43CFCFD3DFF3F77
:101DEC003EFEFA3A3BFB39F9F83828E8E929EB2BA7
:101DFC002AEAEE2E2FEF2DEDEC2CE42425E527E737
:101E0C00E62622E2E323E12120E0A06061A163A3A6
:101E1C00A26266A6A767A56564A46CACAD6DAF6F36
:101E2C006EAEAA6A6BAB69A9A86878B8B979BB7BA6
:101E3C007ABABE7E7FBF7DBDBC7CB47475B577B7F6
:101E4C00B67672B2B373B17170B050909151935326
:101E5C00529296565797559594549C5C5D9D5F9FF6
:101E6C009E5E5A9A9B5B99595898884849894B8B26
:101E7C008A4A4E8E8F4F8D4D4C8C448485458747B6
:101E8C004686824243834181804000C1814001C02B
:101E9C00804101C0804100C1814001C0804100C12E
:101EAC00814000C1814001C0804101C0804100C11E
:101EBC00814000C1814001C0804100C1814001C00E
:101ECC00804101C0804100C1814001C0804100C1FE
:101EDC00814000C1814001C0804100C1814001C0EE
:101EEC00804101C0804100C1814000C1814001C0DE
:101EFC00804101C0804100C1814001C0804100C1CE
:101F0C00814000C1814001C0804101C0804100C1BD
:101F1C00814000C1814001C0804100C1814001C0AD
:101F2C00804101C0804100C1814000C1814001C09D
:101F3C00804101C0804100C1814001C0804100C18D
:101F4C00814000C1814001C0804100C1814001C07D
:101F5C00804101C0804100C1814001C0804100C16D
:101F6C00814000C1814001C0804101C0804100C15D
:101F7C00814000C1814001C0804100C1814001C04D
:101F8C00804101C0804100C1814000000000260258
:101F9C008601B3017302E401C201D6010000000006
:0A1FAC0093021F01424C494E44000D
:00000001FF
